{
  "_format": "hh-sol-artifact-1",
  "contractName": "DclRental",
  "sourceName": "contracts/DclRental.sol",
  "abi": [
    {
      "inputs": [
        {
          "internalType": "address",
          "name": "_nftAddress",
          "type": "address"
        }
      ],
      "stateMutability": "nonpayable",
      "type": "constructor"
    },
    {
      "anonymous": false,
      "inputs": [
        {
          "indexed": false,
          "internalType": "uint256",
          "name": "assetId",
          "type": "uint256"
        },
        {
          "indexed": false,
          "internalType": "address",
          "name": "lessee",
          "type": "address"
        },
        {
          "indexed": false,
          "internalType": "uint256",
          "name": "finalLeaseLength",
          "type": "uint256"
        }
      ],
      "name": "LeaseAccepted",
      "type": "event"
    },
    {
      "anonymous": false,
      "inputs": [
        {
          "indexed": false,
          "internalType": "uint256",
          "name": "assetId",
          "type": "uint256"
        },
        {
          "indexed": false,
          "internalType": "address",
          "name": "lessor",
          "type": "address"
        },
        {
          "indexed": false,
          "internalType": "address",
          "name": "depositTo",
          "type": "address"
        }
      ],
      "name": "LeaseCanceled",
      "type": "event"
    },
    {
      "anonymous": false,
      "inputs": [
        {
          "indexed": false,
          "internalType": "uint256",
          "name": "assetId",
          "type": "uint256"
        },
        {
          "indexed": false,
          "internalType": "address",
          "name": "lessor",
          "type": "address"
        },
        {
          "indexed": false,
          "internalType": "uint256",
          "name": "rentAmount",
          "type": "uint256"
        },
        {
          "indexed": false,
          "internalType": "uint256",
          "name": "deposit",
          "type": "uint256"
        },
        {
          "indexed": false,
          "internalType": "uint256",
          "name": "minLeaseLength",
          "type": "uint256"
        },
        {
          "indexed": false,
          "internalType": "uint256",
          "name": "maxLeaseLength",
          "type": "uint256"
        },
        {
          "indexed": false,
          "internalType": "uint256",
          "name": "gracePeriod",
          "type": "uint256"
        },
        {
          "indexed": false,
          "internalType": "string",
          "name": "rentToken",
          "type": "string"
        },
        {
          "indexed": false,
          "internalType": "bool",
          "name": "autoRegenerate",
          "type": "bool"
        }
      ],
      "name": "LeaseCreated",
      "type": "event"
    },
    {
      "anonymous": false,
      "inputs": [
        {
          "indexed": false,
          "internalType": "uint256",
          "name": "assetId",
          "type": "uint256"
        }
      ],
      "name": "LeaseRemoved",
      "type": "event"
    },
    {
      "anonymous": false,
      "inputs": [
        {
          "indexed": false,
          "internalType": "uint256",
          "name": "assetId",
          "type": "uint256"
        },
        {
          "indexed": false,
          "internalType": "address",
          "name": "lessor",
          "type": "address"
        },
        {
          "indexed": false,
          "internalType": "bool",
          "name": "regenerate",
          "type": "bool"
        }
      ],
      "name": "LeaseTerminated",
      "type": "event"
    },
    {
      "anonymous": false,
      "inputs": [
        {
          "indexed": false,
          "internalType": "uint256",
          "name": "assetId",
          "type": "uint256"
        },
        {
          "indexed": false,
          "internalType": "address",
          "name": "lessor",
          "type": "address"
        },
        {
          "indexed": false,
          "internalType": "uint256",
          "name": "rentAmount",
          "type": "uint256"
        },
        {
          "indexed": false,
          "internalType": "uint256",
          "name": "deposit",
          "type": "uint256"
        },
        {
          "indexed": false,
          "internalType": "uint256",
          "name": "minLeaseLength",
          "type": "uint256"
        },
        {
          "indexed": false,
          "internalType": "uint256",
          "name": "maxLeaseLength",
          "type": "uint256"
        },
        {
          "indexed": false,
          "internalType": "uint256",
          "name": "gracePeriod",
          "type": "uint256"
        },
        {
          "indexed": false,
          "internalType": "string",
          "name": "rentToken",
          "type": "string"
        },
        {
          "indexed": false,
          "internalType": "bool",
          "name": "autoRegenerate",
          "type": "bool"
        }
      ],
      "name": "LeaseUpdated",
      "type": "event"
    },
    {
      "anonymous": false,
      "inputs": [
        {
          "indexed": false,
          "internalType": "address",
          "name": "account",
          "type": "address"
        }
      ],
      "name": "Paused",
      "type": "event"
    },
    {
      "anonymous": false,
      "inputs": [
        {
          "indexed": false,
          "internalType": "uint256",
          "name": "assetId",
          "type": "uint256"
        },
        {
          "indexed": false,
          "internalType": "address",
          "name": "lessee",
          "type": "address"
        },
        {
          "indexed": false,
          "internalType": "address",
          "name": "lessor",
          "type": "address"
        },
        {
          "indexed": false,
          "internalType": "uint256",
          "name": "amount",
          "type": "uint256"
        },
        {
          "indexed": false,
          "internalType": "uint256",
          "name": "monthsPaid",
          "type": "uint256"
        },
        {
          "indexed": false,
          "internalType": "string",
          "name": "rentToken",
          "type": "string"
        }
      ],
      "name": "RentPaid",
      "type": "event"
    },
    {
      "anonymous": false,
      "inputs": [
        {
          "indexed": true,
          "internalType": "bytes32",
          "name": "role",
          "type": "bytes32"
        },
        {
          "indexed": true,
          "internalType": "bytes32",
          "name": "previousAdminRole",
          "type": "bytes32"
        },
        {
          "indexed": true,
          "internalType": "bytes32",
          "name": "newAdminRole",
          "type": "bytes32"
        }
      ],
      "name": "RoleAdminChanged",
      "type": "event"
    },
    {
      "anonymous": false,
      "inputs": [
        {
          "indexed": true,
          "internalType": "bytes32",
          "name": "role",
          "type": "bytes32"
        },
        {
          "indexed": true,
          "internalType": "address",
          "name": "account",
          "type": "address"
        },
        {
          "indexed": true,
          "internalType": "address",
          "name": "sender",
          "type": "address"
        }
      ],
      "name": "RoleGranted",
      "type": "event"
    },
    {
      "anonymous": false,
      "inputs": [
        {
          "indexed": true,
          "internalType": "bytes32",
          "name": "role",
          "type": "bytes32"
        },
        {
          "indexed": true,
          "internalType": "address",
          "name": "account",
          "type": "address"
        },
        {
          "indexed": true,
          "internalType": "address",
          "name": "sender",
          "type": "address"
        }
      ],
      "name": "RoleRevoked",
      "type": "event"
    },
    {
      "anonymous": false,
      "inputs": [
        {
          "indexed": false,
          "internalType": "address",
          "name": "account",
          "type": "address"
        }
      ],
      "name": "Unpaused",
      "type": "event"
    },
    {
      "inputs": [],
      "name": "DEFAULT_ADMIN_ROLE",
      "outputs": [
        {
          "internalType": "bytes32",
          "name": "",
          "type": "bytes32"
        }
      ],
      "stateMutability": "view",
      "type": "function"
    },
    {
      "inputs": [],
      "name": "PLATFORM_ADMIN",
      "outputs": [
        {
          "internalType": "bytes32",
          "name": "",
          "type": "bytes32"
        }
      ],
      "stateMutability": "view",
      "type": "function"
    },
    {
      "inputs": [],
      "name": "PLATFORM_FEE_CEILING",
      "outputs": [
        {
          "internalType": "uint256",
          "name": "",
          "type": "uint256"
        }
      ],
      "stateMutability": "view",
      "type": "function"
    },
    {
      "inputs": [],
      "name": "SUPER_ADMIN",
      "outputs": [
        {
          "internalType": "bytes32",
          "name": "",
          "type": "bytes32"
        }
      ],
      "stateMutability": "view",
      "type": "function"
    },
    {
      "inputs": [
        {
          "internalType": "uint256",
          "name": "_assetId",
          "type": "uint256"
        },
        {
          "internalType": "uint256",
          "name": "_finalLeaseLength",
          "type": "uint256"
        }
      ],
      "name": "acceptLease",
      "outputs": [],
      "stateMutability": "payable",
      "type": "function"
    },
    {
      "inputs": [
        {
          "internalType": "uint256",
          "name": "",
          "type": "uint256"
        }
      ],
      "name": "acceptedTokenSymbols",
      "outputs": [
        {
          "internalType": "bytes32",
          "name": "",
          "type": "bytes32"
        }
      ],
      "stateMutability": "view",
      "type": "function"
    },
    {
      "inputs": [
        {
          "internalType": "string",
          "name": "",
          "type": "string"
        }
      ],
      "name": "acceptedTokensBySymbol",
      "outputs": [
        {
          "internalType": "address",
          "name": "tokenAddress",
          "type": "address"
        },
        {
          "internalType": "bool",
          "name": "added",
          "type": "bool"
        },
        {
          "internalType": "uint256",
          "name": "index",
          "type": "uint256"
        }
      ],
      "stateMutability": "view",
      "type": "function"
    },
    {
      "inputs": [
        {
          "internalType": "address",
          "name": "newAdmin",
          "type": "address"
        }
      ],
      "name": "addPlatformAdmin",
      "outputs": [],
      "stateMutability": "nonpayable",
      "type": "function"
    },
    {
      "inputs": [
        {
          "internalType": "uint256",
          "name": "_assetId",
          "type": "uint256"
        }
      ],
      "name": "adminRemoveLease",
      "outputs": [],
      "stateMutability": "nonpayable",
      "type": "function"
    },
    {
      "inputs": [
        {
          "internalType": "uint256",
          "name": "_assetId",
          "type": "uint256"
        },
        {
          "internalType": "address",
          "name": "_sendDepositTo",
          "type": "address"
        },
        {
          "internalType": "bool",
          "name": "malicious",
          "type": "bool"
        }
      ],
      "name": "adminTerminateLease",
      "outputs": [],
      "stateMutability": "nonpayable",
      "type": "function"
    },
    {
      "inputs": [
        {
          "internalType": "string",
          "name": "token",
          "type": "string"
        },
        {
          "internalType": "bool",
          "name": "emergency",
          "type": "bool"
        }
      ],
      "name": "adminWithdraw",
      "outputs": [],
      "stateMutability": "nonpayable",
      "type": "function"
    },
    {
      "inputs": [
        {
          "internalType": "uint256",
          "name": "",
          "type": "uint256"
        }
      ],
      "name": "allLeases",
      "outputs": [
        {
          "internalType": "address",
          "name": "lessor",
          "type": "address"
        },
        {
          "internalType": "address",
          "name": "lessee",
          "type": "address"
        },
        {
          "internalType": "uint256",
          "name": "assetId",
          "type": "uint256"
        }
      ],
      "stateMutability": "view",
      "type": "function"
    },
    {
      "inputs": [
        {
          "components": [
            {
              "internalType": "address",
              "name": "lessor",
              "type": "address"
            },
            {
              "internalType": "address",
              "name": "lessee",
              "type": "address"
            },
            {
              "internalType": "uint256",
              "name": "assetId",
              "type": "uint256"
            }
          ],
          "internalType": "struct DclRentalStorage.Lease",
          "name": "newLease",
          "type": "tuple"
        },
        {
          "components": [
            {
              "internalType": "uint256",
              "name": "rentAmount",
              "type": "uint256"
            },
            {
              "internalType": "uint256",
              "name": "deposit",
              "type": "uint256"
            },
            {
              "internalType": "uint256",
              "name": "monthsPaid",
              "type": "uint256"
            },
            {
              "internalType": "uint256",
              "name": "gracePeriod",
              "type": "uint256"
            },
            {
              "internalType": "uint256",
              "name": "minLeaseLength",
              "type": "uint256"
            },
            {
              "internalType": "uint256",
              "name": "maxLeaseLength",
              "type": "uint256"
            },
            {
              "internalType": "uint256",
              "name": "finalLeaseLength",
              "type": "uint256"
            },
            {
              "internalType": "uint256",
              "name": "dateSigned",
              "type": "uint256"
            },
            {
              "internalType": "string",
              "name": "rentToken",
              "type": "string"
            },
            {
              "internalType": "bool",
              "name": "isOpen",
              "type": "bool"
            },
            {
              "internalType": "bool",
              "name": "isLeased",
              "type": "bool"
            },
            {
              "internalType": "bool",
              "name": "autoRegenerate",
              "type": "bool"
            }
          ],
          "internalType": "struct DclRentalStorage.LeaseDetail",
          "name": "newLeaseDetail",
          "type": "tuple"
        },
        {
          "internalType": "bool",
          "name": "isUpdate",
          "type": "bool"
        }
      ],
      "name": "createLease",
      "outputs": [],
      "stateMutability": "nonpayable",
      "type": "function"
    },
    {
      "inputs": [
        {
          "internalType": "string",
          "name": "",
          "type": "string"
        }
      ],
      "name": "depositsByTokenSymbol",
      "outputs": [
        {
          "internalType": "uint256",
          "name": "",
          "type": "uint256"
        }
      ],
      "stateMutability": "view",
      "type": "function"
    },
    {
      "inputs": [
        {
          "internalType": "bytes32",
          "name": "role",
          "type": "bytes32"
        }
      ],
      "name": "getRoleAdmin",
      "outputs": [
        {
          "internalType": "bytes32",
          "name": "",
          "type": "bytes32"
        }
      ],
      "stateMutability": "view",
      "type": "function"
    },
    {
      "inputs": [
        {
          "internalType": "bytes32",
          "name": "role",
          "type": "bytes32"
        },
        {
          "internalType": "address",
          "name": "account",
          "type": "address"
        }
      ],
      "name": "grantRole",
      "outputs": [],
      "stateMutability": "nonpayable",
      "type": "function"
    },
    {
      "inputs": [
        {
          "internalType": "bytes32",
          "name": "role",
          "type": "bytes32"
        },
        {
          "internalType": "address",
          "name": "account",
          "type": "address"
        }
      ],
      "name": "hasRole",
      "outputs": [
        {
          "internalType": "bool",
          "name": "",
          "type": "bool"
        }
      ],
      "stateMutability": "view",
      "type": "function"
    },
    {
      "inputs": [
        {
          "internalType": "uint256",
          "name": "_assetId",
          "type": "uint256"
        }
      ],
      "name": "isLeaseCompleted",
      "outputs": [
        {
          "internalType": "bool",
          "name": "isCompleted",
          "type": "bool"
        }
      ],
      "stateMutability": "view",
      "type": "function"
    },
    {
      "inputs": [
        {
          "internalType": "uint256",
          "name": "_assetId",
          "type": "uint256"
        }
      ],
      "name": "isRentDue",
      "outputs": [
        {
          "internalType": "bool",
          "name": "rentDue",
          "type": "bool"
        }
      ],
      "stateMutability": "view",
      "type": "function"
    },
    {
      "inputs": [
        {
          "internalType": "uint256",
          "name": "_assetId",
          "type": "uint256"
        }
      ],
      "name": "isRentOverDue",
      "outputs": [
        {
          "internalType": "bool",
          "name": "",
          "type": "bool"
        }
      ],
      "stateMutability": "view",
      "type": "function"
    },
    {
      "inputs": [],
      "name": "landOperator",
      "outputs": [
        {
          "internalType": "address",
          "name": "",
          "type": "address"
        }
      ],
      "stateMutability": "view",
      "type": "function"
    },
    {
      "inputs": [
        {
          "internalType": "uint256",
          "name": "_assetId",
          "type": "uint256"
        }
      ],
      "name": "landlordCancelLease",
      "outputs": [],
      "stateMutability": "nonpayable",
      "type": "function"
    },
    {
      "inputs": [
        {
          "internalType": "address",
          "name": "",
          "type": "address"
        }
      ],
      "name": "landlordMaliciousCount",
      "outputs": [
        {
          "internalType": "uint256",
          "name": "",
          "type": "uint256"
        }
      ],
      "stateMutability": "view",
      "type": "function"
    },
    {
      "inputs": [
        {
          "internalType": "uint256",
          "name": "_assetId",
          "type": "uint256"
        }
      ],
      "name": "landlordRemoveLease",
      "outputs": [],
      "stateMutability": "nonpayable",
      "type": "function"
    },
    {
      "inputs": [
        {
          "internalType": "uint256",
          "name": "_assetId",
          "type": "uint256"
        }
      ],
      "name": "landlordTerminateLease",
      "outputs": [],
      "stateMutability": "nonpayable",
      "type": "function"
    },
    {
      "inputs": [
        {
          "internalType": "uint256",
          "name": "",
          "type": "uint256"
        }
      ],
      "name": "leaseByAssetId",
      "outputs": [
        {
          "internalType": "address",
          "name": "lessor",
          "type": "address"
        },
        {
          "internalType": "address",
          "name": "lessee",
          "type": "address"
        },
        {
          "internalType": "uint256",
          "name": "assetId",
          "type": "uint256"
        }
      ],
      "stateMutability": "view",
      "type": "function"
    },
    {
      "inputs": [],
      "name": "leaseCount",
      "outputs": [
        {
          "internalType": "uint256",
          "name": "",
          "type": "uint256"
        }
      ],
      "stateMutability": "view",
      "type": "function"
    },
    {
      "inputs": [
        {
          "internalType": "uint256",
          "name": "",
          "type": "uint256"
        }
      ],
      "name": "leaseDetailByAssetId",
      "outputs": [
        {
          "internalType": "uint256",
          "name": "rentAmount",
          "type": "uint256"
        },
        {
          "internalType": "uint256",
          "name": "deposit",
          "type": "uint256"
        },
        {
          "internalType": "uint256",
          "name": "monthsPaid",
          "type": "uint256"
        },
        {
          "internalType": "uint256",
          "name": "gracePeriod",
          "type": "uint256"
        },
        {
          "internalType": "uint256",
          "name": "minLeaseLength",
          "type": "uint256"
        },
        {
          "internalType": "uint256",
          "name": "maxLeaseLength",
          "type": "uint256"
        },
        {
          "internalType": "uint256",
          "name": "finalLeaseLength",
          "type": "uint256"
        },
        {
          "internalType": "uint256",
          "name": "dateSigned",
          "type": "uint256"
        },
        {
          "internalType": "string",
          "name": "rentToken",
          "type": "string"
        },
        {
          "internalType": "bool",
          "name": "isOpen",
          "type": "bool"
        },
        {
          "internalType": "bool",
          "name": "isLeased",
          "type": "bool"
        },
        {
          "internalType": "bool",
          "name": "autoRegenerate",
          "type": "bool"
        }
      ],
      "stateMutability": "view",
      "type": "function"
    },
    {
      "inputs": [
        {
          "internalType": "uint256",
          "name": "",
          "type": "uint256"
        }
      ],
      "name": "leaseIndexByAssetId",
      "outputs": [
        {
          "internalType": "uint256",
          "name": "",
          "type": "uint256"
        }
      ],
      "stateMutability": "view",
      "type": "function"
    },
    {
      "inputs": [],
      "name": "maliciousLimit",
      "outputs": [
        {
          "internalType": "uint256",
          "name": "",
          "type": "uint256"
        }
      ],
      "stateMutability": "view",
      "type": "function"
    },
    {
      "inputs": [],
      "name": "minGracePeriod",
      "outputs": [
        {
          "internalType": "uint256",
          "name": "",
          "type": "uint256"
        }
      ],
      "stateMutability": "view",
      "type": "function"
    },
    {
      "inputs": [],
      "name": "nftAddress",
      "outputs": [
        {
          "internalType": "address",
          "name": "",
          "type": "address"
        }
      ],
      "stateMutability": "view",
      "type": "function"
    },
    {
      "inputs": [],
      "name": "pause",
      "outputs": [],
      "stateMutability": "nonpayable",
      "type": "function"
    },
    {
      "inputs": [],
      "name": "paused",
      "outputs": [
        {
          "internalType": "bool",
          "name": "",
          "type": "bool"
        }
      ],
      "stateMutability": "view",
      "type": "function"
    },
    {
      "inputs": [
        {
          "internalType": "uint256",
          "name": "_assetId",
          "type": "uint256"
        }
      ],
      "name": "payRent",
      "outputs": [],
      "stateMutability": "payable",
      "type": "function"
    },
    {
      "inputs": [],
      "name": "platformFee",
      "outputs": [
        {
          "internalType": "uint256",
          "name": "",
          "type": "uint256"
        }
      ],
      "stateMutability": "view",
      "type": "function"
    },
    {
      "inputs": [
        {
          "internalType": "bytes32",
          "name": "role",
          "type": "bytes32"
        },
        {
          "internalType": "address",
          "name": "account",
          "type": "address"
        }
      ],
      "name": "renounceRole",
      "outputs": [],
      "stateMutability": "nonpayable",
      "type": "function"
    },
    {
      "inputs": [
        {
          "internalType": "bytes32",
          "name": "role",
          "type": "bytes32"
        },
        {
          "internalType": "address",
          "name": "account",
          "type": "address"
        }
      ],
      "name": "revokeRole",
      "outputs": [],
      "stateMutability": "nonpayable",
      "type": "function"
    },
    {
      "inputs": [
        {
          "internalType": "address",
          "name": "newOperator",
          "type": "address"
        }
      ],
      "name": "setDokoLandOperator",
      "outputs": [],
      "stateMutability": "nonpayable",
      "type": "function"
    },
    {
      "inputs": [
        {
          "internalType": "address",
          "name": "landlord",
          "type": "address"
        },
        {
          "internalType": "uint8",
          "name": "count",
          "type": "uint8"
        }
      ],
      "name": "setMalLandlordCount",
      "outputs": [],
      "stateMutability": "nonpayable",
      "type": "function"
    },
    {
      "inputs": [
        {
          "internalType": "uint256",
          "name": "newLimit",
          "type": "uint256"
        }
      ],
      "name": "setMaliciousLimit",
      "outputs": [],
      "stateMutability": "nonpayable",
      "type": "function"
    },
    {
      "inputs": [
        {
          "internalType": "uint256",
          "name": "_gracePeriod",
          "type": "uint256"
        }
      ],
      "name": "setMinGracePeriod",
      "outputs": [],
      "stateMutability": "nonpayable",
      "type": "function"
    },
    {
      "inputs": [
        {
          "internalType": "uint256",
          "name": "_assetId",
          "type": "uint256"
        },
        {
          "internalType": "address",
          "name": "_operator",
          "type": "address"
        }
      ],
      "name": "setUpdateOperator",
      "outputs": [],
      "stateMutability": "nonpayable",
      "type": "function"
    },
    {
      "inputs": [
        {
          "internalType": "bytes4",
          "name": "interfaceId",
          "type": "bytes4"
        }
      ],
      "name": "supportsInterface",
      "outputs": [
        {
          "internalType": "bool",
          "name": "",
          "type": "bool"
        }
      ],
      "stateMutability": "view",
      "type": "function"
    },
    {
      "inputs": [
        {
          "internalType": "uint256",
          "name": "_assetId",
          "type": "uint256"
        }
      ],
      "name": "tenantCancelLease",
      "outputs": [],
      "stateMutability": "nonpayable",
      "type": "function"
    },
    {
      "inputs": [],
      "name": "unpause",
      "outputs": [],
      "stateMutability": "nonpayable",
      "type": "function"
    },
    {
      "inputs": [
        {
          "internalType": "address",
          "name": "newAddress",
          "type": "address"
        }
      ],
      "name": "updateNftAddress",
      "outputs": [],
      "stateMutability": "nonpayable",
      "type": "function"
    },
    {
      "inputs": [
        {
          "internalType": "uint256",
          "name": "newFee",
          "type": "uint256"
        }
      ],
      "name": "updatePlatformFee",
      "outputs": [],
      "stateMutability": "nonpayable",
      "type": "function"
    },
    {
      "inputs": [
        {
          "internalType": "string",
          "name": "symbol",
          "type": "string"
        },
        {
          "internalType": "address",
          "name": "token",
          "type": "address"
        },
        {
          "internalType": "bool",
          "name": "added",
          "type": "bool"
        }
      ],
      "name": "updateSupportedToken",
      "outputs": [],
      "stateMutability": "nonpayable",
      "type": "function"
    }
  ],
  "bytecode": "0x600060028181556003829055600455608081905260a081905260c0819052600d80546001600160a01b0319908116909155600e80549091169055600f81905560e08181526101008290526101208290526101408290526101608290526101808290526101a08290526101c082905261028060408190526102608381526101e052610200839052610220839052610240839052601083815560118490556012849055601384905560148490556015849055601684905560178490559192620000c9916018916200039d565b5061012082015160099091018054610140840151610160909401511515620100000262ff0000199415156101000261ff00199415159490941661ffff199092169190911792909217929092161790553480156200012557600080fd5b506040516200652838038062006528833981016040819052620001489162000443565b601b805460ff191690556001601c556200017260008051602062006508833981519152336200029e565b6200018d600080516020620064e8833981519152336200029e565b620001b760008051602062006508833981519152600080516020620064e8833981519152620002ae565b600180546001600160a01b038084166001600160a01b031992831617835560008054831633178155600b805494850181558152600d5460039094027f0175b7a638427703f0dbe7bb9bbf987a2551717b34e79f33b5b1008d1fa01db981018054851695841695909517909455600e547f0175b7a638427703f0dbe7bb9bbf987a2551717b34e79f33b5b1008d1fa01dba85018054909416921691909117909155600f547f0175b7a638427703f0dbe7bb9bbf987a2551717b34e79f33b5b1008d1fa01dbb909201919091556002805491620002928362000475565b919050555050620004dc565b620002aa8282620002f9565b5050565b6000828152601a6020526040808220600101805490849055905190918391839186917fbd79b86ffe0ab8e8776151514217cd7cacd52c909f66475c3af44e129f0b00ff9190a4505050565b6000828152601a602090815260408083206001600160a01b038516845290915290205460ff16620002aa576000828152601a602090815260408083206001600160a01b03851684529091529020805460ff19166001179055620003593390565b6001600160a01b0316816001600160a01b0316837f2f8788117e7eff1d82e926ec794901d17c78024a50270940304540a733656f0d60405160405180910390a45050565b828054620003ab906200049f565b90600052602060002090601f016020900481019282620003cf57600085556200041a565b82601f10620003ea57805160ff19168380011785556200041a565b828001600101855582156200041a579182015b828111156200041a578251825591602001919060010190620003fd565b50620004289291506200042c565b5090565b5b808211156200042857600081556001016200042d565b6000602082840312156200045657600080fd5b81516001600160a01b03811681146200046e57600080fd5b9392505050565b60006000198214156200049857634e487b7160e01b600052601160045260246000fd5b5060010190565b600181811c90821680620004b457607f821691505b60208210811415620004d657634e487b7160e01b600052602260045260246000fd5b50919050565b615ffc80620004ec6000396000f3fe6080604052600436106102935760003560e01c80638eec52b71161015a578063c1d0a7d8116100c1578063e5eb7ae81161007a578063e5eb7ae8146108a1578063ea4554a9146108c1578063ee67ba8d146108e1578063ee74ebb214610901578063f1216b0a14610921578063fbd3967b1461093e57600080fd5b8063c1d0a7d8146107c3578063d02b1982146107e5578063d547741f14610805578063d9e8843f14610825578063dd011c1514610838578063df5cd7181461085857600080fd5b8063a217fddf11610113578063a217fddf1461070d578063a388f42f14610722578063aa0b598814610735578063b4c0498b14610755578063b74499961461076b578063b890fe4b146107a357600080fd5b80638eec52b71461063e5780638f962adc1461065e57806391d148541461068d578063973f2686146106ad57806397ae32a9146106cd5780639e6056da146106ed57600080fd5b80634ffd964f116101fe5780637c7c7c3c116101b75780637c7c7c3c146105915780638456cb59146105b357806385431010146105c857806386621f4b146105e85780638a0c6fd6146105fe5780638ad8c0a91461061e57600080fd5b80634ffd964f146104c45780635447c3ad146104e65780635bf8633a146105065780635c975abb1461053e57806369c7bc1e146105565780636bc194761461057657600080fd5b80632f2ff15d116102505780632f2ff15d146103e857806336568abe1461040a5780633f4ba83a1461042a578063459f840b1461043f57806346bb98841461045f5780634c60a0d41461048c57600080fd5b80630139430e1461029857806301ffc9a7146102d857806303cbdd2f146103085780631272a91314610382578063248a9ca3146103a257806326232a2e146103d2575b600080fd5b3480156102a457600080fd5b506102c56102b33660046152a4565b600a6020526000908152604090205481565b6040519081526020015b60405180910390f35b3480156102e457600080fd5b506102f86102f33660046152c1565b61095e565b60405190151581526020016102cf565b34801561031457600080fd5b5061035d6103233660046153db565b8051602081830181018051600882529282019190930120915280546001909101546001600160a01b03821691600160a01b900460ff169083565b604080516001600160a01b0390941684529115156020840152908201526060016102cf565b34801561038e57600080fd5b506102c561039d366004615418565b610995565b3480156103ae57600080fd5b506102c56103bd366004615418565b6000908152601a602052604090206001015490565b3480156103de57600080fd5b506102c560035481565b3480156103f457600080fd5b50610408610403366004615431565b6109b6565b005b34801561041657600080fd5b50610408610425366004615431565b6109e1565b34801561043657600080fd5b50610408610a64565b34801561044b57600080fd5b5061040861045a366004615461565b610a88565b34801561046b57600080fd5b506102c561047a366004615418565b60076020526000908152604090205481565b34801561049857600080fd5b506104ac6104a7366004615418565b610ad7565b6040516102cf9c9b9a999897969594939291906154ed565b3480156104d057600080fd5b506104d9610bc9565b6040516102cf919061555c565b3480156104f257600080fd5b506104086105013660046155b9565b610c21565b34801561051257600080fd5b50600154610526906001600160a01b031681565b6040516001600160a01b0390911681526020016102cf565b34801561054a57600080fd5b50601b5460ff166102f8565b34801561056257600080fd5b506104086105713660046152a4565b610d84565b34801561058257600080fd5b506102c566470de4df82000081565b34801561059d57600080fd5b506102c5600080516020615f8783398151915281565b3480156105bf57600080fd5b50610408610dc8565b3480156105d457600080fd5b506104086105e33660046152a4565b610de9565b3480156105f457600080fd5b506102c560045481565b34801561060a57600080fd5b50600054610526906001600160a01b031681565b34801561062a57600080fd5b506104086106393660046155fb565b610e38565b34801561064a57600080fd5b50610408610659366004615418565b611019565b34801561066a57600080fd5b5061067e610679366004615418565b6112af565b6040516102cf93929190615644565b34801561069957600080fd5b506102f86106a8366004615431565b6112ef565b3480156106b957600080fd5b506104086106c8366004615418565b61131a565b3480156106d957600080fd5b506102f86106e8366004615418565b61158e565b3480156106f957600080fd5b50610408610708366004615418565b6115f8565b34801561071957600080fd5b506102c5600081565b610408610730366004615668565b6118af565b34801561074157600080fd5b50610408610750366004615418565b611f1f565b34801561076157600080fd5b506102c560025481565b34801561077757600080fd5b506102c56107863660046153db565b805160208183018101805160098252928201919093012091525481565b3480156107af57600080fd5b506104086107be3660046153db565b611f3e565b3480156107cf57600080fd5b506102c5600080516020615fa783398151915281565b3480156107f157600080fd5b50610408610800366004615418565b61234e565b34801561081157600080fd5b50610408610820366004615431565b6126f4565b610408610833366004615418565b61271a565b34801561084457600080fd5b50610408610853366004615418565b612bae565b34801561086457600080fd5b5061067e610873366004615418565b6005602052600090815260409020805460018201546002909201546001600160a01b03918216929091169083565b3480156108ad57600080fd5b506104086108bc3660046152a4565b612cb3565b3480156108cd57600080fd5b506102f86108dc366004615418565b612d02565b3480156108ed57600080fd5b506104086108fc36600461568a565b612d79565b34801561090d57600080fd5b5061040861091c366004615418565b613476565b34801561092d57600080fd5b506102c568056bc75e2d6310000081565b34801561094a57600080fd5b506102f8610959366004615418565b613495565b60006001600160e01b03198216637965db0b60e01b148061098f57506301ffc9a760e01b6001600160e01b03198316145b92915050565b600c81815481106109a557600080fd5b600091825260209091200154905081565b6000828152601a60205260409020600101546109d28133613513565b6109dc8383613577565b505050565b6001600160a01b0381163314610a565760405162461bcd60e51b815260206004820152602f60248201527f416363657373436f6e74726f6c3a2063616e206f6e6c792072656e6f756e636560448201526e103937b632b9903337b91039b2b63360891b60648201526084015b60405180910390fd5b610a6082826135fd565b5050565b600080516020615f87833981519152610a7d8133613513565b610a85613664565b50565b600080516020615fa7833981519152610aa18133613513565b6001600160a01b038316610ab457600080fd5b506001600160a01b039091166000908152600a6020526040902060ff9091169055565b6006602052806000526040600020600091509050806000015490806001015490806002015490806003015490806004015490806005015490806006015490806007015490806008018054610b2a906157e2565b80601f0160208091040260200160405190810160405280929190818152602001828054610b56906157e2565b8015610ba35780601f10610b7857610100808354040283529160200191610ba3565b820191906000526020600020905b815481529060010190602001808311610b8657829003601f168201915b5050506009909301549192505060ff80821691610100810482169162010000909104168c565b6060600c805480602002602001604051908101604052809291908181526020018280548015610c1757602002820191906000526020600020905b815481526020019060010190808311610c03575b5050505050905090565b6002601c541415610c445760405162461bcd60e51b8152600401610a4d90615817565b6002601c55600080516020615fa7833981519152610c628133613513565b6000848152600660205260409020600901548490610100900460ff16610c9a5760405162461bcd60e51b8152600401610a4d9061584e565b610ca485856136f7565b610cc05760405162461bcd60e51b8152600401610a4d90615885565b6000858152600560205260409020546001600160a01b03168315610d0c57610ceb8660006001613940565b610d075760405162461bcd60e51b8152600401610a4d906158bc565b610d35565b610d198660016000613940565b610d355760405162461bcd60e51b8152600401610a4d906158bc565b604080518781526001600160a01b03831660208201527f0c3d7909f43909a0068b11879b7a209411c448caeda9fd8ba2bfd7f90440a41891015b60405180910390a150506001601c5550505050565b600080516020615fa7833981519152610d9d8133613513565b6001600160a01b038216610db057600080fd5b610a60600080516020615fa783398151915283613dd6565b600080516020615f87833981519152610de18133613513565b610a85613de0565b600080516020615fa7833981519152610e028133613513565b6001600160a01b038216610e1557600080fd5b50600080546001600160a01b0319166001600160a01b0392909216919091179055565b600080516020615fa7833981519152610e518133613513565b6001600160a01b038316610e6457600080fd5b600884604051610e7491906158eb565b9081526040519081900360200190205460ff600160a01b9091041615610f57578115610edf5782600885604051610eab91906158eb565b90815260405190819003602001902080546001600160a01b03929092166001600160a01b0319909216919091179055611013565b600884604051610eef91906158eb565b90815260405190819003602001812080546001600160a81b03191681556000600190910155600c90600890610f259087906158eb565b90815260200160405180910390206001015481548110610f4757610f47615907565b6000918252602082200155611013565b811561101357600c610f6885613e38565b815460018181018455600093845260209384902090910191909155604080516060810182526001600160a01b038716815285151593810193909352600c5490830191610fb391615933565b815250600885604051610fc691906158eb565b9081526040805191829003602090810190922083518154938501511515600160a01b026001600160a81b03199094166001600160a01b039091161792909217825591909101516001909101555b50505050565b601b5460ff161561103c5760405162461bcd60e51b8152600401610a4d9061594a565b6002601c54141561105f5760405162461bcd60e51b8152600401610a4d90615817565b6002601c556000818152600660205260409020600901548190610100900460ff1661109c5760405162461bcd60e51b8152600401610a4d9061584e565b816110a681613495565b156110c35760405162461bcd60e51b8152600401610a4d90615974565b6001546040516331a9108f60e11b81526004810185905284916001600160a01b031690636352211e9060240160206040518083038186803b15801561110757600080fd5b505afa15801561111b573d6000803e3d6000fd5b505050506040513d601f19601f8201168201806040525081019061113f91906159ab565b6000828152600560205260409020546001600160a01b039081169116146111785760405162461bcd60e51b8152600401610a4d906159c8565b6000848152600560205260409020600101546001600160a01b031633146111e15760405162461bcd60e51b815260206004820152601860248201527f6d73672e73656e646572206973206e6f742074656e616e7400000000000000006044820152606401610a4d565b6000848152600560205260409020546112049085906001600160a01b03166136f7565b6112205760405162461bcd60e51b8152600401610a4d90615885565b61122d8460016000613940565b6112495760405162461bcd60e51b8152600401610a4d906158bc565b6000848152600560209081526040918290205482518781526001600160a01b03909116918101829052918201527f8ee536b695f3bf89b150a60c4570c9f2ddf0a24b591c4fbc7a618130173720ed906060015b60405180910390a150506001601c555050565b600b81815481106112bf57600080fd5b60009182526020909120600390910201805460018201546002909201546001600160a01b03918216935091169083565b6000918252601a602090815260408084206001600160a01b0393909316845291905290205460ff1690565b601b5460ff161561133d5760405162461bcd60e51b8152600401610a4d9061594a565b6002601c5414156113605760405162461bcd60e51b8152600401610a4d90615817565b6002601c556000818152600660205260409020600901548190610100900460ff161561139e5760405162461bcd60e51b8152600401610a4d906159f6565b600082815260066020526040902060090154829060ff166113d15760405162461bcd60e51b8152600401610a4d90615a2d565b826113db81613495565b156113f85760405162461bcd60e51b8152600401610a4d90615974565b600154604051634f558e7960e01b81526004810186905285916001600160a01b031690634f558e799060240160206040518083038186803b15801561143c57600080fd5b505afa158015611450573d6000803e3d6000fd5b505050506040513d601f19601f820116820180604052508101906114749190615a5d565b6114905760405162461bcd60e51b8152600401610a4d90615a7a565b6001546040516331a9108f60e11b815260048101879052869133916001600160a01b0390911690636352211e9060240160206040518083038186803b1580156114d857600080fd5b505afa1580156114ec573d6000803e3d6000fd5b505050506040513d601f19601f8201168201806040525081019061151091906159ab565b6001600160a01b0316146115365760405162461bcd60e51b8152600401610a4d90615ab1565b61154286600080613940565b61155e5760405162461bcd60e51b8152600401610a4d906158bc565b6040518681527fc5af117645321e4904da30aa139f8216d355b2a30b77c59256226118dc82a94490602001610d6f565b60004261159a83613e54565b156115e9576115a883612d02565b156115b65750600192915050565b600083815260066020526040902060078101546002909101546115d99190613e99565b8111156115e95750600192915050565b50600092915050565b50919050565b601b5460ff161561161b5760405162461bcd60e51b8152600401610a4d9061594a565b6002601c54141561163e5760405162461bcd60e51b8152600401610a4d90615817565b6002601c556000818152600660205260409020600901548190610100900460ff1661167b5760405162461bcd60e51b8152600401610a4d9061584e565b8161168581613495565b156116a25760405162461bcd60e51b8152600401610a4d90615974565b6001546040516331a9108f60e11b815260048101859052849133916001600160a01b0390911690636352211e9060240160206040518083038186803b1580156116ea57600080fd5b505afa1580156116fe573d6000803e3d6000fd5b505050506040513d601f19601f8201168201806040525081019061172291906159ab565b6001600160a01b0316146117485760405162461bcd60e51b8152600401610a4d90615ab1565b6001546040516331a9108f60e11b81526004810186905285916001600160a01b031690636352211e9060240160206040518083038186803b15801561178c57600080fd5b505afa1580156117a0573d6000803e3d6000fd5b505050506040513d601f19601f820116820180604052508101906117c491906159ab565b6000828152600560205260409020546001600160a01b039081169116146117fd5760405162461bcd60e51b8152600401610a4d906159c8565b61180685612d02565b6118495760405162461bcd60e51b815260206004820152601460248201527352656e74206973206e6f74206f7665722064756560601b6044820152606401610a4d565b60008581526005602052604090205461186c9086906001600160a01b03166136f7565b6118885760405162461bcd60e51b8152600401610a4d90615885565b6000858152600560205260408120546001600160a01b031690610d19908790600190613940565b601b5460ff16156118d25760405162461bcd60e51b8152600401610a4d9061594a565b6000828152600660205260409020600901548290610100900460ff161561190b5760405162461bcd60e51b8152600401610a4d906159f6565b600083815260066020526040902060090154839060ff1661193e5760405162461bcd60e51b8152600401610a4d90615a2d565b6001546040516331a9108f60e11b81526004810186905285916001600160a01b031690636352211e9060240160206040518083038186803b15801561198257600080fd5b505afa158015611996573d6000803e3d6000fd5b505050506040513d601f19601f820116820180604052508101906119ba91906159ab565b6000828152600560205260409020546001600160a01b039081169116146119f35760405162461bcd60e51b8152600401610a4d906159c8565b6000858152600660205260409020600401548410801590611a2557506000858152600660205260409020600501548411155b611a715760405162461bcd60e51b815260206004820152601c60248201527f4c65617365206c656e677468206973206f7574206f662072616e6765000000006044820152606401610a4d565b6001546040516331a9108f60e11b81526004810187905233916001600160a01b031690636352211e9060240160206040518083038186803b158015611ab557600080fd5b505afa158015611ac9573d6000803e3d6000fd5b505050506040513d601f19601f82011682018060405250810190611aed91906159ab565b6001600160a01b03161415611b445760405162461bcd60e51b815260206004820152601c60248201527f6d73672e73656e646572206d757374206e6f74206265206f776e6572000000006044820152606401610a4d565b6000604051602001611b5590615ae8565b60408051601f19818403018152828252805160209182012060008a815260068352929092209192611b8a926008019101615af7565b604051602081830303815290604052805190602001201415611c155750600085815260066020526040902060018101549054333191611bc891615b69565b341015611c105760405162461bcd60e51b815260206004820152601660248201527508aa89040e6cadce840d2e640dcdee840cadcdeeaced60531b6044820152606401610a4d565b611cc0565b600860066000888152602001908152602001600020600801604051611c3a9190615af7565b908152604051908190036020018120546370a0823160e01b82523360048301526001600160a01b0316906370a082319060240160206040518083038186803b158015611c8557600080fd5b505afa158015611c99573d6000803e3d6000fd5b505050506040513d601f19601f82011682018060405250810190611cbd9190615b81565b90505b600086815260066020526040902060018101549054611cdf9190615b69565b811015611cfe5760405162461bcd60e51b8152600401610a4d90615b9a565b600086815260056020908152604080832060010180546001600160a01b0319163317905560069182905282206002810183905560098101805461ffff191661010017905542600782015501869055546001600160a01b031615611dc457600154600054604051630585816360e51b8152600481018990526001600160a01b03918216602482015291169063b0b02c6090604401600060405180830381600087803b158015611dab57600080fd5b505af1158015611dbf573d6000803e3d6000fd5b505050505b6000868152600560209081526040808320600790925290912054600b80549091908110611df357611df3615907565b60009182526020909120825460039092020180546001600160a01b039283166001600160a01b0319918216178255600180850154908301805491909416911617909155600291820154910155611e4886613f70565b611e8d5760405162461bcd60e51b815260206004820152601660248201527511985a5b1959081d1bc81b585ad94819195c1bdcda5d60521b6044820152606401610a4d565b611e96866141e5565b611ed75760405162461bcd60e51b815260206004820152601260248201527111985a5b1959081d1bc81c185e481c995b9d60721b6044820152606401610a4d565b604080518781523360208201529081018690527f94979a671533443f713c18fbc36274386c465d7e9fd6fd34e122f34a2146edcc9060600160405180910390a1505050505050565b600080516020615fa7833981519152611f388133613513565b50600355565b6002601c541415611f615760405162461bcd60e51b8152600401610a4d90615817565b6002601c55600080516020615f87833981519152611f7f8133613513565b600882604051611f8f91906158eb565b9081526040519081900360200190205460ff600160a01b90910416611fee5760405162461bcd60e51b8152602060048201526015602482015274151bdad95b881a5cc81b9bdd081858d8d95c1d1959605a1b6044820152606401610a4d565b604051602001611ffd90615ae8565b604051602081830303815290604052805190602001208260405160200161202491906158eb565b6040516020818303038152906040528051906020012014156120df5760405147906009906120539085906158eb565b9081526020016040518091039020548161206d9190615933565b604051909150600090339083908381818185875af1925050503d80600081146120b2576040519150601f19603f3d011682016040523d82523d6000602084013e6120b7565b606091505b50509050806120d85760405162461bcd60e51b8152600401610a4d90615bc6565b5050612345565b670de0b6b3a76400006008836040516120f891906158eb565b908152604051908190036020018120546370a0823160e01b82523060048301526001600160a01b0316906370a082319060240160206040518083038186803b15801561214357600080fd5b505afa158015612157573d6000803e3d6000fd5b505050506040513d601f19601f8201168201806040525081019061217b9190615b81565b116121c85760405162461bcd60e51b815260206004820152601b60248201527f436f6e74726163742062616c616e636520697320746f6f206c6f7700000000006044820152606401610a4d565b60006008836040516121da91906158eb565b908152604051908190036020018120546370a0823160e01b82523060048301526001600160a01b0316906370a082319060240160206040518083038186803b15801561222557600080fd5b505afa158015612239573d6000803e3d6000fd5b505050506040513d601f19601f8201168201806040525081019061225d9190615b81565b905060098360405161226f91906158eb565b908152602001604051809103902054816122899190615933565b905060088360405161229b91906158eb565b9081526040519081900360200181205463a9059cbb60e01b8252336004830152602482018390526001600160a01b03169063a9059cbb90604401602060405180830381600087803b1580156122ef57600080fd5b505af1158015612303573d6000803e3d6000fd5b505050506040513d601f19601f820116820180604052508101906123279190615a5d565b6123435760405162461bcd60e51b8152600401610a4d90615bef565b505b50506001601c55565b601b5460ff16156123715760405162461bcd60e51b8152600401610a4d9061594a565b6002601c5414156123945760405162461bcd60e51b8152600401610a4d90615817565b6002601c556000818152600660205260409020600901548190610100900460ff166123d15760405162461bcd60e51b8152600401610a4d9061584e565b600154604051634f558e7960e01b81526004810184905283916001600160a01b031690634f558e799060240160206040518083038186803b15801561241557600080fd5b505afa158015612429573d6000803e3d6000fd5b505050506040513d601f19601f8201168201806040525081019061244d9190615a5d565b6124695760405162461bcd60e51b8152600401610a4d90615a7a565b6001546040516331a9108f60e11b815260048101859052849133916001600160a01b0390911690636352211e9060240160206040518083038186803b1580156124b157600080fd5b505afa1580156124c5573d6000803e3d6000fd5b505050506040513d601f19601f820116820180604052508101906124e991906159ab565b6001600160a01b03161461250f5760405162461bcd60e51b8152600401610a4d90615ab1565b60008481526006602052604090206009015460ff16156125715760405162461bcd60e51b815260206004820152601a60248201527f546865206c65617365206d757374206e6f74206265206f70656e0000000000006044820152606401610a4d565b6001546040516331a9108f60e11b8152600481018690526001600160a01b0390911690636352211e9060240160206040518083038186803b1580156125b557600080fd5b505afa1580156125c9573d6000803e3d6000fd5b505050506040513d601f19601f820116820180604052508101906125ed91906159ab565b6000858152600560205260409020546001600160a01b039081169116146126265760405162461bcd60e51b8152600401610a4d906159c8565b60008481526005602052604090206001015461264c9085906001600160a01b03166136f7565b6126685760405162461bcd60e51b8152600401610a4d90615885565b6126758460006001613940565b6126915760405162461bcd60e51b8152600401610a4d906158bc565b600084815260056020908152604091829020805460019091015483518881526001600160a01b039283169381019390935216918101919091527f8ee536b695f3bf89b150a60c4570c9f2ddf0a24b591c4fbc7a618130173720ed9060600161129c565b6000828152601a60205260409020600101546127108133613513565b6109dc83836135fd565b601b5460ff161561273d5760405162461bcd60e51b8152600401610a4d9061594a565b6002601c5414156127605760405162461bcd60e51b8152600401610a4d90615817565b6002601c556000818152600660205260409020600901548190610100900460ff1661279d5760405162461bcd60e51b8152600401610a4d9061584e565b6001546040516331a9108f60e11b81526004810184905283916001600160a01b031690636352211e9060240160206040518083038186803b1580156127e157600080fd5b505afa1580156127f5573d6000803e3d6000fd5b505050506040513d601f19601f8201168201806040525081019061281991906159ab565b6000828152600560205260409020546001600160a01b039081169116146128525760405162461bcd60e51b8152600401610a4d906159c8565b600154604051634f558e7960e01b81526004810185905284916001600160a01b031690634f558e799060240160206040518083038186803b15801561289657600080fd5b505afa1580156128aa573d6000803e3d6000fd5b505050506040513d601f19601f820116820180604052508101906128ce9190615a5d565b6128ea5760405162461bcd60e51b8152600401610a4d90615a7a565b60086006600086815260200190815260200160002060080160405161290f9190615af7565b9081526040519081900360200190205460ff600160a01b909104168061298c575060405160200161293f90615ae8565b60408051601f198184030181528282528051602091820120600088815260068352929092209192612974926008019101615af7565b60405160208183030381529060405280519060200120145b6129ce5760405162461bcd60e51b8152602060048201526013602482015272151bdad95b881b9bdd081cdd5c1c1bdc9d1959606a1b6044820152606401610a4d565b60008481526006602052604090206009015460ff1615612a305760405162461bcd60e51b815260206004820152601a60248201527f546865206c65617365206d757374206e6f74206265206f70656e0000000000006044820152606401610a4d565b6000848152600560205260409020600101546001600160a01b0316331480612a6b5750612a6b600080516020615fa7833981519152336112ef565b612ab75760405162461bcd60e51b815260206004820152601c60248201527f6d73672e73656e646572206973206e6f7420617574686f7269736564000000006044820152606401610a4d565b60008481526006602081905260409091209081015460029091015410612b125760405162461bcd60e51b815260206004820152601060248201526f14995b9d081a5cc8185b1b081c185a5960821b6044820152606401610a4d565b612b1b8461158e565b612b595760405162461bcd60e51b815260206004820152600f60248201526e52656e74206973206e6f742064756560881b6044820152606401610a4d565b612b62846141e5565b612ba35760405162461bcd60e51b815260206004820152601260248201527111985a5b1959081d1bc81c185e481c995b9d60721b6044820152606401610a4d565b50506001601c555050565b6002601c541415612bd15760405162461bcd60e51b8152600401610a4d90615817565b6002601c55600080516020615fa7833981519152612bef8133613513565b6000828152600660205260409020600901548290610100900460ff1615612c285760405162461bcd60e51b8152600401610a4d906159f6565b600083815260066020526040902060090154839060ff16612c5b5760405162461bcd60e51b8152600401610a4d90615a2d565b612c6784600080613940565b612c835760405162461bcd60e51b8152600401610a4d906158bc565b6040518481527fc5af117645321e4904da30aa139f8216d355b2a30b77c59256226118dc82a9449060200161129c565b600080516020615fa7833981519152612ccc8133613513565b6001600160a01b038216612cdf57600080fd5b50600180546001600160a01b0319166001600160a01b0392909216919091179055565b600042612d0e83613e54565b156115e95760008381526006602081905260409091209081015460029091015410612d3c5750600092915050565b600083815260066020526040902060078101546002909101546115d991612d6291613e99565b600085815260066020526040902060030154614835565b601b5460ff1615612d9c5760405162461bcd60e51b8152600401610a4d9061594a565b6040838101516001549151634f558e7960e01b81526004810182905290916001600160a01b031690634f558e799060240160206040518083038186803b158015612de557600080fd5b505afa158015612df9573d6000803e3d6000fd5b505050506040513d601f19601f82011682018060405250810190612e1d9190615a5d565b612e395760405162461bcd60e51b8152600401610a4d90615a7a565b6008836101000151604051612e4e91906158eb565b9081526040519081900360200190205460ff600160a01b9091041680612ec25750604051602001612e7e90615ae8565b60405160208183030381529060405280519060200120836101000151604051602001612eaa91906158eb565b60405160208183030381529060405280519060200120145b612f065760405162461bcd60e51b8152602060048201526015602482015274151bdad95b881a5cc81b9bdd081858d8d95c1d1959605a1b6044820152606401610a4d565b8115612f6a5760408085015160009081526006602052206009015460ff16612f655760405162461bcd60e51b81526020600482015260126024820152712632b0b9b29036bab9ba1031329037b832b760711b6044820152606401610a4d565b612fe7565b604080850151600090815260066020522060090154610100900460ff161580612f9b5750612f9b8460400151613495565b612fe75760405162461bcd60e51b815260206004820152601860248201527f4173736574206d757374206e6f74206265206c656173656400000000000000006044820152606401610a4d565b82608001518360a00151101561303f5760405162461bcd60e51b815260206004820181905260248201527f4d696e206d757374206e6f742062652067726561746572207468616e206d61786044820152606401610a4d565b6007836060015110156130945760405162461bcd60e51b815260206004820152601960248201527f477261636520706572696f64206d757374206265203e3d2037000000000000006044820152606401610a4d565b60015460408581015190516331a9108f60e11b8152600481019190915233916001600160a01b031690636352211e9060240160206040518083038186803b1580156130de57600080fd5b505afa1580156130f2573d6000803e3d6000fd5b505050506040513d601f19601f8201168201806040525081019061311691906159ab565b6001600160a01b0316148061313e575061313e600080516020615fa7833981519152336112ef565b61318a5760405162461bcd60e51b815260206004820152601c60248201527f6d73672e73656e646572206973206e6f7420617574686f7269736564000000006044820152606401610a4d565b60015460405163e985e9c560e01b81523360048201523060248201526001600160a01b039091169063e985e9c59060440160206040518083038186803b1580156131d357600080fd5b505afa1580156131e7573d6000803e3d6000fd5b505050506040513d601f19601f8201168201806040525081019061320b9190615a5d565b6132575760405162461bcd60e51b815260206004820152601a60248201527f4d75737420617070726f7665207468697320636f6e74726163740000000000006044820152606401610a4d565b600454336000908152600a602052604090205411156132b85760405162461bcd60e51b815260206004820152601b60248201527f4d616c6963696f757320636f756e7420697320746f6f206869676800000000006044820152606401610a4d565b6132c2848461485d565b6133075760405162461bcd60e51b81526020600482015260166024820152754661696c656420746f20637265617465206c6561736560501b6044820152606401610a4d565b8115801561331f57506000546001600160a01b031615155b15613393576001546040858101516000549151630585816360e51b815260048101919091526001600160a01b03918216602482015291169063b0b02c6090604401600060405180830381600087803b15801561337a57600080fd5b505af115801561338e573d6000803e3d6000fd5b505050505b8115613407577f49225b30033615489e3c45f15d5b57530db0939b836a336c5cdea2de438f0dbb8460400151338560000151866020015187608001518860a0015189606001518a61010001518b61016001516040516133fa99989796959493929190615c26565b60405180910390a1611013565b7f6019f210902bfdea4604ffe72d044a31a1f956052fc767a24d4566530d3180778460400151338560000151866020015187608001518860a0015189606001518a61010001518b610160015160405161346899989796959493929190615c26565b60405180910390a150505050565b600080516020615fa783398151915261348f8133613513565b50600455565b600081815260066020526040812060090154610100900460ff1615613506576000828152600660208190526040909120908101546002909101541061350657600082815260066020819052604090912060078101549101546134f79190613e99565b42111561350657506001919050565b506000919050565b919050565b61351d82826112ef565b610a6057613535816001600160a01b03166014614bde565b613540836020614bde565b604051602001613551929190615c86565b60408051601f198184030181529082905262461bcd60e51b8252610a4d91600401615cfb565b61358182826112ef565b610a60576000828152601a602090815260408083206001600160a01b03851684529091529020805460ff191660011790556135b93390565b6001600160a01b0316816001600160a01b0316837f2f8788117e7eff1d82e926ec794901d17c78024a50270940304540a733656f0d60405160405180910390a45050565b61360782826112ef565b15610a60576000828152601a602090815260408083206001600160a01b0385168085529252808320805460ff1916905551339285917ff6391f5c32d9c69d2a47ea670b442974b53935d1edc7fd64eb21e047a839171b9190a45050565b601b5460ff166136ad5760405162461bcd60e51b815260206004820152601460248201527314185d5cd8589b194e881b9bdd081c185d5cd95960621b6044820152606401610a4d565b601b805460ff191690557f5db9ee0a495bf2e6ff9c91a7834c1ba4fdd244a5e8aa4e537bd38aeae4b073aa335b6040516001600160a01b03909116815260200160405180910390a1565b60006001600160a01b03821661370c57600080fd5b6000838152600660205260409020600101541561393757600083815260066020526040908190206001810154915160099161374c91600890910190615af7565b908152602001604051809103902060008282546137699190615933565b909155505060405161377d90602001615ae8565b60408051601f1981840301815282825280516020918201206000878152600683529290922091926137b2926008019101615af7565b604051602081830303815290604052805190602001201415613853576000838152600660205260408082206001015490516001600160a01b03851691908381818185875af1925050503d8060008114613827576040519150601f19603f3d011682016040523d82523d6000602084013e61382c565b606091505b505090508061384d5760405162461bcd60e51b8152600401610a4d90615bc6565b50613937565b6008600660008581526020019081526020016000206008016040516138789190615af7565b90815260408051602092819003830181205460008781526006909452919092206001015463a9059cbb60e01b83526001600160a01b0385811660048501526024840191909152169063a9059cbb90604401602060405180830381600087803b1580156138e357600080fd5b505af11580156138f7573d6000803e3d6000fd5b505050506040513d601f19601f8201168201806040525081019061391b9190615a5d565b6139375760405162461bcd60e51b8152600401610a4d90615bef565b50600192915050565b6000838152600560205260408120546001600160a01b03168315613b665760008581526006602052604090206009015462010000900460ff1615613a4b576000858152600560209081526040808320600190810180546001600160a01b03191690556006928390529083206007810184905560098101805461ffff19169092179091556002810183905501819055546001600160a01b031615613a4657600154600054604051630585816360e51b8152600481018890526001600160a01b03918216602482015291169063b0b02c6090604401600060405180830381600087803b158015613a2d57600080fd5b505af1158015613a41573d6000803e3d6000fd5b505050505b613c7d565b60008581526006602081905260409091206010805482556011546001830155601254600283015560135460038301556014546004830155601554600583015560165492820192909255601754600782015560188054600883019190613aaf906157e2565b613aba92919061517b565b506009918201805491909201805460ff19811660ff93841615159081178355845461ffff1990921661ff001990911617610100918290048416151590910217808255925462ff000019909316620100009384900490921615159092021790556000858152600560205260409020600d5481546001600160a01b039182166001600160a01b0319918216178355600e54600184018054919093169116179055600f54600290910155613c7d565b60008581526006602081905260409091206010805482556011546001830155601254600283015560135460038301556014546004830155601554600583015560165492820192909255601754600782015560188054600883019190613bca906157e2565b613bd592919061517b565b506009918201805491909201805460ff19811660ff93841615159081178355845461ffff1990921661ff001990911617610100918290048416151590910217808255925462ff000019909316620100009384900490921615159092021790556000858152600560205260409020600d5481546001600160a01b039182166001600160a01b0319918216178355600e54600184018054919093169116179055600f546002909101555b8215613d4d57613c8b614d81565b8015613ca157506000546001600160a01b031615155b15613d0f57600154600054604051630585816360e51b8152600481018890526001600160a01b03918216602482015291169063b0b02c6090604401600060405180830381600087803b158015613cf657600080fd5b505af1158015613d0a573d6000803e3d6000fd5b505050505b6001600160a01b0381166000908152600a6020526040902054613d33906001615b69565b6001600160a01b0382166000908152600a60205260409020555b6000858152600560209081526040808320600790925290912054600b80549091908110613d7c57613d7c615907565b60009182526020909120825460039092020180546001600160a01b03199081166001600160a01b03938416178255600180850154818401805490931694169390931790556002928301549201919091559150509392505050565b610a608282613577565b601b5460ff1615613e035760405162461bcd60e51b8152600401610a4d9061594a565b601b805460ff191660011790557f62e78cea01bee320cd4e420270b5ea74000d11b0c9f74754ebdbfc544b05a2586136da3390565b6000815160001415613e4c57506000919050565b506020015190565b600081815260066020526040812060090154610100900460ff168015613e8c575060008281526006602052604090206009015460ff16155b1561350657506001919050565b6000808080613eb3613eae6201518088615d24565b614e08565b91945092509050613ec48583615b69565b9150600c613ed3600184615933565b613edd9190615d24565b613ee79084615b69565b9250600c613ef6600184615933565b613f009190615d38565b613f0b906001615b69565b91506000613f198484614f7c565b905080821115613f27578091505b613f346201518088615d38565b62015180613f43868686615002565b613f4d9190615d4c565b613f579190615b69565b945086851015613f6657600080fd5b5050505092915050565b600081815260066020526040812060010154801561393757604051602001613f9790615ae8565b60408051601f198184030181528282528051602091820120600087815260068352929092209192613fcc926008019101615af7565b60405160208183030381529060405280519060200120146141945760008381526006602052604080822090516008916140089190830190615af7565b908152604051908190036020018120546370a0823160e01b82523360048301526001600160a01b0316906370a082319060240160206040518083038186803b15801561405357600080fd5b505afa158015614067573d6000803e3d6000fd5b505050506040513d601f19601f8201168201806040525081019061408b9190615b81565b9050818110156140ad5760405162461bcd60e51b8152600401610a4d90615b9a565b6008600660008681526020019081526020016000206008016040516140d29190615af7565b9081526040805191829003602090810183205460008881526005909252919020600101546323b872dd60e01b83526001600160a01b03918216926323b872dd9261412492169030908790600401615644565b602060405180830381600087803b15801561413e57600080fd5b505af1158015614152573d6000803e3d6000fd5b505050506040513d601f19601f820116820180604052508101906141769190615a5d565b6141925760405162461bcd60e51b8152600401610a4d90615bef565b505b806009600660008681526020019081526020016000206008016040516141ba9190615af7565b908152602001604051809103902060008282546141d79190615b69565b909155505050600192915050565b6003546000828152600660205260408120549091829160649161420791615d4c565b6142119190615d24565b6000848152600660205260408120549192509061422f908390615933565b9050600060405160200161424290615ae8565b60408051601f198184030181528282528051602091820120600089815260068352929092209192614277926008019101615af7565b6040516020818303038152906040528051906020012014156143e557506000848152600560209081526040808320600101546006909252909120546001600160a01b0390911631908110156142de5760405162461bcd60e51b8152600401610a4d90615b9a565b6000858152600660205260409020543410156143165760405162461bcd60e51b81526020600482015260006024820152604401610a4d565b34828110156143605760405162461bcd60e51b815260206004820152601660248201527508aa89040e6cadce840d2e640dcdee840cadcdeeaced60531b6044820152606401610a4d565b6000868152600560205260408082205490516001600160a01b039091169085908381818185875af1925050503d80600081146143b8576040519150601f19603f3d011682016040523d82523d6000602084013e6143bd565b606091505b50509050806143de5760405162461bcd60e51b8152600401610a4d90615bc6565b50506146a2565b60086006600087815260200190815260200160002060080160405161440a9190615af7565b9081526040805160209281900383018120546000898152600590945291909220600101546370a0823160e01b83526001600160a01b03908116600484015216906370a082319060240160206040518083038186803b15801561446b57600080fd5b505afa15801561447f573d6000803e3d6000fd5b505050506040513d601f19601f820116820180604052508101906144a39190615b81565b6000868152600660205260409020549091508110156144d45760405162461bcd60e51b8152600401610a4d90615b9a565b6008600660008781526020019081526020016000206008016040516144f99190615af7565b9081526040805191829003602090810183205460008981526005909252919020600181015490546323b872dd60e01b84526001600160a01b03928316936323b872dd9361454f9381169216908790600401615644565b602060405180830381600087803b15801561456957600080fd5b505af115801561457d573d6000803e3d6000fd5b505050506040513d601f19601f820116820180604052508101906145a19190615a5d565b6145bd5760405162461bcd60e51b8152600401610a4d90615bef565b6008600660008781526020019081526020016000206008016040516145e29190615af7565b9081526040805191829003602090810183205460008981526005909252919020600101546323b872dd60e01b83526001600160a01b03918216926323b872dd9261463492169030908890600401615644565b602060405180830381600087803b15801561464e57600080fd5b505af1158015614662573d6000803e3d6000fd5b505050506040513d601f19601f820116820180604052508101906146869190615a5d565b6146a25760405162461bcd60e51b8152600401610a4d90615bef565b6000858152600660205260409020600201546146bf906001615b69565b60008681526006602081905260409091200154141561471a576000858152600560205260409020600101546146fe9086906001600160a01b03166136f7565b61471a5760405162461bcd60e51b8152600401610a4d90615885565b600085815260066020526040812060020180546001929061473c908490615b69565b90915550506000858152600560209081526040808320600790925290912054600b8054909190811061477057614770615907565b60009182526020808320845460039093020180546001600160a01b03199081166001600160a01b039485161782556001808701548184018054909316908616179091556002958601549186019190915589845260058252604080852091820154915460069093529384902080549581015494517fd0ae3532bac7c50645a1adead923185c33dc828869c9de0871ec4e3837a164b396614822968d96948516959094169390929091600890910190615d6b565b60405180910390a1506001949350505050565b60006148446201518083615d4c565b61484e9084615b69565b90508281101561098f57600080fd5b600060405160200161486e90615ae8565b6040516020818303038152906040528051906020012082610100015160405160200161489a91906158eb565b60405160208183030381529060405280519060200120146148d457815168056bc75e2d6310000011156148cf5750600061098f565b6148ec565b815166470de4df82000011156148ec5750600061098f565b6040808401516000908152600660208181529183902085518155828601516001820155928501516002840155606085015160038401556080850151600484015560a0850151600584015560c08501519083015560e084015160078301556101008401518051859392614965926008850192910190615206565b5061012082015160099182018054610140850151610160909501511515620100000262ff0000199515156101000261ff0019941515851661ffff199093169290921791909117949094169390931790925560408086018051600090815260066020818152848320600790810184905584518452858420600290810185905585518552868520909301849055845184528584208701805460ff1916600190811790915585518552868520909701805490981690975583518352600581528483208a5181546001600160a01b039182166001600160a01b0319918216178355838d0151838a01805491909316908216179091558551919093018190558352848320909501805490911690559051815292909152902054614b5d57600b80546001810182556000918252845160039091027f0175b7a638427703f0dbe7bb9bbf987a2551717b34e79f33b5b1008d1fa01db9810180546001600160a01b039384166001600160a01b0319918216179091556020808801517f0175b7a638427703f0dbe7bb9bbf987a2551717b34e79f33b5b1008d1fa01dba84018054919095169216919091179092556040808701517f0175b7a638427703f0dbe7bb9bbf987a2551717b34e79f33b5b1008d1fa01dbb909201829055600280549285526007909352832081905591614b5383615e21565b9190505550613937565b604080840151600090815260076020522054600b80548592908110614b8457614b84615907565b6000918252602091829020835160039092020180546001600160a01b039283166001600160a01b03199182161782559284015160018201805491909316931692909217905560409091015160029091015550600192915050565b60606000614bed836002615d4c565b614bf8906002615b69565b67ffffffffffffffff811115614c1057614c106152eb565b6040519080825280601f01601f191660200182016040528015614c3a576020820181803683370190505b509050600360fc1b81600081518110614c5557614c55615907565b60200101906001600160f81b031916908160001a905350600f60fb1b81600181518110614c8457614c84615907565b60200101906001600160f81b031916908160001a9053506000614ca8846002615d4c565b614cb3906001615b69565b90505b6001811115614d2b576f181899199a1a9b1b9c1cb0b131b232b360811b85600f1660108110614ce757614ce7615907565b1a60f81b828281518110614cfd57614cfd615907565b60200101906001600160f81b031916908160001a90535060049490941c93614d2481615e3c565b9050614cb6565b508315614d7a5760405162461bcd60e51b815260206004820181905260248201527f537472696e67733a20686578206c656e67746820696e73756666696369656e746044820152606401610a4d565b9392505050565b60015460405163e985e9c560e01b81523360048201523060248201526000916001600160a01b03169063e985e9c59060440160206040518083038186803b158015614dcb57600080fd5b505afa158015614ddf573d6000803e3d6000fd5b505050506040513d601f19601f82011682018060405250810190614e039190615a5d565b905090565b60008080838162253d8c614e1f8362010bd9615e53565b614e299190615e53565b9050600062023ab1614e3c836004615e94565b614e469190615f19565b90506004614e578262023ab1615e94565b614e62906003615e53565b614e6c9190615f19565b614e769083615f47565b9150600062164b09614e89846001615e53565b614e9590610fa0615e94565b614e9f9190615f19565b90506004614eaf826105b5615e94565b614eb99190615f19565b614ec39084615f47565b614ece90601f615e53565b9250600061098f614ee0856050615e94565b614eea9190615f19565b905060006050614efc8361098f615e94565b614f069190615f19565b614f109086615f47565b9050614f1d600b83615f19565b9450614f2a85600c615e94565b614f35836002615e53565b614f3f9190615f47565b91508483614f4e603187615f47565b614f59906064615e94565b614f639190615e53565b614f6d9190615e53565b9a919950975095505050505050565b60008160011480614f8d5750816003145b80614f985750816005145b80614fa35750816007145b80614fae5750816008145b80614fb9575081600a145b80614fc4575081600c145b15614fd15750601f61098f565b81600214614fe15750601e61098f565b614fea8361513f565b614ff557601c614ff8565b601d5b60ff169392505050565b60006107b284101561501357600080fd5b838383600062253d8c60046064600c61502d600e88615f47565b6150379190615f19565b61504388611324615e53565b61504d9190615e53565b6150579190615f19565b615062906003615e94565b61506c9190615f19565b600c8061507a600e88615f47565b6150849190615f19565b61508f90600c615e94565b61509a600288615f47565b6150a49190615f47565b6150b09061016f615e94565b6150ba9190615f19565b6004600c6150c9600e89615f47565b6150d39190615f19565b6150df896112c0615e53565b6150e99190615e53565b6150f5906105b5615e94565b6150ff9190615f19565b61510b617d4b87615f47565b6151159190615e53565b61511f9190615e53565b6151299190615f47565b6151339190615f47565b98975050505050505050565b600061514c600483615d38565b158015615162575061515f606483615d38565b15155b8061098f575061517461019083615d38565b1592915050565b828054615187906157e2565b90600052602060002090601f0160209004810192826151a957600085556151f6565b82601f106151ba57805485556151f6565b828001600101855582156151f657600052602060002091601f016020900482015b828111156151f65782548255916001019190600101906151db565b5061520292915061527a565b5090565b828054615212906157e2565b90600052602060002090601f01602090048101928261523457600085556151f6565b82601f1061524d57805160ff19168380011785556151f6565b828001600101855582156151f6579182015b828111156151f657825182559160200191906001019061525f565b5b80821115615202576000815560010161527b565b6001600160a01b0381168114610a8557600080fd5b6000602082840312156152b657600080fd5b8135614d7a8161528f565b6000602082840312156152d357600080fd5b81356001600160e01b031981168114614d7a57600080fd5b634e487b7160e01b600052604160045260246000fd5b6040516060810167ffffffffffffffff81118282101715615324576153246152eb565b60405290565b604051610180810167ffffffffffffffff81118282101715615324576153246152eb565b600082601f83011261535f57600080fd5b813567ffffffffffffffff8082111561537a5761537a6152eb565b604051601f8301601f19908116603f011681019082821181831017156153a2576153a26152eb565b816040528381528660208588010111156153bb57600080fd5b836020870160208301376000602085830101528094505050505092915050565b6000602082840312156153ed57600080fd5b813567ffffffffffffffff81111561540457600080fd5b6154108482850161534e565b949350505050565b60006020828403121561542a57600080fd5b5035919050565b6000806040838503121561544457600080fd5b8235915060208301356154568161528f565b809150509250929050565b6000806040838503121561547457600080fd5b823561547f8161528f565b9150602083013560ff8116811461545657600080fd5b60005b838110156154b0578181015183820152602001615498565b838111156110135750506000910152565b600081518084526154d9816020860160208601615495565b601f01601f19169290920160200192915050565b60006101808e83528d60208401528c60408401528b60608401528a60808401528960a08401528860c08401528760e084015280610100840152615532818401886154c1565b95151561012084015250509115156101408301521515610160909101529998505050505050505050565b6020808252825182820181905260009190848201906040850190845b8181101561559457835183529284019291840191600101615578565b50909695505050505050565b8015158114610a8557600080fd5b803561350e816155a0565b6000806000606084860312156155ce57600080fd5b8335925060208401356155e08161528f565b915060408401356155f0816155a0565b809150509250925092565b60008060006060848603121561561057600080fd5b833567ffffffffffffffff81111561562757600080fd5b6156338682870161534e565b93505060208401356155e08161528f565b6001600160a01b039384168152919092166020820152604081019190915260600190565b6000806040838503121561567b57600080fd5b50508035926020909101359150565b600080600083850360a08112156156a057600080fd5b60608112156156ae57600080fd5b506156b7615301565b84356156c28161528f565b815260208501356156d28161528f565b6020820152604085810135908201529250606084013567ffffffffffffffff808211156156fe57600080fd5b90850190610180828803121561571357600080fd5b61571b61532a565b823581526020830135602082015260408301356040820152606083013560608201526080830135608082015260a083013560a082015260c083013560c082015260e083013560e0820152610100808401358381111561577957600080fd5b6157858a82870161534e565b828401525050610120915061579b8284016155ae565b8282015261014091506157af8284016155ae565b8282015261016091506157c38284016155ae565b828201528094505050506157d9608085016155ae565b90509250925092565b600181811c908216806157f657607f821691505b602082108114156115f257634e487b7160e01b600052602260045260246000fd5b6020808252601f908201527f5265656e7472616e637947756172643a207265656e7472616e742063616c6c00604082015260600190565b60208082526018908201527f546865206173736574206d757374206265206c65617365640000000000000000604082015260600190565b6020808252601a908201527f4661696c656420746f207472616e73666572206465706f736974000000000000604082015260600190565b6020808252601590820152744661696c656420746f206572617365206c6561736560581b604082015260600190565b600082516158fd818460208701615495565b9190910192915050565b634e487b7160e01b600052603260045260246000fd5b634e487b7160e01b600052601160045260246000fd5b6000828210156159455761594561591d565b500390565b60208082526010908201526f14185d5cd8589b194e881c185d5cd95960821b604082015260600190565b6020808252601f908201527f546865206c65617365206d757374206e6f7420626520636f6d706c6574656400604082015260600190565b6000602082840312156159bd57600080fd5b8151614d7a8161528f565b6020808252601490820152732632b9b9b7b91036bab9ba1031329037bbb732b960611b604082015260600190565b6020808252601c908201527f546865206173736574206d757374206e6f74206265206c656173656400000000604082015260600190565b6020808252601690820152752a3432903632b0b9b29036bab9ba1031329037b832b760511b604082015260600190565b600060208284031215615a6f57600080fd5b8151614d7a816155a0565b60208082526018908201527f54686520617373657420646f6573206e6f742065786973740000000000000000604082015260600190565b60208082526018908201527f6d73672e73656e646572206d757374206265206f776e65720000000000000000604082015260600190565b6208aa8960eb1b815260030190565b6000808354615b05816157e2565b60018281168015615b1d5760018114615b2e57615b5d565b60ff19841687528287019450615b5d565b8760005260208060002060005b85811015615b545781548a820152908401908201615b3b565b50505082870194505b50929695505050505050565b60008219821115615b7c57615b7c61591d565b500190565b600060208284031215615b9357600080fd5b5051919050565b60208082526012908201527142616c616e636520697320746f6f206c6f7760701b604082015260600190565b6020808252600f908201526e151c985b9cd9995c8819985a5b1959608a1b604082015260600190565b6020808252601b908201527f4661696c656420455243323020746f6b656e207472616e736665720000000000604082015260600190565b60006101208b835260018060a01b038b1660208401528960408401528860608401528760808401528660a08401528560c08401528060e0840152615c6c818401866154c1565b9150508215156101008301529a9950505050505050505050565b7f416363657373436f6e74726f6c3a206163636f756e7420000000000000000000815260008351615cbe816017850160208801615495565b7001034b99036b4b9b9b4b733903937b6329607d1b6017918401918201528351615cef816028840160208801615495565b01602801949350505050565b602081526000614d7a60208301846154c1565b634e487b7160e01b600052601260045260246000fd5b600082615d3357615d33615d0e565b500490565b600082615d4757615d47615d0e565b500690565b6000816000190483118215151615615d6657615d6661591d565b500290565b8681526000602060018060a01b038089168285015280881660408501525085606084015284608084015260c060a084015260008454615da9816157e2565b8060c087015260e0600180841660008114615dcb5760018114615de057615e0e565b60ff1985168984015261010089019550615e0e565b896000528660002060005b85811015615e065781548b8201860152908301908801615deb565b8a0184019650505b50939d9c50505050505050505050505050565b6000600019821415615e3557615e3561591d565b5060010190565b600081615e4b57615e4b61591d565b506000190190565b600080821280156001600160ff1b0384900385131615615e7557615e7561591d565b600160ff1b8390038412811615615e8e57615e8e61591d565b50500190565b60006001600160ff1b0381841382841380821686840486111615615eba57615eba61591d565b600160ff1b6000871282811687830589121615615ed957615ed961591d565b60008712925087820587128484161615615ef557615ef561591d565b87850587128184161615615f0b57615f0b61591d565b505050929093029392505050565b600082615f2857615f28615d0e565b600160ff1b821460001984141615615f4257615f4261591d565b500590565b60008083128015600160ff1b850184121615615f6557615f6561591d565b6001600160ff1b0384018313811615615f8057615f8061591d565b5050039056fed980155b32cf66e6af51e0972d64b9d5efe0e6f237dfaa4bdc83f990dd79e9c84ff52032f36e32ac782042a01802e20394d4255c84a3c046490be98ab632691ba2646970667358221220a99730740aba3f7ab62aca48dc38c78087eab41f6403f948b711be22cadbf79064736f6c63430008090033d980155b32cf66e6af51e0972d64b9d5efe0e6f237dfaa4bdc83f990dd79e9c84ff52032f36e32ac782042a01802e20394d4255c84a3c046490be98ab632691b",
  "linkReferences": {},
  "deployedLinkReferences": {}
}