{
  "_format": "hh-sol-artifact-1",
  "contractName": "DclRental",
  "sourceName": "contracts/DclRental.sol",
  "address": "0x2E82829630Fc660323Eb3EdD7a65cEA31e5a8D76",
  "abi": [
    {
      "inputs": [
        {
          "internalType": "address",
          "name": "_nftAddress",
          "type": "address"
        }
      ],
      "stateMutability": "nonpayable",
      "type": "constructor"
    },
    {
      "anonymous": false,
      "inputs": [
        {
          "indexed": false,
          "internalType": "uint256",
          "name": "assetId",
          "type": "uint256"
        },
        {
          "indexed": false,
          "internalType": "address",
          "name": "lessee",
          "type": "address"
        },
        {
          "indexed": false,
          "internalType": "uint256",
          "name": "finalLeaseLength",
          "type": "uint256"
        }
      ],
      "name": "LeaseAccepted",
      "type": "event"
    },
    {
      "anonymous": false,
      "inputs": [
        {
          "indexed": false,
          "internalType": "uint256",
          "name": "assetId",
          "type": "uint256"
        },
        {
          "indexed": false,
          "internalType": "address",
          "name": "lessor",
          "type": "address"
        },
        {
          "indexed": false,
          "internalType": "address",
          "name": "depositTo",
          "type": "address"
        }
      ],
      "name": "LeaseCanceled",
      "type": "event"
    },
    {
      "anonymous": false,
      "inputs": [
        {
          "indexed": false,
          "internalType": "uint256",
          "name": "assetId",
          "type": "uint256"
        },
        {
          "indexed": false,
          "internalType": "address",
          "name": "lessor",
          "type": "address"
        },
        {
          "indexed": false,
          "internalType": "uint256",
          "name": "rentAmount",
          "type": "uint256"
        },
        {
          "indexed": false,
          "internalType": "uint256",
          "name": "minLeaseLength",
          "type": "uint256"
        },
        {
          "indexed": false,
          "internalType": "uint256",
          "name": "maxLeaseLength",
          "type": "uint256"
        },
        {
          "indexed": false,
          "internalType": "uint256",
          "name": "gracePeriod",
          "type": "uint256"
        },
        {
          "indexed": false,
          "internalType": "string",
          "name": "rentToken",
          "type": "string"
        }
      ],
      "name": "LeaseCreated",
      "type": "event"
    },
    {
      "anonymous": false,
      "inputs": [
        {
          "indexed": false,
          "internalType": "uint256",
          "name": "assetId",
          "type": "uint256"
        }
      ],
      "name": "LeaseRemoved",
      "type": "event"
    },
    {
      "anonymous": false,
      "inputs": [
        {
          "indexed": false,
          "internalType": "uint256",
          "name": "assetId",
          "type": "uint256"
        },
        {
          "indexed": false,
          "internalType": "address",
          "name": "lessor",
          "type": "address"
        }
      ],
      "name": "LeaseTerminated",
      "type": "event"
    },
    {
      "anonymous": false,
      "inputs": [
        {
          "indexed": false,
          "internalType": "uint256",
          "name": "assetId",
          "type": "uint256"
        },
        {
          "indexed": false,
          "internalType": "address",
          "name": "lessor",
          "type": "address"
        },
        {
          "indexed": false,
          "internalType": "uint256",
          "name": "rentAmount",
          "type": "uint256"
        },
        {
          "indexed": false,
          "internalType": "uint256",
          "name": "minLeaseLength",
          "type": "uint256"
        },
        {
          "indexed": false,
          "internalType": "uint256",
          "name": "maxLeaseLength",
          "type": "uint256"
        },
        {
          "indexed": false,
          "internalType": "uint256",
          "name": "gracePeriod",
          "type": "uint256"
        },
        {
          "indexed": false,
          "internalType": "string",
          "name": "rentToken",
          "type": "string"
        }
      ],
      "name": "LeaseUpdated",
      "type": "event"
    },
    {
      "anonymous": false,
      "inputs": [
        {
          "indexed": false,
          "internalType": "address",
          "name": "account",
          "type": "address"
        }
      ],
      "name": "Paused",
      "type": "event"
    },
    {
      "anonymous": false,
      "inputs": [
        {
          "indexed": false,
          "internalType": "uint256",
          "name": "assetId",
          "type": "uint256"
        },
        {
          "indexed": false,
          "internalType": "address",
          "name": "lessee",
          "type": "address"
        },
        {
          "indexed": false,
          "internalType": "address",
          "name": "lessor",
          "type": "address"
        },
        {
          "indexed": false,
          "internalType": "uint256",
          "name": "amount",
          "type": "uint256"
        },
        {
          "indexed": false,
          "internalType": "string",
          "name": "rentToken",
          "type": "string"
        }
      ],
      "name": "RentPaid",
      "type": "event"
    },
    {
      "anonymous": false,
      "inputs": [
        {
          "indexed": true,
          "internalType": "bytes32",
          "name": "role",
          "type": "bytes32"
        },
        {
          "indexed": true,
          "internalType": "bytes32",
          "name": "previousAdminRole",
          "type": "bytes32"
        },
        {
          "indexed": true,
          "internalType": "bytes32",
          "name": "newAdminRole",
          "type": "bytes32"
        }
      ],
      "name": "RoleAdminChanged",
      "type": "event"
    },
    {
      "anonymous": false,
      "inputs": [
        {
          "indexed": true,
          "internalType": "bytes32",
          "name": "role",
          "type": "bytes32"
        },
        {
          "indexed": true,
          "internalType": "address",
          "name": "account",
          "type": "address"
        },
        {
          "indexed": true,
          "internalType": "address",
          "name": "sender",
          "type": "address"
        }
      ],
      "name": "RoleGranted",
      "type": "event"
    },
    {
      "anonymous": false,
      "inputs": [
        {
          "indexed": true,
          "internalType": "bytes32",
          "name": "role",
          "type": "bytes32"
        },
        {
          "indexed": true,
          "internalType": "address",
          "name": "account",
          "type": "address"
        },
        {
          "indexed": true,
          "internalType": "address",
          "name": "sender",
          "type": "address"
        }
      ],
      "name": "RoleRevoked",
      "type": "event"
    },
    {
      "anonymous": false,
      "inputs": [
        {
          "indexed": false,
          "internalType": "address",
          "name": "account",
          "type": "address"
        }
      ],
      "name": "Unpaused",
      "type": "event"
    },
    {
      "inputs": [],
      "name": "DEFAULT_ADMIN_ROLE",
      "outputs": [
        {
          "internalType": "bytes32",
          "name": "",
          "type": "bytes32"
        }
      ],
      "stateMutability": "view",
      "type": "function"
    },
    {
      "inputs": [],
      "name": "MIN_ERC_RENT",
      "outputs": [
        {
          "internalType": "uint256",
          "name": "",
          "type": "uint256"
        }
      ],
      "stateMutability": "view",
      "type": "function"
    },
    {
      "inputs": [],
      "name": "MIN_ETH_RENT",
      "outputs": [
        {
          "internalType": "uint256",
          "name": "",
          "type": "uint256"
        }
      ],
      "stateMutability": "view",
      "type": "function"
    },
    {
      "inputs": [],
      "name": "PLATFORM_ADMIN",
      "outputs": [
        {
          "internalType": "bytes32",
          "name": "",
          "type": "bytes32"
        }
      ],
      "stateMutability": "view",
      "type": "function"
    },
    {
      "inputs": [],
      "name": "SUPER_ADMIN",
      "outputs": [
        {
          "internalType": "bytes32",
          "name": "",
          "type": "bytes32"
        }
      ],
      "stateMutability": "view",
      "type": "function"
    },
    {
      "inputs": [
        {
          "internalType": "uint256",
          "name": "_assetId",
          "type": "uint256"
        },
        {
          "internalType": "uint256",
          "name": "_finalLeaseLength",
          "type": "uint256"
        }
      ],
      "name": "acceptLease",
      "outputs": [],
      "stateMutability": "payable",
      "type": "function"
    },
    {
      "inputs": [
        {
          "internalType": "uint256",
          "name": "",
          "type": "uint256"
        }
      ],
      "name": "acceptedTokenSymbols",
      "outputs": [
        {
          "internalType": "bytes32",
          "name": "",
          "type": "bytes32"
        }
      ],
      "stateMutability": "view",
      "type": "function"
    },
    {
      "inputs": [
        {
          "internalType": "string",
          "name": "",
          "type": "string"
        }
      ],
      "name": "acceptedTokensBySymbol",
      "outputs": [
        {
          "internalType": "string",
          "name": "tokenSymbol",
          "type": "string"
        },
        {
          "internalType": "address",
          "name": "tokenAddress",
          "type": "address"
        },
        {
          "internalType": "bool",
          "name": "added",
          "type": "bool"
        }
      ],
      "stateMutability": "view",
      "type": "function"
    },
    {
      "inputs": [
        {
          "internalType": "address",
          "name": "newAdmin",
          "type": "address"
        }
      ],
      "name": "addPlatformAdmin",
      "outputs": [],
      "stateMutability": "nonpayable",
      "type": "function"
    },
    {
      "inputs": [
        {
          "internalType": "string",
          "name": "symbol",
          "type": "string"
        },
        {
          "internalType": "address",
          "name": "token",
          "type": "address"
        }
      ],
      "name": "addSupportedToken",
      "outputs": [],
      "stateMutability": "nonpayable",
      "type": "function"
    },
    {
      "inputs": [
        {
          "internalType": "uint256",
          "name": "_assetId",
          "type": "uint256"
        }
      ],
      "name": "adminRemoveLease",
      "outputs": [],
      "stateMutability": "nonpayable",
      "type": "function"
    },
    {
      "inputs": [
        {
          "internalType": "uint256",
          "name": "_assetId",
          "type": "uint256"
        },
        {
          "internalType": "address",
          "name": "_sendDepositTo",
          "type": "address"
        },
        {
          "internalType": "bool",
          "name": "malicious",
          "type": "bool"
        }
      ],
      "name": "adminTerminateLease",
      "outputs": [],
      "stateMutability": "nonpayable",
      "type": "function"
    },
    {
      "inputs": [
        {
          "internalType": "string",
          "name": "token",
          "type": "string"
        }
      ],
      "name": "adminWithdraw",
      "outputs": [],
      "stateMutability": "nonpayable",
      "type": "function"
    },
    {
      "inputs": [
        {
          "internalType": "uint256",
          "name": "",
          "type": "uint256"
        }
      ],
      "name": "allLeases",
      "outputs": [
        {
          "internalType": "address",
          "name": "lessor",
          "type": "address"
        },
        {
          "internalType": "address",
          "name": "lessee",
          "type": "address"
        },
        {
          "internalType": "uint256",
          "name": "assetId",
          "type": "uint256"
        }
      ],
      "stateMutability": "view",
      "type": "function"
    },
    {
      "inputs": [
        {
          "internalType": "address",
          "name": "landlord",
          "type": "address"
        },
        {
          "internalType": "uint8",
          "name": "count",
          "type": "uint8"
        }
      ],
      "name": "changeMalLandlordCount",
      "outputs": [],
      "stateMutability": "nonpayable",
      "type": "function"
    },
    {
      "inputs": [
        {
          "internalType": "uint256",
          "name": "newLimit",
          "type": "uint256"
        }
      ],
      "name": "changeMaliciousLimit",
      "outputs": [],
      "stateMutability": "nonpayable",
      "type": "function"
    },
    {
      "inputs": [
        {
          "components": [
            {
              "internalType": "address",
              "name": "lessor",
              "type": "address"
            },
            {
              "internalType": "address",
              "name": "lessee",
              "type": "address"
            },
            {
              "internalType": "uint256",
              "name": "assetId",
              "type": "uint256"
            }
          ],
          "internalType": "struct DclRentalStorage.Lease",
          "name": "newLease",
          "type": "tuple"
        },
        {
          "components": [
            {
              "internalType": "uint256",
              "name": "rentAmount",
              "type": "uint256"
            },
            {
              "internalType": "uint256",
              "name": "deposit",
              "type": "uint256"
            },
            {
              "internalType": "uint256",
              "name": "monthsPaid",
              "type": "uint256"
            },
            {
              "internalType": "uint256",
              "name": "gracePeriod",
              "type": "uint256"
            },
            {
              "internalType": "uint256",
              "name": "minLeaseLength",
              "type": "uint256"
            },
            {
              "internalType": "uint256",
              "name": "maxLeaseLength",
              "type": "uint256"
            },
            {
              "internalType": "uint256",
              "name": "finalLeaseLength",
              "type": "uint256"
            },
            {
              "internalType": "uint256",
              "name": "dateSigned",
              "type": "uint256"
            },
            {
              "internalType": "string",
              "name": "rentToken",
              "type": "string"
            },
            {
              "internalType": "bool",
              "name": "isOpen",
              "type": "bool"
            },
            {
              "internalType": "bool",
              "name": "isLeased",
              "type": "bool"
            },
            {
              "internalType": "bool",
              "name": "autoRegenerate",
              "type": "bool"
            }
          ],
          "internalType": "struct DclRentalStorage.LeaseDetail",
          "name": "newLeaseDetail",
          "type": "tuple"
        },
        {
          "internalType": "bool",
          "name": "isUpdate",
          "type": "bool"
        }
      ],
      "name": "createLease",
      "outputs": [],
      "stateMutability": "nonpayable",
      "type": "function"
    },
    {
      "inputs": [
        {
          "internalType": "string",
          "name": "",
          "type": "string"
        }
      ],
      "name": "depositsByTokenSymbol",
      "outputs": [
        {
          "internalType": "uint256",
          "name": "",
          "type": "uint256"
        }
      ],
      "stateMutability": "view",
      "type": "function"
    },
    {
      "inputs": [],
      "name": "getAcceptedTokenSymbols",
      "outputs": [
        {
          "internalType": "bytes32[]",
          "name": "tokenSymbols",
          "type": "bytes32[]"
        }
      ],
      "stateMutability": "view",
      "type": "function"
    },
    {
      "inputs": [
        {
          "internalType": "bytes32",
          "name": "role",
          "type": "bytes32"
        }
      ],
      "name": "getRoleAdmin",
      "outputs": [
        {
          "internalType": "bytes32",
          "name": "",
          "type": "bytes32"
        }
      ],
      "stateMutability": "view",
      "type": "function"
    },
    {
      "inputs": [
        {
          "internalType": "bytes32",
          "name": "role",
          "type": "bytes32"
        },
        {
          "internalType": "address",
          "name": "account",
          "type": "address"
        }
      ],
      "name": "grantRole",
      "outputs": [],
      "stateMutability": "nonpayable",
      "type": "function"
    },
    {
      "inputs": [
        {
          "internalType": "bytes32",
          "name": "role",
          "type": "bytes32"
        },
        {
          "internalType": "address",
          "name": "account",
          "type": "address"
        }
      ],
      "name": "hasRole",
      "outputs": [
        {
          "internalType": "bool",
          "name": "",
          "type": "bool"
        }
      ],
      "stateMutability": "view",
      "type": "function"
    },
    {
      "inputs": [
        {
          "internalType": "uint256",
          "name": "_assetId",
          "type": "uint256"
        }
      ],
      "name": "isLeaseCompleted",
      "outputs": [
        {
          "internalType": "bool",
          "name": "isCompleted",
          "type": "bool"
        }
      ],
      "stateMutability": "view",
      "type": "function"
    },
    {
      "inputs": [
        {
          "internalType": "uint256",
          "name": "_assetId",
          "type": "uint256"
        }
      ],
      "name": "isRentDue",
      "outputs": [
        {
          "internalType": "bool",
          "name": "rentDue",
          "type": "bool"
        }
      ],
      "stateMutability": "view",
      "type": "function"
    },
    {
      "inputs": [
        {
          "internalType": "uint256",
          "name": "_assetId",
          "type": "uint256"
        }
      ],
      "name": "isRentOverDue",
      "outputs": [
        {
          "internalType": "bool",
          "name": "",
          "type": "bool"
        }
      ],
      "stateMutability": "view",
      "type": "function"
    },
    {
      "inputs": [],
      "name": "landOperator",
      "outputs": [
        {
          "internalType": "address",
          "name": "",
          "type": "address"
        }
      ],
      "stateMutability": "view",
      "type": "function"
    },
    {
      "inputs": [
        {
          "internalType": "uint256",
          "name": "_assetId",
          "type": "uint256"
        }
      ],
      "name": "landlordCancelLease",
      "outputs": [],
      "stateMutability": "nonpayable",
      "type": "function"
    },
    {
      "inputs": [
        {
          "internalType": "address",
          "name": "",
          "type": "address"
        }
      ],
      "name": "landlordMaliciousCount",
      "outputs": [
        {
          "internalType": "uint256",
          "name": "",
          "type": "uint256"
        }
      ],
      "stateMutability": "view",
      "type": "function"
    },
    {
      "inputs": [
        {
          "internalType": "uint256",
          "name": "_assetId",
          "type": "uint256"
        }
      ],
      "name": "landlordRemoveLease",
      "outputs": [],
      "stateMutability": "nonpayable",
      "type": "function"
    },
    {
      "inputs": [
        {
          "internalType": "uint256",
          "name": "_assetId",
          "type": "uint256"
        }
      ],
      "name": "landlordTerminateLease",
      "outputs": [],
      "stateMutability": "nonpayable",
      "type": "function"
    },
    {
      "inputs": [
        {
          "internalType": "uint256",
          "name": "",
          "type": "uint256"
        }
      ],
      "name": "leaseByAssetId",
      "outputs": [
        {
          "internalType": "address",
          "name": "lessor",
          "type": "address"
        },
        {
          "internalType": "address",
          "name": "lessee",
          "type": "address"
        },
        {
          "internalType": "uint256",
          "name": "assetId",
          "type": "uint256"
        }
      ],
      "stateMutability": "view",
      "type": "function"
    },
    {
      "inputs": [],
      "name": "leaseCount",
      "outputs": [
        {
          "internalType": "uint256",
          "name": "",
          "type": "uint256"
        }
      ],
      "stateMutability": "view",
      "type": "function"
    },
    {
      "inputs": [
        {
          "internalType": "uint256",
          "name": "",
          "type": "uint256"
        }
      ],
      "name": "leaseDetailByAssetId",
      "outputs": [
        {
          "internalType": "uint256",
          "name": "rentAmount",
          "type": "uint256"
        },
        {
          "internalType": "uint256",
          "name": "deposit",
          "type": "uint256"
        },
        {
          "internalType": "uint256",
          "name": "monthsPaid",
          "type": "uint256"
        },
        {
          "internalType": "uint256",
          "name": "gracePeriod",
          "type": "uint256"
        },
        {
          "internalType": "uint256",
          "name": "minLeaseLength",
          "type": "uint256"
        },
        {
          "internalType": "uint256",
          "name": "maxLeaseLength",
          "type": "uint256"
        },
        {
          "internalType": "uint256",
          "name": "finalLeaseLength",
          "type": "uint256"
        },
        {
          "internalType": "uint256",
          "name": "dateSigned",
          "type": "uint256"
        },
        {
          "internalType": "string",
          "name": "rentToken",
          "type": "string"
        },
        {
          "internalType": "bool",
          "name": "isOpen",
          "type": "bool"
        },
        {
          "internalType": "bool",
          "name": "isLeased",
          "type": "bool"
        },
        {
          "internalType": "bool",
          "name": "autoRegenerate",
          "type": "bool"
        }
      ],
      "stateMutability": "view",
      "type": "function"
    },
    {
      "inputs": [
        {
          "internalType": "uint256",
          "name": "",
          "type": "uint256"
        }
      ],
      "name": "leaseIndexByAssetId",
      "outputs": [
        {
          "internalType": "uint256",
          "name": "",
          "type": "uint256"
        }
      ],
      "stateMutability": "view",
      "type": "function"
    },
    {
      "inputs": [],
      "name": "maliciousLimit",
      "outputs": [
        {
          "internalType": "uint256",
          "name": "",
          "type": "uint256"
        }
      ],
      "stateMutability": "view",
      "type": "function"
    },
    {
      "inputs": [],
      "name": "nftAddress",
      "outputs": [
        {
          "internalType": "address",
          "name": "",
          "type": "address"
        }
      ],
      "stateMutability": "view",
      "type": "function"
    },
    {
      "inputs": [],
      "name": "pause",
      "outputs": [],
      "stateMutability": "nonpayable",
      "type": "function"
    },
    {
      "inputs": [],
      "name": "paused",
      "outputs": [
        {
          "internalType": "bool",
          "name": "",
          "type": "bool"
        }
      ],
      "stateMutability": "view",
      "type": "function"
    },
    {
      "inputs": [
        {
          "internalType": "uint256",
          "name": "_assetId",
          "type": "uint256"
        }
      ],
      "name": "payRent",
      "outputs": [],
      "stateMutability": "payable",
      "type": "function"
    },
    {
      "inputs": [],
      "name": "platformFee",
      "outputs": [
        {
          "internalType": "uint256",
          "name": "",
          "type": "uint256"
        }
      ],
      "stateMutability": "view",
      "type": "function"
    },
    {
      "inputs": [
        {
          "internalType": "bytes32",
          "name": "role",
          "type": "bytes32"
        },
        {
          "internalType": "address",
          "name": "account",
          "type": "address"
        }
      ],
      "name": "renounceRole",
      "outputs": [],
      "stateMutability": "nonpayable",
      "type": "function"
    },
    {
      "inputs": [
        {
          "internalType": "bytes32",
          "name": "role",
          "type": "bytes32"
        },
        {
          "internalType": "address",
          "name": "account",
          "type": "address"
        }
      ],
      "name": "revokeRole",
      "outputs": [],
      "stateMutability": "nonpayable",
      "type": "function"
    },
    {
      "inputs": [
        {
          "internalType": "address",
          "name": "newAddress",
          "type": "address"
        }
      ],
      "name": "setNftAddress",
      "outputs": [],
      "stateMutability": "nonpayable",
      "type": "function"
    },
    {
      "inputs": [
        {
          "internalType": "bytes4",
          "name": "interfaceId",
          "type": "bytes4"
        }
      ],
      "name": "supportsInterface",
      "outputs": [
        {
          "internalType": "bool",
          "name": "",
          "type": "bool"
        }
      ],
      "stateMutability": "view",
      "type": "function"
    },
    {
      "inputs": [
        {
          "internalType": "uint256",
          "name": "_assetId",
          "type": "uint256"
        }
      ],
      "name": "tenantCancelLease",
      "outputs": [],
      "stateMutability": "nonpayable",
      "type": "function"
    },
    {
      "inputs": [],
      "name": "unpause",
      "outputs": [],
      "stateMutability": "nonpayable",
      "type": "function"
    },
    {
      "inputs": [
        {
          "internalType": "address",
          "name": "newOperator",
          "type": "address"
        }
      ],
      "name": "updateLandOperator",
      "outputs": [],
      "stateMutability": "nonpayable",
      "type": "function"
    },
    {
      "inputs": [
        {
          "internalType": "uint256",
          "name": "newFee",
          "type": "uint256"
        }
      ],
      "name": "updatePlatformFee",
      "outputs": [],
      "stateMutability": "nonpayable",
      "type": "function"
    }
  ],
  "bytecode": "0x600060028181556003829055600455608081905260a081905260c0819052600d80546001600160a01b0319908116909155600e80549091169055600f81905560e08181526101008290526101208290526101408290526101608290526101808290526101a08290526101c082905261028060408190526102608381526101e052610200839052610220839052610240839052601083815560118490556012849055601384905560148490556015849055601684905560178490559192620000c9916018916200039d565b5061012082015160099091018054610140840151610160909401511515620100000262ff0000199415156101000261ff00199415159490941661ffff199092169190911792909217929092161790553480156200012557600080fd5b506040516200652038038062006520833981016040819052620001489162000443565b601b805460ff191690556001601c556200017260008051602062006500833981519152336200029e565b6200018d600080516020620064e0833981519152336200029e565b620001b760008051602062006500833981519152600080516020620064e0833981519152620002ae565b600180546001600160a01b038084166001600160a01b031992831617835560008054831633178155600b805494850181558152600d5460039094027f0175b7a638427703f0dbe7bb9bbf987a2551717b34e79f33b5b1008d1fa01db981018054851695841695909517909455600e547f0175b7a638427703f0dbe7bb9bbf987a2551717b34e79f33b5b1008d1fa01dba85018054909416921691909117909155600f547f0175b7a638427703f0dbe7bb9bbf987a2551717b34e79f33b5b1008d1fa01dbb909201919091556002805491620002928362000475565b919050555050620004dc565b620002aa8282620002f9565b5050565b6000828152601a6020526040808220600101805490849055905190918391839186917fbd79b86ffe0ab8e8776151514217cd7cacd52c909f66475c3af44e129f0b00ff9190a4505050565b6000828152601a602090815260408083206001600160a01b038516845290915290205460ff16620002aa576000828152601a602090815260408083206001600160a01b03851684529091529020805460ff19166001179055620003593390565b6001600160a01b0316816001600160a01b0316837f2f8788117e7eff1d82e926ec794901d17c78024a50270940304540a733656f0d60405160405180910390a45050565b828054620003ab906200049f565b90600052602060002090601f016020900481019282620003cf57600085556200041a565b82601f10620003ea57805160ff19168380011785556200041a565b828001600101855582156200041a579182015b828111156200041a578251825591602001919060010190620003fd565b50620004289291506200042c565b5090565b5b808211156200042857600081556001016200042d565b6000602082840312156200045657600080fd5b81516001600160a01b03811681146200046e57600080fd5b9392505050565b60006000198214156200049857634e487b7160e01b600052601160045260246000fd5b5060010190565b600181811c90821680620004b457607f821691505b60208210811415620004d657634e487b7160e01b600052602260045260246000fd5b50919050565b615ff480620004ec6000396000f3fe6080604052600436106102935760003560e01c80638eec52b71161015a578063c1d0a7d8116100c1578063ea4554a91161007a578063ea4554a914610856578063ed88ed6c14610876578063ee67ba8d14610896578063ee74ebb2146108b6578063f1216b0a146108d6578063fbd3967b146108f357600080fd5b8063c1d0a7d814610778578063d02b19821461079a578063d547741f146107ba578063d9e8843f146107da578063dd011c15146107ed578063df5cd7181461080d57600080fd5b8063a217fddf11610113578063a217fddf146106c2578063a388f42f146106d7578063aa0b5988146106ea578063b4c0498b1461070a578063b744999614610720578063b890fe4b1461075857600080fd5b80638eec52b7146105f35780638f962adc1461061357806391d1485414610642578063973f26861461066257806397ae32a9146106825780639e6056da146106a257600080fd5b80634c60a0d4116101fe5780636bc19476116101b75780636bc194761461054b5780637c7c7c3c146105665780638456cb5914610588578063854310101461059d57806386621f4b146105bd5780638a0c6fd6146105d357600080fd5b80634c60a0d4146104615780634ffd964f146104995780635447c3ad146104bb5780635bf8633a146104db5780635c975abb1461051357806369c7bc1e1461052b57600080fd5b806326232a2e1161025057806326232a2e146103a95780632f2ff15d146103bf57806336568abe146103df5780633f4ba83a146103ff578063459f840b1461041457806346bb98841461043457600080fd5b80630139430e1461029857806301ffc9a7146102d857806303cbdd2f146103085780630b102d1a146103375780631272a91314610359578063248a9ca314610379575b600080fd5b3480156102a457600080fd5b506102c56102b3366004615283565b600a6020526000908152604090205481565b6040519081526020015b60405180910390f35b3480156102e457600080fd5b506102f86102f33660046152a0565b610913565b60405190151581526020016102cf565b34801561031457600080fd5b506103286103233660046153ba565b61094a565b6040516102cf93929190615453565b34801561034357600080fd5b50610357610352366004615283565b610a0f565b005b34801561036557600080fd5b506102c5610374366004615486565b610a5e565b34801561038557600080fd5b506102c5610394366004615486565b6000908152601a602052604090206001015490565b3480156103b557600080fd5b506102c560035481565b3480156103cb57600080fd5b506103576103da36600461549f565b610a7f565b3480156103eb57600080fd5b506103576103fa36600461549f565b610aaa565b34801561040b57600080fd5b50610357610b2d565b34801561042057600080fd5b5061035761042f3660046154cf565b610b51565b34801561044057600080fd5b506102c561044f366004615486565b60076020526000908152604090205481565b34801561046d57600080fd5b5061048161047c366004615486565b610bc3565b6040516102cf9c9b9a99989796959493929190615503565b3480156104a557600080fd5b506104ae610cb5565b6040516102cf9190615572565b3480156104c757600080fd5b506103576104d63660046155cf565b610d0d565b3480156104e757600080fd5b506001546104fb906001600160a01b031681565b6040516001600160a01b0390911681526020016102cf565b34801561051f57600080fd5b50601b5460ff166102f8565b34801561053757600080fd5b50610357610546366004615283565b610e70565b34801561055757600080fd5b506102c566470de4df82000081565b34801561057257600080fd5b506102c5600080516020615f7f83398151915281565b34801561059457600080fd5b50610357610ed7565b3480156105a957600080fd5b506103576105b8366004615283565b610ef8565b3480156105c957600080fd5b506102c560045481565b3480156105df57600080fd5b506000546104fb906001600160a01b031681565b3480156105ff57600080fd5b5061035761060e366004615486565b610f47565b34801561061f57600080fd5b5061063361062e366004615486565b6111dd565b6040516102cf93929190615611565b34801561064e57600080fd5b506102f861065d36600461549f565b61121d565b34801561066e57600080fd5b5061035761067d366004615486565b611248565b34801561068e57600080fd5b506102f861069d366004615486565b6114bc565b3480156106ae57600080fd5b506103576106bd366004615486565b611526565b3480156106ce57600080fd5b506102c5600081565b6103576106e5366004615635565b6117dd565b3480156106f657600080fd5b50610357610705366004615486565b611e50565b34801561071657600080fd5b506102c560025481565b34801561072c57600080fd5b506102c561073b3660046153ba565b805160208183018101805160098252928201919093012091525481565b34801561076457600080fd5b506103576107733660046153ba565b611e92565b34801561078457600080fd5b506102c5600080516020615f9f83398151915281565b3480156107a657600080fd5b506103576107b5366004615486565b6122ae565b3480156107c657600080fd5b506103576107d536600461549f565b612654565b6103576107e8366004615486565b61267a565b3480156107f957600080fd5b50610357610808366004615486565b612b11565b34801561081957600080fd5b50610633610828366004615486565b6005602052600090815260409020805460018201546002909201546001600160a01b03918216929091169083565b34801561086257600080fd5b506102f8610871366004615486565b612c16565b34801561088257600080fd5b50610357610891366004615657565b612c8d565b3480156108a257600080fd5b506103576108b136600461569e565b612dcc565b3480156108c257600080fd5b506103576108d1366004615486565b61341f565b3480156108e257600080fd5b506102c568056bc75e2d6310000081565b3480156108ff57600080fd5b506102f861090e366004615486565b613461565b60006001600160e01b03198216637965db0b60e01b148061094457506301ffc9a760e01b6001600160e01b03198316145b92915050565b8051602081830181018051600882529282019190930120915280548190610970906157f6565b80601f016020809104026020016040519081016040528092919081815260200182805461099c906157f6565b80156109e95780601f106109be576101008083540402835291602001916109e9565b820191906000526020600020905b8154815290600101906020018083116109cc57829003601f168201915b505050600190930154919250506001600160a01b0381169060ff600160a01b9091041683565b600080516020615f9f833981519152610a2881336134df565b6001600160a01b038216610a3b57600080fd5b50600180546001600160a01b0319166001600160a01b0392909216919091179055565b600c8181548110610a6e57600080fd5b600091825260209091200154905081565b6000828152601a6020526040902060010154610a9b81336134df565b610aa58383613543565b505050565b6001600160a01b0381163314610b1f5760405162461bcd60e51b815260206004820152602f60248201527f416363657373436f6e74726f6c3a2063616e206f6e6c792072656e6f756e636560448201526e103937b632b9903337b91039b2b63360891b60648201526084015b60405180910390fd5b610b2982826135c9565b5050565b600080516020615f7f833981519152610b4681336134df565b610b4e613630565b50565b601b5460ff1615610b745760405162461bcd60e51b8152600401610b169061582b565b600080516020615f9f833981519152610b8d81336134df565b6001600160a01b038316610ba057600080fd5b506001600160a01b039091166000908152600a6020526040902060ff9091169055565b6006602052806000526040600020600091509050806000015490806001015490806002015490806003015490806004015490806005015490806006015490806007015490806008018054610c16906157f6565b80601f0160208091040260200160405190810160405280929190818152602001828054610c42906157f6565b8015610c8f5780601f10610c6457610100808354040283529160200191610c8f565b820191906000526020600020905b815481529060010190602001808311610c7257829003601f168201915b5050506009909301549192505060ff80821691610100810482169162010000909104168c565b6060600c805480602002602001604051908101604052809291908181526020018280548015610d0357602002820191906000526020600020905b815481526020019060010190808311610cef575b5050505050905090565b6002601c541415610d305760405162461bcd60e51b8152600401610b1690615855565b6002601c55600080516020615f9f833981519152610d4e81336134df565b6000848152600660205260409020600901548490610100900460ff16610d865760405162461bcd60e51b8152600401610b169061588c565b610d9085856136c3565b610dac5760405162461bcd60e51b8152600401610b16906158c3565b6000858152600560205260409020546001600160a01b03168315610df857610dd78660006001613910565b610df35760405162461bcd60e51b8152600401610b16906158fa565b610e21565b610e058660016000613910565b610e215760405162461bcd60e51b8152600401610b16906158fa565b604080518781526001600160a01b03831660208201527f0c3d7909f43909a0068b11879b7a209411c448caeda9fd8ba2bfd7f90440a41891015b60405180910390a150506001601c5550505050565b601b5460ff1615610e935760405162461bcd60e51b8152600401610b169061582b565b600080516020615f9f833981519152610eac81336134df565b6001600160a01b038216610ebf57600080fd5b610b29600080516020615f9f83398151915283613da6565b600080516020615f7f833981519152610ef081336134df565b610b4e613db0565b600080516020615f9f833981519152610f1181336134df565b6001600160a01b038216610f2457600080fd5b50600080546001600160a01b0319166001600160a01b0392909216919091179055565b601b5460ff1615610f6a5760405162461bcd60e51b8152600401610b169061582b565b6002601c541415610f8d5760405162461bcd60e51b8152600401610b1690615855565b6002601c556000818152600660205260409020600901548190610100900460ff16610fca5760405162461bcd60e51b8152600401610b169061588c565b81610fd481613461565b15610ff15760405162461bcd60e51b8152600401610b1690615929565b6001546040516331a9108f60e11b81526004810185905284916001600160a01b031690636352211e9060240160206040518083038186803b15801561103557600080fd5b505afa158015611049573d6000803e3d6000fd5b505050506040513d601f19601f8201168201806040525081019061106d9190615960565b6000828152600560205260409020546001600160a01b039081169116146110a65760405162461bcd60e51b8152600401610b169061597d565b6000848152600560205260409020600101546001600160a01b0316331461110f5760405162461bcd60e51b815260206004820152601860248201527f6d73672e73656e646572206973206e6f742074656e616e7400000000000000006044820152606401610b16565b6000848152600560205260409020546111329085906001600160a01b03166136c3565b61114e5760405162461bcd60e51b8152600401610b16906158c3565b61115b8460016000613910565b6111775760405162461bcd60e51b8152600401610b16906158fa565b6000848152600560209081526040918290205482518781526001600160a01b03909116918101829052918201527f8ee536b695f3bf89b150a60c4570c9f2ddf0a24b591c4fbc7a618130173720ed906060015b60405180910390a150506001601c555050565b600b81815481106111ed57600080fd5b60009182526020909120600390910201805460018201546002909201546001600160a01b03918216935091169083565b6000918252601a602090815260408084206001600160a01b0393909316845291905290205460ff1690565b601b5460ff161561126b5760405162461bcd60e51b8152600401610b169061582b565b6002601c54141561128e5760405162461bcd60e51b8152600401610b1690615855565b6002601c556000818152600660205260409020600901548190610100900460ff16156112cc5760405162461bcd60e51b8152600401610b16906159ab565b600082815260066020526040902060090154829060ff166112ff5760405162461bcd60e51b8152600401610b16906159e2565b8261130981613461565b156113265760405162461bcd60e51b8152600401610b1690615929565b600154604051634f558e7960e01b81526004810186905285916001600160a01b031690634f558e799060240160206040518083038186803b15801561136a57600080fd5b505afa15801561137e573d6000803e3d6000fd5b505050506040513d601f19601f820116820180604052508101906113a29190615a12565b6113be5760405162461bcd60e51b8152600401610b1690615a2f565b6001546040516331a9108f60e11b815260048101879052869133916001600160a01b0390911690636352211e9060240160206040518083038186803b15801561140657600080fd5b505afa15801561141a573d6000803e3d6000fd5b505050506040513d601f19601f8201168201806040525081019061143e9190615960565b6001600160a01b0316146114645760405162461bcd60e51b8152600401610b1690615a66565b61147086600080613910565b61148c5760405162461bcd60e51b8152600401610b16906158fa565b6040518681527fc5af117645321e4904da30aa139f8216d355b2a30b77c59256226118dc82a94490602001610e5b565b6000426114c883613e08565b15611517576114d683612c16565b156114e45750600192915050565b600083815260066020526040902060078101546002909101546115079190613e4d565b8111156115175750600192915050565b50600092915050565b50919050565b601b5460ff16156115495760405162461bcd60e51b8152600401610b169061582b565b6002601c54141561156c5760405162461bcd60e51b8152600401610b1690615855565b6002601c556000818152600660205260409020600901548190610100900460ff166115a95760405162461bcd60e51b8152600401610b169061588c565b816115b381613461565b156115d05760405162461bcd60e51b8152600401610b1690615929565b6001546040516331a9108f60e11b815260048101859052849133916001600160a01b0390911690636352211e9060240160206040518083038186803b15801561161857600080fd5b505afa15801561162c573d6000803e3d6000fd5b505050506040513d601f19601f820116820180604052508101906116509190615960565b6001600160a01b0316146116765760405162461bcd60e51b8152600401610b1690615a66565b6001546040516331a9108f60e11b81526004810186905285916001600160a01b031690636352211e9060240160206040518083038186803b1580156116ba57600080fd5b505afa1580156116ce573d6000803e3d6000fd5b505050506040513d601f19601f820116820180604052508101906116f29190615960565b6000828152600560205260409020546001600160a01b0390811691161461172b5760405162461bcd60e51b8152600401610b169061597d565b61173485612c16565b6117775760405162461bcd60e51b815260206004820152601460248201527352656e74206973206e6f74206f7665722064756560601b6044820152606401610b16565b60008581526005602052604090205461179a9086906001600160a01b03166136c3565b6117b65760405162461bcd60e51b8152600401610b16906158c3565b6000858152600560205260408120546001600160a01b031690610e05908790600190613910565b601b5460ff16156118005760405162461bcd60e51b8152600401610b169061582b565b6000828152600660205260409020600901548290610100900460ff16156118395760405162461bcd60e51b8152600401610b16906159ab565b600083815260066020526040902060090154839060ff1661186c5760405162461bcd60e51b8152600401610b16906159e2565b6001546040516331a9108f60e11b81526004810186905285916001600160a01b031690636352211e9060240160206040518083038186803b1580156118b057600080fd5b505afa1580156118c4573d6000803e3d6000fd5b505050506040513d601f19601f820116820180604052508101906118e89190615960565b6000828152600560205260409020546001600160a01b039081169116146119215760405162461bcd60e51b8152600401610b169061597d565b600085815260066020526040902060040154841080159061195357506000858152600660205260409020600501548411155b61199f5760405162461bcd60e51b815260206004820152601c60248201527f4c65617365206c656e677468206973206f7574206f662072616e6765000000006044820152606401610b16565b6001546040516331a9108f60e11b81526004810187905233916001600160a01b031690636352211e9060240160206040518083038186803b1580156119e357600080fd5b505afa1580156119f7573d6000803e3d6000fd5b505050506040513d601f19601f82011682018060405250810190611a1b9190615960565b6001600160a01b03161415611a725760405162461bcd60e51b815260206004820152601c60248201527f6d73672e73656e646572206d757374206e6f74206265206f776e6572000000006044820152606401610b16565b6000604051602001611a8390615a9d565b60408051601f19818403018152828252805160209182012060008a815260068352929092209192611ab8926008019101615aac565b604051602081830303815290604052805190602001201415611b435750600085815260066020526040902060018101549054333191611af691615b34565b341015611b3e5760405162461bcd60e51b815260206004820152601660248201527508aa89040e6cadce840d2e640dcdee840cadcdeeaced60531b6044820152606401610b16565b611bf1565b600860066000888152602001908152602001600020600801604051611b689190615aac565b908152604051908190036020018120600101546370a0823160e01b82523360048301526001600160a01b0316906370a082319060240160206040518083038186803b158015611bb657600080fd5b505afa158015611bca573d6000803e3d6000fd5b505050506040513d601f19601f82011682018060405250810190611bee9190615b4c565b90505b600086815260066020526040902060018101549054611c109190615b34565b811015611c2f5760405162461bcd60e51b8152600401610b1690615b65565b600086815260056020908152604080832060010180546001600160a01b0319163317905560069182905282206002810183905560098101805461ffff191661010017905542600782015501869055546001600160a01b031615611cf557600154600054604051630585816360e51b8152600481018990526001600160a01b03918216602482015291169063b0b02c6090604401600060405180830381600087803b158015611cdc57600080fd5b505af1158015611cf0573d6000803e3d6000fd5b505050505b6000868152600560209081526040808320600790925290912054600b80549091908110611d2457611d24615b91565b60009182526020909120825460039092020180546001600160a01b039283166001600160a01b0319918216178255600180850154908301805491909416911617909155600291820154910155611d7986613f24565b611dbe5760405162461bcd60e51b815260206004820152601660248201527511985a5b1959081d1bc81b585ad94819195c1bdcda5d60521b6044820152606401610b16565b611dc7866141a0565b611e085760405162461bcd60e51b815260206004820152601260248201527111985a5b1959081d1bc81c185e481c995b9d60721b6044820152606401610b16565b604080518781523360208201529081018690527f94979a671533443f713c18fbc36274386c465d7e9fd6fd34e122f34a2146edcc9060600160405180910390a1505050505050565b601b5460ff1615611e735760405162461bcd60e51b8152600401610b169061582b565b600080516020615f9f833981519152611e8c81336134df565b50600355565b6002601c541415611eb55760405162461bcd60e51b8152600401610b1690615855565b6002601c55600080516020615f7f833981519152611ed381336134df565b600882604051611ee39190615ba7565b9081526040519081900360200190206001015460ff600160a01b90910416611f455760405162461bcd60e51b8152602060048201526015602482015274151bdad95b881a5cc81b9bdd081858d8d95c1d1959605a1b6044820152606401610b16565b604051602001611f5490615a9d565b6040516020818303038152906040528051906020012082604051602001611f7b9190615ba7565b604051602081830303815290604052805190602001201415612036576040514790600990611faa908590615ba7565b90815260200160405180910390205481611fc49190615bc3565b604051909150600090339083908381818185875af1925050503d8060008114612009576040519150601f19603f3d011682016040523d82523d6000602084013e61200e565b606091505b505090508061202f5760405162461bcd60e51b8152600401610b1690615bda565b50506122a5565b670de0b6b3a764000060088360405161204f9190615ba7565b908152604051908190036020018120600101546370a0823160e01b82523060048301526001600160a01b0316906370a082319060240160206040518083038186803b15801561209d57600080fd5b505afa1580156120b1573d6000803e3d6000fd5b505050506040513d601f19601f820116820180604052508101906120d59190615b4c565b116121225760405162461bcd60e51b815260206004820152601b60248201527f436f6e74726163742062616c616e636520697320746f6f206c6f7700000000006044820152606401610b16565b60006008836040516121349190615ba7565b908152604051908190036020018120600101546370a0823160e01b82523060048301526001600160a01b0316906370a082319060240160206040518083038186803b15801561218257600080fd5b505afa158015612196573d6000803e3d6000fd5b505050506040513d601f19601f820116820180604052508101906121ba9190615b4c565b90506009836040516121cc9190615ba7565b908152602001604051809103902054816121e69190615bc3565b90506008836040516121f89190615ba7565b9081526040519081900360200181206001015463a9059cbb60e01b8252336004830152602482018390526001600160a01b03169063a9059cbb90604401602060405180830381600087803b15801561224f57600080fd5b505af1158015612263573d6000803e3d6000fd5b505050506040513d601f19601f820116820180604052508101906122879190615a12565b6122a35760405162461bcd60e51b8152600401610b1690615c03565b505b50506001601c55565b601b5460ff16156122d15760405162461bcd60e51b8152600401610b169061582b565b6002601c5414156122f45760405162461bcd60e51b8152600401610b1690615855565b6002601c556000818152600660205260409020600901548190610100900460ff166123315760405162461bcd60e51b8152600401610b169061588c565b600154604051634f558e7960e01b81526004810184905283916001600160a01b031690634f558e799060240160206040518083038186803b15801561237557600080fd5b505afa158015612389573d6000803e3d6000fd5b505050506040513d601f19601f820116820180604052508101906123ad9190615a12565b6123c95760405162461bcd60e51b8152600401610b1690615a2f565b6001546040516331a9108f60e11b815260048101859052849133916001600160a01b0390911690636352211e9060240160206040518083038186803b15801561241157600080fd5b505afa158015612425573d6000803e3d6000fd5b505050506040513d601f19601f820116820180604052508101906124499190615960565b6001600160a01b03161461246f5760405162461bcd60e51b8152600401610b1690615a66565b60008481526006602052604090206009015460ff16156124d15760405162461bcd60e51b815260206004820152601a60248201527f546865206c65617365206d757374206e6f74206265206f70656e0000000000006044820152606401610b16565b6001546040516331a9108f60e11b8152600481018690526001600160a01b0390911690636352211e9060240160206040518083038186803b15801561251557600080fd5b505afa158015612529573d6000803e3d6000fd5b505050506040513d601f19601f8201168201806040525081019061254d9190615960565b6000858152600560205260409020546001600160a01b039081169116146125865760405162461bcd60e51b8152600401610b169061597d565b6000848152600560205260409020600101546125ac9085906001600160a01b03166136c3565b6125c85760405162461bcd60e51b8152600401610b16906158c3565b6125d58460006001613910565b6125f15760405162461bcd60e51b8152600401610b16906158fa565b600084815260056020908152604091829020805460019091015483518881526001600160a01b039283169381019390935216918101919091527f8ee536b695f3bf89b150a60c4570c9f2ddf0a24b591c4fbc7a618130173720ed906060016111ca565b6000828152601a602052604090206001015461267081336134df565b610aa583836135c9565b601b5460ff161561269d5760405162461bcd60e51b8152600401610b169061582b565b6002601c5414156126c05760405162461bcd60e51b8152600401610b1690615855565b6002601c556000818152600660205260409020600901548190610100900460ff166126fd5760405162461bcd60e51b8152600401610b169061588c565b6001546040516331a9108f60e11b81526004810184905283916001600160a01b031690636352211e9060240160206040518083038186803b15801561274157600080fd5b505afa158015612755573d6000803e3d6000fd5b505050506040513d601f19601f820116820180604052508101906127799190615960565b6000828152600560205260409020546001600160a01b039081169116146127b25760405162461bcd60e51b8152600401610b169061597d565b600154604051634f558e7960e01b81526004810185905284916001600160a01b031690634f558e799060240160206040518083038186803b1580156127f657600080fd5b505afa15801561280a573d6000803e3d6000fd5b505050506040513d601f19601f8201168201806040525081019061282e9190615a12565b61284a5760405162461bcd60e51b8152600401610b1690615a2f565b60086006600086815260200190815260200160002060080160405161286f9190615aac565b9081526040519081900360200190206001015460ff600160a01b90910416806128ef57506040516020016128a290615a9d565b60408051601f1981840301815282825280516020918201206000888152600683529290922091926128d7926008019101615aac565b60405160208183030381529060405280519060200120145b6129315760405162461bcd60e51b8152602060048201526013602482015272151bdad95b881b9bdd081cdd5c1c1bdc9d1959606a1b6044820152606401610b16565b60008481526006602052604090206009015460ff16156129935760405162461bcd60e51b815260206004820152601a60248201527f546865206c65617365206d757374206e6f74206265206f70656e0000000000006044820152606401610b16565b6000848152600560205260409020600101546001600160a01b03163314806129ce57506129ce600080516020615f9f8339815191523361121d565b612a1a5760405162461bcd60e51b815260206004820152601c60248201527f6d73672e73656e646572206973206e6f7420617574686f7269736564000000006044820152606401610b16565b60008481526006602081905260409091209081015460029091015410612a755760405162461bcd60e51b815260206004820152601060248201526f14995b9d081a5cc8185b1b081c185a5960821b6044820152606401610b16565b612a7e846114bc565b612abc5760405162461bcd60e51b815260206004820152600f60248201526e52656e74206973206e6f742064756560881b6044820152606401610b16565b612ac5846141a0565b612b065760405162461bcd60e51b815260206004820152601260248201527111985a5b1959081d1bc81c185e481c995b9d60721b6044820152606401610b16565b50506001601c555050565b6002601c541415612b345760405162461bcd60e51b8152600401610b1690615855565b6002601c55600080516020615f9f833981519152612b5281336134df565b6000828152600660205260409020600901548290610100900460ff1615612b8b5760405162461bcd60e51b8152600401610b16906159ab565b600083815260066020526040902060090154839060ff16612bbe5760405162461bcd60e51b8152600401610b16906159e2565b612bca84600080613910565b612be65760405162461bcd60e51b8152600401610b16906158fa565b6040518481527fc5af117645321e4904da30aa139f8216d355b2a30b77c59256226118dc82a944906020016111ca565b600042612c2283613e08565b156115175760008381526006602081905260409091209081015460029091015410612c505750600092915050565b6000838152600660205260409020600781015460029091015461150791612c7691613e4d565b6000858152600660205260409020600301546147f8565b601b5460ff1615612cb05760405162461bcd60e51b8152600401610b169061582b565b600080516020615f9f833981519152612cc981336134df565b6001600160a01b038216612cdc57600080fd5b600883604051612cec9190615ba7565b9081526040519081900360200190206001015460ff600160a01b90910416610aa557604080516060810182528481526001600160a01b03841660208201526001818301529051600890612d40908690615ba7565b90815260200160405180910390206000820151816000019080519060200190612d6a92919061515a565b506020820151600190910180546040909301511515600160a01b026001600160a81b03199093166001600160a01b0390921691909117919091179055600c612db184614820565b81546001810183556000928352602090922090910155505050565b601b5460ff1615612def5760405162461bcd60e51b8152600401610b169061582b565b604080840151600081815260066020529190912060090154610100900460ff1615612e2c5760405162461bcd60e51b8152600401610b16906159ab565b6040848101516001549151634f558e7960e01b81526004810182905290916001600160a01b031690634f558e799060240160206040518083038186803b158015612e7557600080fd5b505afa158015612e89573d6000803e3d6000fd5b505050506040513d601f19601f82011682018060405250810190612ead9190615a12565b612ec95760405162461bcd60e51b8152600401610b1690615a2f565b6008846101000151604051612ede9190615ba7565b9081526040519081900360200190206001015460ff600160a01b9091041680612f555750604051602001612f1190615a9d565b60405160208183030381529060405280519060200120846101000151604051602001612f3d9190615ba7565b60405160208183030381529060405280519060200120145b612f995760405162461bcd60e51b8152602060048201526015602482015274151bdad95b881a5cc81b9bdd081858d8d95c1d1959605a1b6044820152606401610b16565b8215612ffd5760408086015160009081526006602052206009015460ff1615612ffd5760405162461bcd60e51b81526020600482015260166024820152752632b0b9b29036bab9ba103737ba1031329037b832b760511b6044820152606401610b16565b83608001518460a0015110156130555760405162461bcd60e51b815260206004820181905260248201527f4d696e206d757374206e6f742062652067726561746572207468616e206d61786044820152606401610b16565b60015460408681015190516331a9108f60e11b8152600481019190915233916001600160a01b031690636352211e9060240160206040518083038186803b15801561309f57600080fd5b505afa1580156130b3573d6000803e3d6000fd5b505050506040513d601f19601f820116820180604052508101906130d79190615960565b6001600160a01b031614806130ff57506130ff600080516020615f9f8339815191523361121d565b61314b5760405162461bcd60e51b815260206004820152601c60248201527f6d73672e73656e646572206973206e6f7420617574686f7269736564000000006044820152606401610b16565b60015460405163e985e9c560e01b81523360048201523060248201526001600160a01b039091169063e985e9c59060440160206040518083038186803b15801561319457600080fd5b505afa1580156131a8573d6000803e3d6000fd5b505050506040513d601f19601f820116820180604052508101906131cc9190615a12565b6132185760405162461bcd60e51b815260206004820152601a60248201527f4d75737420617070726f7665207468697320636f6e74726163740000000000006044820152606401610b16565b600454336000908152600a602052604090205411156132795760405162461bcd60e51b815260206004820152601b60248201527f4d616c6963696f757320636f756e7420697320746f6f206869676800000000006044820152606401610b16565b613283858561483c565b6132c85760405162461bcd60e51b81526020600482015260166024820152754661696c656420746f20637265617465206c6561736560501b6044820152606401610b16565b821580156132e057506000546001600160a01b031615155b15613354576001546040868101516000549151630585816360e51b815260048101919091526001600160a01b03918216602482015291169063b0b02c6090604401600060405180830381600087803b15801561333b57600080fd5b505af115801561334f573d6000803e3d6000fd5b505050505b82156133bb577fb21bd5093c03ee0ef8b9ee99e1235637762fc7602d0fca975ae0a7c51ca69ef5856040015133866000015187608001518860a0015189606001518a61010001516040516133ae9796959493929190615c3a565b60405180910390a1613418565b7f55ad2bae1d2ba8dd873cad04b17ddb9e97b1ab1a56afec901e1ff12291a910f7856040015133866000015187608001518860a0015189606001518a610100015160405161340f9796959493929190615c3a565b60405180910390a15b5050505050565b601b5460ff16156134425760405162461bcd60e51b8152600401610b169061582b565b600080516020615f9f83398151915261345b81336134df565b50600455565b600081815260066020526040812060090154610100900460ff16156134d257600082815260066020819052604090912090810154600290910154106134d257600082815260066020819052604090912060078101549101546134c39190613e4d565b4211156134d257506001919050565b506000919050565b919050565b6134e9828261121d565b610b2957613501816001600160a01b03166014614bbd565b61350c836020614bbd565b60405160200161351d929190615c86565b60408051601f198184030181529082905262461bcd60e51b8252610b1691600401615cfb565b61354d828261121d565b610b29576000828152601a602090815260408083206001600160a01b03851684529091529020805460ff191660011790556135853390565b6001600160a01b0316816001600160a01b0316837f2f8788117e7eff1d82e926ec794901d17c78024a50270940304540a733656f0d60405160405180910390a45050565b6135d3828261121d565b15610b29576000828152601a602090815260408083206001600160a01b0385168085529252808320805460ff1916905551339285917ff6391f5c32d9c69d2a47ea670b442974b53935d1edc7fd64eb21e047a839171b9190a45050565b601b5460ff166136795760405162461bcd60e51b815260206004820152601460248201527314185d5cd8589b194e881b9bdd081c185d5cd95960621b6044820152606401610b16565b601b805460ff191690557f5db9ee0a495bf2e6ff9c91a7834c1ba4fdd244a5e8aa4e537bd38aeae4b073aa335b6040516001600160a01b03909116815260200160405180910390a1565b60006001600160a01b0382166136d857600080fd5b6000838152600660205260409020600101541561390757600083815260066020526040908190206001810154915160099161371891600890910190615aac565b908152602001604051809103902060008282546137359190615bc3565b909155505060405161374990602001615a9d565b60408051601f19818403018152828252805160209182012060008781526006835292909220919261377e926008019101615aac565b60405160208183030381529060405280519060200120141561381f576000838152600660205260408082206001015490516001600160a01b03851691908381818185875af1925050503d80600081146137f3576040519150601f19603f3d011682016040523d82523d6000602084013e6137f8565b606091505b50509050806138195760405162461bcd60e51b8152600401610b1690615bda565b50613907565b6008600660008581526020019081526020016000206008016040516138449190615aac565b9081526040805191829003602090810183206001908101546000888152600690935292909120015463a9059cbb60e01b83526001600160a01b0385811660048501526024840191909152169063a9059cbb90604401602060405180830381600087803b1580156138b357600080fd5b505af11580156138c7573d6000803e3d6000fd5b505050506040513d601f19601f820116820180604052508101906138eb9190615a12565b6139075760405162461bcd60e51b8152600401610b1690615c03565b50600192915050565b6000838152600560205260408120546001600160a01b03168315613b365760008581526006602052604090206009015462010000900460ff1615613a1b576000858152600560209081526040808320600190810180546001600160a01b03191690556006928390529083206007810184905560098101805461ffff19169092179091556002810183905501819055546001600160a01b031615613a1657600154600054604051630585816360e51b8152600481018890526001600160a01b03918216602482015291169063b0b02c6090604401600060405180830381600087803b1580156139fd57600080fd5b505af1158015613a11573d6000803e3d6000fd5b505050505b613c4d565b60008581526006602081905260409091206010805482556011546001830155601254600283015560135460038301556014546004830155601554600583015560165492820192909255601754600782015560188054600883019190613a7f906157f6565b613a8a9291906151de565b506009918201805491909201805460ff19811660ff93841615159081178355845461ffff1990921661ff001990911617610100918290048416151590910217808255925462ff000019909316620100009384900490921615159092021790556000858152600560205260409020600d5481546001600160a01b039182166001600160a01b0319918216178355600e54600184018054919093169116179055600f54600290910155613c4d565b60008581526006602081905260409091206010805482556011546001830155601254600283015560135460038301556014546004830155601554600583015560165492820192909255601754600782015560188054600883019190613b9a906157f6565b613ba59291906151de565b506009918201805491909201805460ff19811660ff93841615159081178355845461ffff1990921661ff001990911617610100918290048416151590910217808255925462ff000019909316620100009384900490921615159092021790556000858152600560205260409020600d5481546001600160a01b039182166001600160a01b0319918216178355600e54600184018054919093169116179055600f546002909101555b8215613d1d57613c5b614d60565b8015613c7157506000546001600160a01b031615155b15613cdf57600154600054604051630585816360e51b8152600481018890526001600160a01b03918216602482015291169063b0b02c6090604401600060405180830381600087803b158015613cc657600080fd5b505af1158015613cda573d6000803e3d6000fd5b505050505b6001600160a01b0381166000908152600a6020526040902054613d03906001615b34565b6001600160a01b0382166000908152600a60205260409020555b6000858152600560209081526040808320600790925290912054600b80549091908110613d4c57613d4c615b91565b60009182526020909120825460039092020180546001600160a01b03199081166001600160a01b03938416178255600180850154818401805490931694169390931790556002928301549201919091559150509392505050565b610b298282613543565b601b5460ff1615613dd35760405162461bcd60e51b8152600401610b169061582b565b601b805460ff191660011790557f62e78cea01bee320cd4e420270b5ea74000d11b0c9f74754ebdbfc544b05a2586136a63390565b600081815260066020526040812060090154610100900460ff168015613e40575060008281526006602052604090206009015460ff16155b156134d257506001919050565b6000808080613e67613e626201518088615d24565b614de7565b91945092509050613e788583615b34565b9150600c613e87600184615bc3565b613e919190615d24565b613e9b9084615b34565b9250600c613eaa600184615bc3565b613eb49190615d38565b613ebf906001615b34565b91506000613ecd8484614f5b565b905080821115613edb578091505b613ee86201518088615d38565b62015180613ef7868686614fe1565b613f019190615d4c565b613f0b9190615b34565b945086851015613f1a57600080fd5b5050505092915050565b600081815260066020526040812060010154801561390757604051602001613f4b90615a9d565b60408051601f198184030181528282528051602091820120600087815260068352929092209192613f80926008019101615aac565b604051602081830303815290604052805190602001201461414f576000838152600660205260408082209051600891613fbc9190830190615aac565b908152604051908190036020018120600101546370a0823160e01b82523360048301526001600160a01b0316906370a082319060240160206040518083038186803b15801561400a57600080fd5b505afa15801561401e573d6000803e3d6000fd5b505050506040513d601f19601f820116820180604052508101906140429190615b4c565b9050818110156140645760405162461bcd60e51b8152600401610b1690615b65565b6008600660008681526020019081526020016000206008016040516140899190615aac565b908152604080519182900360209081018320600190810154600089815260059093529290912001546323b872dd60e01b83526001600160a01b03918216926323b872dd926140df92169030908790600401615611565b602060405180830381600087803b1580156140f957600080fd5b505af115801561410d573d6000803e3d6000fd5b505050506040513d601f19601f820116820180604052508101906141319190615a12565b61414d5760405162461bcd60e51b8152600401610b1690615c03565b505b806009600660008681526020019081526020016000206008016040516141759190615aac565b908152602001604051809103902060008282546141929190615b34565b909155505050600192915050565b600354600082815260066020526040812054909182916064916141c291615d4c565b6141cc9190615d24565b600084815260066020526040812054919250906141ea908390615bc3565b905060006040516020016141fd90615a9d565b60408051601f198184030181528282528051602091820120600089815260068352929092209192614232926008019101615aac565b6040516020818303038152906040528051906020012014156143a057506000848152600560209081526040808320600101546006909252909120546001600160a01b0390911631908110156142995760405162461bcd60e51b8152600401610b1690615b65565b6000858152600660205260409020543410156142d15760405162461bcd60e51b81526020600482015260006024820152604401610b16565b348281101561431b5760405162461bcd60e51b815260206004820152601660248201527508aa89040e6cadce840d2e640dcdee840cadcdeeaced60531b6044820152606401610b16565b6000868152600560205260408082205490516001600160a01b039091169085908381818185875af1925050503d8060008114614373576040519150601f19603f3d011682016040523d82523d6000602084013e614378565b606091505b50509050806143995760405162461bcd60e51b8152600401610b1690615bda565b505061466a565b6008600660008781526020019081526020016000206008016040516143c59190615aac565b90815260408051918290036020908101832060019081015460008a815260059093529290912001546370a0823160e01b83526001600160a01b03908116600484015216906370a082319060240160206040518083038186803b15801561442a57600080fd5b505afa15801561443e573d6000803e3d6000fd5b505050506040513d601f19601f820116820180604052508101906144629190615b4c565b6000868152600660205260409020549091508110156144935760405162461bcd60e51b8152600401610b1690615b65565b6008600660008781526020019081526020016000206008016040516144b89190615aac565b90815260408051918290036020908101832060019081015460008a81526005909352929091209081015490546323b872dd60e01b84526001600160a01b03928316936323b872dd936145139381169216908790600401615611565b602060405180830381600087803b15801561452d57600080fd5b505af1158015614541573d6000803e3d6000fd5b505050506040513d601f19601f820116820180604052508101906145659190615a12565b6145815760405162461bcd60e51b8152600401610b1690615c03565b6008600660008781526020019081526020016000206008016040516145a69190615aac565b90815260408051918290036020908101832060019081015460008a815260059093529290912001546323b872dd60e01b83526001600160a01b03918216926323b872dd926145fc92169030908890600401615611565b602060405180830381600087803b15801561461657600080fd5b505af115801561462a573d6000803e3d6000fd5b505050506040513d601f19601f8201168201806040525081019061464e9190615a12565b61466a5760405162461bcd60e51b8152600401610b1690615c03565b600085815260066020526040902060020154614687906001615b34565b6000868152600660208190526040909120015414156146e2576000858152600560205260409020600101546146c69086906001600160a01b03166136c3565b6146e25760405162461bcd60e51b8152600401610b16906158c3565b6000858152600660205260408120600201805460019290614704908490615b34565b90915550506000858152600560209081526040808320600790925290912054600b8054909190811061473857614738615b91565b60009182526020808320845460039093020180546001600160a01b03199081166001600160a01b039485161782556001808701548184018054909316908616179091556002958601549590910194909455888352600581526040808420948501549454600690925292839020805493517fa14e8b5ee63577bb060ef0abb638febd601c4eb3024740365b7bcf57cdc5f362956147e5958c9591821694909116929091600890910190615d6b565b60405180910390a1506001949350505050565b60006148076201518083615d4c565b6148119084615b34565b90508281101561094457600080fd5b600081516000141561483457506000919050565b506020015190565b600060405160200161484d90615a9d565b604051602081830303815290604052805190602001208261010001516040516020016148799190615ba7565b60405160208183030381529060405280519060200120146148b357815168056bc75e2d6310000011156148ae57506000610944565b6148cb565b815166470de4df82000011156148cb57506000610944565b6040808401516000908152600660208181529183902085518155828601516001820155928501516002840155606085015160038401556080850151600484015560a0850151600584015560c08501519083015560e08401516007830155610100840151805185939261494492600885019291019061515a565b5061012082015160099182018054610140850151610160909501511515620100000262ff0000199515156101000261ff0019941515851661ffff199093169290921791909117949094169390931790925560408086018051600090815260066020818152848320600790810184905584518452858420600290810185905585518552868520909301849055845184528584208701805460ff1916600190811790915585518552868520909701805490981690975583518352600581528483208a5181546001600160a01b039182166001600160a01b0319918216178355838d0151838a01805491909316908216179091558551919093018190558352848320909501805490911690559051815292909152902054614b3c57600b80546001810182556000918252845160039091027f0175b7a638427703f0dbe7bb9bbf987a2551717b34e79f33b5b1008d1fa01db9810180546001600160a01b039384166001600160a01b0319918216179091556020808801517f0175b7a638427703f0dbe7bb9bbf987a2551717b34e79f33b5b1008d1fa01dba84018054919095169216919091179092556040808701517f0175b7a638427703f0dbe7bb9bbf987a2551717b34e79f33b5b1008d1fa01dbb909201829055600280549285526007909352832081905591614b3283615e19565b9190505550613907565b604080840151600090815260076020522054600b80548592908110614b6357614b63615b91565b6000918252602091829020835160039092020180546001600160a01b039283166001600160a01b03199182161782559284015160018201805491909316931692909217905560409091015160029091015550600192915050565b60606000614bcc836002615d4c565b614bd7906002615b34565b67ffffffffffffffff811115614bef57614bef6152ca565b6040519080825280601f01601f191660200182016040528015614c19576020820181803683370190505b509050600360fc1b81600081518110614c3457614c34615b91565b60200101906001600160f81b031916908160001a905350600f60fb1b81600181518110614c6357614c63615b91565b60200101906001600160f81b031916908160001a9053506000614c87846002615d4c565b614c92906001615b34565b90505b6001811115614d0a576f181899199a1a9b1b9c1cb0b131b232b360811b85600f1660108110614cc657614cc6615b91565b1a60f81b828281518110614cdc57614cdc615b91565b60200101906001600160f81b031916908160001a90535060049490941c93614d0381615e34565b9050614c95565b508315614d595760405162461bcd60e51b815260206004820181905260248201527f537472696e67733a20686578206c656e67746820696e73756666696369656e746044820152606401610b16565b9392505050565b60015460405163e985e9c560e01b81523360048201523060248201526000916001600160a01b03169063e985e9c59060440160206040518083038186803b158015614daa57600080fd5b505afa158015614dbe573d6000803e3d6000fd5b505050506040513d601f19601f82011682018060405250810190614de29190615a12565b905090565b60008080838162253d8c614dfe8362010bd9615e4b565b614e089190615e4b565b9050600062023ab1614e1b836004615e8c565b614e259190615f11565b90506004614e368262023ab1615e8c565b614e41906003615e4b565b614e4b9190615f11565b614e559083615f3f565b9150600062164b09614e68846001615e4b565b614e7490610fa0615e8c565b614e7e9190615f11565b90506004614e8e826105b5615e8c565b614e989190615f11565b614ea29084615f3f565b614ead90601f615e4b565b9250600061098f614ebf856050615e8c565b614ec99190615f11565b905060006050614edb8361098f615e8c565b614ee59190615f11565b614eef9086615f3f565b9050614efc600b83615f11565b9450614f0985600c615e8c565b614f14836002615e4b565b614f1e9190615f3f565b91508483614f2d603187615f3f565b614f38906064615e8c565b614f429190615e4b565b614f4c9190615e4b565b9a919950975095505050505050565b60008160011480614f6c5750816003145b80614f775750816005145b80614f825750816007145b80614f8d5750816008145b80614f98575081600a145b80614fa3575081600c145b15614fb05750601f610944565b81600214614fc05750601e610944565b614fc98361511e565b614fd457601c614fd7565b601d5b60ff169392505050565b60006107b2841015614ff257600080fd5b838383600062253d8c60046064600c61500c600e88615f3f565b6150169190615f11565b61502288611324615e4b565b61502c9190615e4b565b6150369190615f11565b615041906003615e8c565b61504b9190615f11565b600c80615059600e88615f3f565b6150639190615f11565b61506e90600c615e8c565b615079600288615f3f565b6150839190615f3f565b61508f9061016f615e8c565b6150999190615f11565b6004600c6150a8600e89615f3f565b6150b29190615f11565b6150be896112c0615e4b565b6150c89190615e4b565b6150d4906105b5615e8c565b6150de9190615f11565b6150ea617d4b87615f3f565b6150f49190615e4b565b6150fe9190615e4b565b6151089190615f3f565b6151129190615f3f565b98975050505050505050565b600061512b600483615d38565b158015615141575061513e606483615d38565b15155b80610944575061515361019083615d38565b1592915050565b828054615166906157f6565b90600052602060002090601f01602090048101928261518857600085556151ce565b82601f106151a157805160ff19168380011785556151ce565b828001600101855582156151ce579182015b828111156151ce5782518255916020019190600101906151b3565b506151da929150615259565b5090565b8280546151ea906157f6565b90600052602060002090601f01602090048101928261520c57600085556151ce565b82601f1061521d57805485556151ce565b828001600101855582156151ce57600052602060002091601f016020900482015b828111156151ce57825482559160010191906001019061523e565b5b808211156151da576000815560010161525a565b6001600160a01b0381168114610b4e57600080fd5b60006020828403121561529557600080fd5b8135614d598161526e565b6000602082840312156152b257600080fd5b81356001600160e01b031981168114614d5957600080fd5b634e487b7160e01b600052604160045260246000fd5b6040516060810167ffffffffffffffff81118282101715615303576153036152ca565b60405290565b604051610180810167ffffffffffffffff81118282101715615303576153036152ca565b600082601f83011261533e57600080fd5b813567ffffffffffffffff80821115615359576153596152ca565b604051601f8301601f19908116603f01168101908282118183101715615381576153816152ca565b8160405283815286602085880101111561539a57600080fd5b836020870160208301376000602085830101528094505050505092915050565b6000602082840312156153cc57600080fd5b813567ffffffffffffffff8111156153e357600080fd5b6153ef8482850161532d565b949350505050565b60005b838110156154125781810151838201526020016153fa565b83811115615421576000848401525b50505050565b6000815180845261543f8160208601602086016153f7565b601f01601f19169290920160200192915050565b6060815260006154666060830186615427565b6001600160a01b0394909416602083015250901515604090910152919050565b60006020828403121561549857600080fd5b5035919050565b600080604083850312156154b257600080fd5b8235915060208301356154c48161526e565b809150509250929050565b600080604083850312156154e257600080fd5b82356154ed8161526e565b9150602083013560ff811681146154c457600080fd5b60006101808e83528d60208401528c60408401528b60608401528a60808401528960a08401528860c08401528760e08401528061010084015261554881840188615427565b95151561012084015250509115156101408301521515610160909101529998505050505050505050565b6020808252825182820181905260009190848201906040850190845b818110156155aa5783518352928401929184019160010161558e565b50909695505050505050565b8015158114610b4e57600080fd5b80356134da816155b6565b6000806000606084860312156155e457600080fd5b8335925060208401356155f68161526e565b91506040840135615606816155b6565b809150509250925092565b6001600160a01b039384168152919092166020820152604081019190915260600190565b6000806040838503121561564857600080fd5b50508035926020909101359150565b6000806040838503121561566a57600080fd5b823567ffffffffffffffff81111561568157600080fd5b61568d8582860161532d565b92505060208301356154c48161526e565b600080600083850360a08112156156b457600080fd5b60608112156156c257600080fd5b506156cb6152e0565b84356156d68161526e565b815260208501356156e68161526e565b6020820152604085810135908201529250606084013567ffffffffffffffff8082111561571257600080fd5b90850190610180828803121561572757600080fd5b61572f615309565b823581526020830135602082015260408301356040820152606083013560608201526080830135608082015260a083013560a082015260c083013560c082015260e083013560e0820152610100808401358381111561578d57600080fd5b6157998a82870161532d565b82840152505061012091506157af8284016155c4565b8282015261014091506157c38284016155c4565b8282015261016091506157d78284016155c4565b828201528094505050506157ed608085016155c4565b90509250925092565b600181811c9082168061580a57607f821691505b6020821081141561152057634e487b7160e01b600052602260045260246000fd5b60208082526010908201526f14185d5cd8589b194e881c185d5cd95960821b604082015260600190565b6020808252601f908201527f5265656e7472616e637947756172643a207265656e7472616e742063616c6c00604082015260600190565b60208082526018908201527f546865206173736574206d757374206265206c65617365640000000000000000604082015260600190565b6020808252601a908201527f4661696c656420746f207472616e73666572206465706f736974000000000000604082015260600190565b6020808252601590820152744661696c656420746f206572617365206c6561736560581b604082015260600190565b6020808252601f908201527f546865206c65617365206d757374206e6f7420626520636f6d706c6574656400604082015260600190565b60006020828403121561597257600080fd5b8151614d598161526e565b6020808252601490820152732632b9b9b7b91036bab9ba1031329037bbb732b960611b604082015260600190565b6020808252601c908201527f546865206173736574206d757374206e6f74206265206c656173656400000000604082015260600190565b6020808252601690820152752a3432903632b0b9b29036bab9ba1031329037b832b760511b604082015260600190565b600060208284031215615a2457600080fd5b8151614d59816155b6565b60208082526018908201527f54686520617373657420646f6573206e6f742065786973740000000000000000604082015260600190565b60208082526018908201527f6d73672e73656e646572206d757374206265206f776e65720000000000000000604082015260600190565b6208aa8960eb1b815260030190565b6000808354615aba816157f6565b60018281168015615ad25760018114615ae357615b12565b60ff19841687528287019450615b12565b8760005260208060002060005b85811015615b095781548a820152908401908201615af0565b50505082870194505b50929695505050505050565b634e487b7160e01b600052601160045260246000fd5b60008219821115615b4757615b47615b1e565b500190565b600060208284031215615b5e57600080fd5b5051919050565b60208082526012908201527142616c616e636520697320746f6f206c6f7760701b604082015260600190565b634e487b7160e01b600052603260045260246000fd5b60008251615bb98184602087016153f7565b9190910192915050565b600082821015615bd557615bd5615b1e565b500390565b6020808252600f908201526e151c985b9cd9995c8819985a5b1959608a1b604082015260600190565b6020808252601b908201527f4661696c656420455243323020746f6b656e207472616e736665720000000000604082015260600190565b87815260018060a01b03871660208201528560408201528460608201528360808201528260a082015260e060c08201526000615c7960e0830184615427565b9998505050505050505050565b7f416363657373436f6e74726f6c3a206163636f756e7420000000000000000000815260008351615cbe8160178501602088016153f7565b7001034b99036b4b9b9b4b733903937b6329607d1b6017918401918201528351615cef8160288401602088016153f7565b01602801949350505050565b602081526000614d596020830184615427565b634e487b7160e01b600052601260045260246000fd5b600082615d3357615d33615d0e565b500490565b600082615d4757615d47615d0e565b500690565b6000816000190483118215151615615d6657615d66615b1e565b500290565b8581526000602060018060a01b038088168285015280871660408501525084606084015260a0608084015260008454615da3816157f6565b8060a087015260c0600180841660008114615dc55760018114615dd957615e07565b60ff1985168984015260e089019550615e07565b896000528660002060005b85811015615dff5781548b8201860152908301908801615de4565b8a0184019650505b50939c9b505050505050505050505050565b6000600019821415615e2d57615e2d615b1e565b5060010190565b600081615e4357615e43615b1e565b506000190190565b600080821280156001600160ff1b0384900385131615615e6d57615e6d615b1e565b600160ff1b8390038412811615615e8657615e86615b1e565b50500190565b60006001600160ff1b0381841382841380821686840486111615615eb257615eb2615b1e565b600160ff1b6000871282811687830589121615615ed157615ed1615b1e565b60008712925087820587128484161615615eed57615eed615b1e565b87850587128184161615615f0357615f03615b1e565b505050929093029392505050565b600082615f2057615f20615d0e565b600160ff1b821460001984141615615f3a57615f3a615b1e565b500590565b60008083128015600160ff1b850184121615615f5d57615f5d615b1e565b6001600160ff1b0384018313811615615f7857615f78615b1e565b5050039056fed980155b32cf66e6af51e0972d64b9d5efe0e6f237dfaa4bdc83f990dd79e9c84ff52032f36e32ac782042a01802e20394d4255c84a3c046490be98ab632691ba2646970667358221220e99e2afcf8e83deca2f4cdbda80803b412c96eb41060d3bd907d6ae336cd274464736f6c63430008090033d980155b32cf66e6af51e0972d64b9d5efe0e6f237dfaa4bdc83f990dd79e9c84ff52032f36e32ac782042a01802e20394d4255c84a3c046490be98ab632691b",
  "linkReferences": {},
  "deployedLinkReferences": {}
}