{
  "_format": "hh-sol-artifact-1",
  "contractName": "DclRental",
  "sourceName": "contracts/DclRental.sol",
  "address": "0x2E82829630Fc660323Eb3EdD7a65cEA31e5a8D76",
  "abi": [
    {
      "inputs": [
        {
          "internalType": "address",
          "name": "_nftAddress",
          "type": "address"
        }
      ],
      "stateMutability": "nonpayable",
      "type": "constructor"
    },
    {
      "anonymous": false,
      "inputs": [
        {
          "indexed": false,
          "internalType": "uint256",
          "name": "assetId",
          "type": "uint256"
        },
        {
          "indexed": false,
          "internalType": "address",
          "name": "lessee",
          "type": "address"
        },
        {
          "indexed": false,
          "internalType": "uint256",
          "name": "finalLeaseLength",
          "type": "uint256"
        }
      ],
      "name": "LeaseAccepted",
      "type": "event"
    },
    {
      "anonymous": false,
      "inputs": [
        {
          "indexed": false,
          "internalType": "uint256",
          "name": "assetId",
          "type": "uint256"
        },
        {
          "indexed": false,
          "internalType": "address",
          "name": "lessor",
          "type": "address"
        },
        {
          "indexed": false,
          "internalType": "address",
          "name": "depositTo",
          "type": "address"
        }
      ],
      "name": "LeaseCanceled",
      "type": "event"
    },
    {
      "anonymous": false,
      "inputs": [
        {
          "indexed": false,
          "internalType": "uint256",
          "name": "assetId",
          "type": "uint256"
        },
        {
          "indexed": false,
          "internalType": "address",
          "name": "lessor",
          "type": "address"
        },
        {
          "indexed": false,
          "internalType": "uint256",
          "name": "rentAmount",
          "type": "uint256"
        },
        {
          "indexed": false,
          "internalType": "uint256",
          "name": "deposit",
          "type": "uint256"
        },
        {
          "indexed": false,
          "internalType": "uint256",
          "name": "minLeaseLength",
          "type": "uint256"
        },
        {
          "indexed": false,
          "internalType": "uint256",
          "name": "maxLeaseLength",
          "type": "uint256"
        },
        {
          "indexed": false,
          "internalType": "uint256",
          "name": "gracePeriod",
          "type": "uint256"
        },
        {
          "indexed": false,
          "internalType": "string",
          "name": "rentToken",
          "type": "string"
        },
        {
          "indexed": false,
          "internalType": "bool",
          "name": "autoRegenerate",
          "type": "bool"
        }
      ],
      "name": "LeaseCreated",
      "type": "event"
    },
    {
      "anonymous": false,
      "inputs": [
        {
          "indexed": false,
          "internalType": "uint256",
          "name": "assetId",
          "type": "uint256"
        }
      ],
      "name": "LeaseRemoved",
      "type": "event"
    },
    {
      "anonymous": false,
      "inputs": [
        {
          "indexed": false,
          "internalType": "uint256",
          "name": "assetId",
          "type": "uint256"
        },
        {
          "indexed": false,
          "internalType": "address",
          "name": "lessor",
          "type": "address"
        }
      ],
      "name": "LeaseTerminated",
      "type": "event"
    },
    {
      "anonymous": false,
      "inputs": [
        {
          "indexed": false,
          "internalType": "uint256",
          "name": "assetId",
          "type": "uint256"
        },
        {
          "indexed": false,
          "internalType": "address",
          "name": "lessor",
          "type": "address"
        },
        {
          "indexed": false,
          "internalType": "uint256",
          "name": "rentAmount",
          "type": "uint256"
        },
        {
          "indexed": false,
          "internalType": "uint256",
          "name": "deposit",
          "type": "uint256"
        },
        {
          "indexed": false,
          "internalType": "uint256",
          "name": "minLeaseLength",
          "type": "uint256"
        },
        {
          "indexed": false,
          "internalType": "uint256",
          "name": "maxLeaseLength",
          "type": "uint256"
        },
        {
          "indexed": false,
          "internalType": "uint256",
          "name": "gracePeriod",
          "type": "uint256"
        },
        {
          "indexed": false,
          "internalType": "string",
          "name": "rentToken",
          "type": "string"
        },
        {
          "indexed": false,
          "internalType": "bool",
          "name": "autoRegenerate",
          "type": "bool"
        }
      ],
      "name": "LeaseUpdated",
      "type": "event"
    },
    {
      "anonymous": false,
      "inputs": [
        {
          "indexed": false,
          "internalType": "address",
          "name": "account",
          "type": "address"
        }
      ],
      "name": "Paused",
      "type": "event"
    },
    {
      "anonymous": false,
      "inputs": [
        {
          "indexed": false,
          "internalType": "uint256",
          "name": "assetId",
          "type": "uint256"
        },
        {
          "indexed": false,
          "internalType": "address",
          "name": "lessee",
          "type": "address"
        },
        {
          "indexed": false,
          "internalType": "address",
          "name": "lessor",
          "type": "address"
        },
        {
          "indexed": false,
          "internalType": "uint256",
          "name": "amount",
          "type": "uint256"
        },
        {
          "indexed": false,
          "internalType": "uint256",
          "name": "monthsPaid",
          "type": "uint256"
        },
        {
          "indexed": false,
          "internalType": "string",
          "name": "rentToken",
          "type": "string"
        }
      ],
      "name": "RentPaid",
      "type": "event"
    },
    {
      "anonymous": false,
      "inputs": [
        {
          "indexed": true,
          "internalType": "bytes32",
          "name": "role",
          "type": "bytes32"
        },
        {
          "indexed": true,
          "internalType": "bytes32",
          "name": "previousAdminRole",
          "type": "bytes32"
        },
        {
          "indexed": true,
          "internalType": "bytes32",
          "name": "newAdminRole",
          "type": "bytes32"
        }
      ],
      "name": "RoleAdminChanged",
      "type": "event"
    },
    {
      "anonymous": false,
      "inputs": [
        {
          "indexed": true,
          "internalType": "bytes32",
          "name": "role",
          "type": "bytes32"
        },
        {
          "indexed": true,
          "internalType": "address",
          "name": "account",
          "type": "address"
        },
        {
          "indexed": true,
          "internalType": "address",
          "name": "sender",
          "type": "address"
        }
      ],
      "name": "RoleGranted",
      "type": "event"
    },
    {
      "anonymous": false,
      "inputs": [
        {
          "indexed": true,
          "internalType": "bytes32",
          "name": "role",
          "type": "bytes32"
        },
        {
          "indexed": true,
          "internalType": "address",
          "name": "account",
          "type": "address"
        },
        {
          "indexed": true,
          "internalType": "address",
          "name": "sender",
          "type": "address"
        }
      ],
      "name": "RoleRevoked",
      "type": "event"
    },
    {
      "anonymous": false,
      "inputs": [
        {
          "indexed": false,
          "internalType": "address",
          "name": "account",
          "type": "address"
        }
      ],
      "name": "Unpaused",
      "type": "event"
    },
    {
      "inputs": [],
      "name": "DEFAULT_ADMIN_ROLE",
      "outputs": [
        {
          "internalType": "bytes32",
          "name": "",
          "type": "bytes32"
        }
      ],
      "stateMutability": "view",
      "type": "function"
    },
    {
      "inputs": [],
      "name": "MIN_ERC_RENT",
      "outputs": [
        {
          "internalType": "uint256",
          "name": "",
          "type": "uint256"
        }
      ],
      "stateMutability": "view",
      "type": "function"
    },
    {
      "inputs": [],
      "name": "MIN_ETH_RENT",
      "outputs": [
        {
          "internalType": "uint256",
          "name": "",
          "type": "uint256"
        }
      ],
      "stateMutability": "view",
      "type": "function"
    },
    {
      "inputs": [],
      "name": "PLATFORM_ADMIN",
      "outputs": [
        {
          "internalType": "bytes32",
          "name": "",
          "type": "bytes32"
        }
      ],
      "stateMutability": "view",
      "type": "function"
    },
    {
      "inputs": [],
      "name": "SUPER_ADMIN",
      "outputs": [
        {
          "internalType": "bytes32",
          "name": "",
          "type": "bytes32"
        }
      ],
      "stateMutability": "view",
      "type": "function"
    },
    {
      "inputs": [
        {
          "internalType": "uint256",
          "name": "_assetId",
          "type": "uint256"
        },
        {
          "internalType": "uint256",
          "name": "_finalLeaseLength",
          "type": "uint256"
        }
      ],
      "name": "acceptLease",
      "outputs": [],
      "stateMutability": "payable",
      "type": "function"
    },
    {
      "inputs": [
        {
          "internalType": "uint256",
          "name": "",
          "type": "uint256"
        }
      ],
      "name": "acceptedTokenSymbols",
      "outputs": [
        {
          "internalType": "bytes32",
          "name": "",
          "type": "bytes32"
        }
      ],
      "stateMutability": "view",
      "type": "function"
    },
    {
      "inputs": [
        {
          "internalType": "string",
          "name": "",
          "type": "string"
        }
      ],
      "name": "acceptedTokensBySymbol",
      "outputs": [
        {
          "internalType": "string",
          "name": "tokenSymbol",
          "type": "string"
        },
        {
          "internalType": "address",
          "name": "tokenAddress",
          "type": "address"
        },
        {
          "internalType": "bool",
          "name": "added",
          "type": "bool"
        }
      ],
      "stateMutability": "view",
      "type": "function"
    },
    {
      "inputs": [
        {
          "internalType": "address",
          "name": "newAdmin",
          "type": "address"
        }
      ],
      "name": "addPlatformAdmin",
      "outputs": [],
      "stateMutability": "nonpayable",
      "type": "function"
    },
    {
      "inputs": [
        {
          "internalType": "string",
          "name": "symbol",
          "type": "string"
        },
        {
          "internalType": "address",
          "name": "token",
          "type": "address"
        }
      ],
      "name": "addSupportedToken",
      "outputs": [],
      "stateMutability": "nonpayable",
      "type": "function"
    },
    {
      "inputs": [
        {
          "internalType": "uint256",
          "name": "_assetId",
          "type": "uint256"
        }
      ],
      "name": "adminRemoveLease",
      "outputs": [],
      "stateMutability": "nonpayable",
      "type": "function"
    },
    {
      "inputs": [
        {
          "internalType": "uint256",
          "name": "_assetId",
          "type": "uint256"
        },
        {
          "internalType": "address",
          "name": "_sendDepositTo",
          "type": "address"
        },
        {
          "internalType": "bool",
          "name": "malicious",
          "type": "bool"
        }
      ],
      "name": "adminTerminateLease",
      "outputs": [],
      "stateMutability": "nonpayable",
      "type": "function"
    },
    {
      "inputs": [
        {
          "internalType": "string",
          "name": "token",
          "type": "string"
        }
      ],
      "name": "adminWithdraw",
      "outputs": [],
      "stateMutability": "nonpayable",
      "type": "function"
    },
    {
      "inputs": [
        {
          "internalType": "uint256",
          "name": "",
          "type": "uint256"
        }
      ],
      "name": "allLeases",
      "outputs": [
        {
          "internalType": "address",
          "name": "lessor",
          "type": "address"
        },
        {
          "internalType": "address",
          "name": "lessee",
          "type": "address"
        },
        {
          "internalType": "uint256",
          "name": "assetId",
          "type": "uint256"
        }
      ],
      "stateMutability": "view",
      "type": "function"
    },
    {
      "inputs": [
        {
          "internalType": "address",
          "name": "landlord",
          "type": "address"
        },
        {
          "internalType": "uint8",
          "name": "count",
          "type": "uint8"
        }
      ],
      "name": "changeMalLandlordCount",
      "outputs": [],
      "stateMutability": "nonpayable",
      "type": "function"
    },
    {
      "inputs": [
        {
          "internalType": "uint256",
          "name": "newLimit",
          "type": "uint256"
        }
      ],
      "name": "changeMaliciousLimit",
      "outputs": [],
      "stateMutability": "nonpayable",
      "type": "function"
    },
    {
      "inputs": [
        {
          "components": [
            {
              "internalType": "address",
              "name": "lessor",
              "type": "address"
            },
            {
              "internalType": "address",
              "name": "lessee",
              "type": "address"
            },
            {
              "internalType": "uint256",
              "name": "assetId",
              "type": "uint256"
            }
          ],
          "internalType": "struct DclRentalStorage.Lease",
          "name": "newLease",
          "type": "tuple"
        },
        {
          "components": [
            {
              "internalType": "uint256",
              "name": "rentAmount",
              "type": "uint256"
            },
            {
              "internalType": "uint256",
              "name": "deposit",
              "type": "uint256"
            },
            {
              "internalType": "uint256",
              "name": "monthsPaid",
              "type": "uint256"
            },
            {
              "internalType": "uint256",
              "name": "gracePeriod",
              "type": "uint256"
            },
            {
              "internalType": "uint256",
              "name": "minLeaseLength",
              "type": "uint256"
            },
            {
              "internalType": "uint256",
              "name": "maxLeaseLength",
              "type": "uint256"
            },
            {
              "internalType": "uint256",
              "name": "finalLeaseLength",
              "type": "uint256"
            },
            {
              "internalType": "uint256",
              "name": "dateSigned",
              "type": "uint256"
            },
            {
              "internalType": "string",
              "name": "rentToken",
              "type": "string"
            },
            {
              "internalType": "bool",
              "name": "isOpen",
              "type": "bool"
            },
            {
              "internalType": "bool",
              "name": "isLeased",
              "type": "bool"
            },
            {
              "internalType": "bool",
              "name": "autoRegenerate",
              "type": "bool"
            }
          ],
          "internalType": "struct DclRentalStorage.LeaseDetail",
          "name": "newLeaseDetail",
          "type": "tuple"
        },
        {
          "internalType": "bool",
          "name": "isUpdate",
          "type": "bool"
        }
      ],
      "name": "createLease",
      "outputs": [],
      "stateMutability": "nonpayable",
      "type": "function"
    },
    {
      "inputs": [
        {
          "internalType": "string",
          "name": "",
          "type": "string"
        }
      ],
      "name": "depositsByTokenSymbol",
      "outputs": [
        {
          "internalType": "uint256",
          "name": "",
          "type": "uint256"
        }
      ],
      "stateMutability": "view",
      "type": "function"
    },
    {
      "inputs": [],
      "name": "getAcceptedTokenSymbols",
      "outputs": [
        {
          "internalType": "bytes32[]",
          "name": "tokenSymbols",
          "type": "bytes32[]"
        }
      ],
      "stateMutability": "view",
      "type": "function"
    },
    {
      "inputs": [
        {
          "internalType": "bytes32",
          "name": "role",
          "type": "bytes32"
        }
      ],
      "name": "getRoleAdmin",
      "outputs": [
        {
          "internalType": "bytes32",
          "name": "",
          "type": "bytes32"
        }
      ],
      "stateMutability": "view",
      "type": "function"
    },
    {
      "inputs": [
        {
          "internalType": "bytes32",
          "name": "role",
          "type": "bytes32"
        },
        {
          "internalType": "address",
          "name": "account",
          "type": "address"
        }
      ],
      "name": "grantRole",
      "outputs": [],
      "stateMutability": "nonpayable",
      "type": "function"
    },
    {
      "inputs": [
        {
          "internalType": "bytes32",
          "name": "role",
          "type": "bytes32"
        },
        {
          "internalType": "address",
          "name": "account",
          "type": "address"
        }
      ],
      "name": "hasRole",
      "outputs": [
        {
          "internalType": "bool",
          "name": "",
          "type": "bool"
        }
      ],
      "stateMutability": "view",
      "type": "function"
    },
    {
      "inputs": [
        {
          "internalType": "uint256",
          "name": "_assetId",
          "type": "uint256"
        }
      ],
      "name": "isLeaseCompleted",
      "outputs": [
        {
          "internalType": "bool",
          "name": "isCompleted",
          "type": "bool"
        }
      ],
      "stateMutability": "view",
      "type": "function"
    },
    {
      "inputs": [
        {
          "internalType": "uint256",
          "name": "_assetId",
          "type": "uint256"
        }
      ],
      "name": "isRentDue",
      "outputs": [
        {
          "internalType": "bool",
          "name": "rentDue",
          "type": "bool"
        }
      ],
      "stateMutability": "view",
      "type": "function"
    },
    {
      "inputs": [
        {
          "internalType": "uint256",
          "name": "_assetId",
          "type": "uint256"
        }
      ],
      "name": "isRentOverDue",
      "outputs": [
        {
          "internalType": "bool",
          "name": "",
          "type": "bool"
        }
      ],
      "stateMutability": "view",
      "type": "function"
    },
    {
      "inputs": [],
      "name": "landOperator",
      "outputs": [
        {
          "internalType": "address",
          "name": "",
          "type": "address"
        }
      ],
      "stateMutability": "view",
      "type": "function"
    },
    {
      "inputs": [
        {
          "internalType": "uint256",
          "name": "_assetId",
          "type": "uint256"
        }
      ],
      "name": "landlordCancelLease",
      "outputs": [],
      "stateMutability": "nonpayable",
      "type": "function"
    },
    {
      "inputs": [
        {
          "internalType": "address",
          "name": "",
          "type": "address"
        }
      ],
      "name": "landlordMaliciousCount",
      "outputs": [
        {
          "internalType": "uint256",
          "name": "",
          "type": "uint256"
        }
      ],
      "stateMutability": "view",
      "type": "function"
    },
    {
      "inputs": [
        {
          "internalType": "uint256",
          "name": "_assetId",
          "type": "uint256"
        }
      ],
      "name": "landlordRemoveLease",
      "outputs": [],
      "stateMutability": "nonpayable",
      "type": "function"
    },
    {
      "inputs": [
        {
          "internalType": "uint256",
          "name": "_assetId",
          "type": "uint256"
        }
      ],
      "name": "landlordTerminateLease",
      "outputs": [],
      "stateMutability": "nonpayable",
      "type": "function"
    },
    {
      "inputs": [
        {
          "internalType": "uint256",
          "name": "",
          "type": "uint256"
        }
      ],
      "name": "leaseByAssetId",
      "outputs": [
        {
          "internalType": "address",
          "name": "lessor",
          "type": "address"
        },
        {
          "internalType": "address",
          "name": "lessee",
          "type": "address"
        },
        {
          "internalType": "uint256",
          "name": "assetId",
          "type": "uint256"
        }
      ],
      "stateMutability": "view",
      "type": "function"
    },
    {
      "inputs": [],
      "name": "leaseCount",
      "outputs": [
        {
          "internalType": "uint256",
          "name": "",
          "type": "uint256"
        }
      ],
      "stateMutability": "view",
      "type": "function"
    },
    {
      "inputs": [
        {
          "internalType": "uint256",
          "name": "",
          "type": "uint256"
        }
      ],
      "name": "leaseDetailByAssetId",
      "outputs": [
        {
          "internalType": "uint256",
          "name": "rentAmount",
          "type": "uint256"
        },
        {
          "internalType": "uint256",
          "name": "deposit",
          "type": "uint256"
        },
        {
          "internalType": "uint256",
          "name": "monthsPaid",
          "type": "uint256"
        },
        {
          "internalType": "uint256",
          "name": "gracePeriod",
          "type": "uint256"
        },
        {
          "internalType": "uint256",
          "name": "minLeaseLength",
          "type": "uint256"
        },
        {
          "internalType": "uint256",
          "name": "maxLeaseLength",
          "type": "uint256"
        },
        {
          "internalType": "uint256",
          "name": "finalLeaseLength",
          "type": "uint256"
        },
        {
          "internalType": "uint256",
          "name": "dateSigned",
          "type": "uint256"
        },
        {
          "internalType": "string",
          "name": "rentToken",
          "type": "string"
        },
        {
          "internalType": "bool",
          "name": "isOpen",
          "type": "bool"
        },
        {
          "internalType": "bool",
          "name": "isLeased",
          "type": "bool"
        },
        {
          "internalType": "bool",
          "name": "autoRegenerate",
          "type": "bool"
        }
      ],
      "stateMutability": "view",
      "type": "function"
    },
    {
      "inputs": [
        {
          "internalType": "uint256",
          "name": "",
          "type": "uint256"
        }
      ],
      "name": "leaseIndexByAssetId",
      "outputs": [
        {
          "internalType": "uint256",
          "name": "",
          "type": "uint256"
        }
      ],
      "stateMutability": "view",
      "type": "function"
    },
    {
      "inputs": [],
      "name": "maliciousLimit",
      "outputs": [
        {
          "internalType": "uint256",
          "name": "",
          "type": "uint256"
        }
      ],
      "stateMutability": "view",
      "type": "function"
    },
    {
      "inputs": [],
      "name": "nftAddress",
      "outputs": [
        {
          "internalType": "address",
          "name": "",
          "type": "address"
        }
      ],
      "stateMutability": "view",
      "type": "function"
    },
    {
      "inputs": [],
      "name": "pause",
      "outputs": [],
      "stateMutability": "nonpayable",
      "type": "function"
    },
    {
      "inputs": [],
      "name": "paused",
      "outputs": [
        {
          "internalType": "bool",
          "name": "",
          "type": "bool"
        }
      ],
      "stateMutability": "view",
      "type": "function"
    },
    {
      "inputs": [
        {
          "internalType": "uint256",
          "name": "_assetId",
          "type": "uint256"
        }
      ],
      "name": "payRent",
      "outputs": [],
      "stateMutability": "payable",
      "type": "function"
    },
    {
      "inputs": [],
      "name": "platformFee",
      "outputs": [
        {
          "internalType": "uint256",
          "name": "",
          "type": "uint256"
        }
      ],
      "stateMutability": "view",
      "type": "function"
    },
    {
      "inputs": [
        {
          "internalType": "bytes32",
          "name": "role",
          "type": "bytes32"
        },
        {
          "internalType": "address",
          "name": "account",
          "type": "address"
        }
      ],
      "name": "renounceRole",
      "outputs": [],
      "stateMutability": "nonpayable",
      "type": "function"
    },
    {
      "inputs": [
        {
          "internalType": "bytes32",
          "name": "role",
          "type": "bytes32"
        },
        {
          "internalType": "address",
          "name": "account",
          "type": "address"
        }
      ],
      "name": "revokeRole",
      "outputs": [],
      "stateMutability": "nonpayable",
      "type": "function"
    },
    {
      "inputs": [
        {
          "internalType": "address",
          "name": "newAddress",
          "type": "address"
        }
      ],
      "name": "setNftAddress",
      "outputs": [],
      "stateMutability": "nonpayable",
      "type": "function"
    },
    {
      "inputs": [
        {
          "internalType": "bytes4",
          "name": "interfaceId",
          "type": "bytes4"
        }
      ],
      "name": "supportsInterface",
      "outputs": [
        {
          "internalType": "bool",
          "name": "",
          "type": "bool"
        }
      ],
      "stateMutability": "view",
      "type": "function"
    },
    {
      "inputs": [
        {
          "internalType": "uint256",
          "name": "_assetId",
          "type": "uint256"
        }
      ],
      "name": "tenantCancelLease",
      "outputs": [],
      "stateMutability": "nonpayable",
      "type": "function"
    },
    {
      "inputs": [],
      "name": "unpause",
      "outputs": [],
      "stateMutability": "nonpayable",
      "type": "function"
    },
    {
      "inputs": [
        {
          "internalType": "address",
          "name": "newOperator",
          "type": "address"
        }
      ],
      "name": "updateLandOperator",
      "outputs": [],
      "stateMutability": "nonpayable",
      "type": "function"
    },
    {
      "inputs": [
        {
          "internalType": "uint256",
          "name": "newFee",
          "type": "uint256"
        }
      ],
      "name": "updatePlatformFee",
      "outputs": [],
      "stateMutability": "nonpayable",
      "type": "function"
    }
  ],
  "bytecode": "0x600060028181556003829055600455608081905260a081905260c0819052600d80546001600160a01b0319908116909155600e80549091169055600f81905560e08181526101008290526101208290526101408290526101608290526101808290526101a08290526101c082905261028060408190526102608381526101e052610200839052610220839052610240839052601083815560118490556012849055601384905560148490556015849055601684905560178490559192620000c9916018916200039d565b5061012082015160099091018054610140840151610160909401511515620100000262ff0000199415156101000261ff00199415159490941661ffff199092169190911792909217929092161790553480156200012557600080fd5b50604051620064e7380380620064e7833981016040819052620001489162000443565b601b805460ff191690556001601c5562000172600080516020620064c7833981519152336200029e565b6200018d600080516020620064a7833981519152336200029e565b620001b7600080516020620064c7833981519152600080516020620064a7833981519152620002ae565b600180546001600160a01b038084166001600160a01b031992831617835560008054831633178155600b805494850181558152600d5460039094027f0175b7a638427703f0dbe7bb9bbf987a2551717b34e79f33b5b1008d1fa01db981018054851695841695909517909455600e547f0175b7a638427703f0dbe7bb9bbf987a2551717b34e79f33b5b1008d1fa01dba85018054909416921691909117909155600f547f0175b7a638427703f0dbe7bb9bbf987a2551717b34e79f33b5b1008d1fa01dbb909201919091556002805491620002928362000475565b919050555050620004dc565b620002aa8282620002f9565b5050565b6000828152601a6020526040808220600101805490849055905190918391839186917fbd79b86ffe0ab8e8776151514217cd7cacd52c909f66475c3af44e129f0b00ff9190a4505050565b6000828152601a602090815260408083206001600160a01b038516845290915290205460ff16620002aa576000828152601a602090815260408083206001600160a01b03851684529091529020805460ff19166001179055620003593390565b6001600160a01b0316816001600160a01b0316837f2f8788117e7eff1d82e926ec794901d17c78024a50270940304540a733656f0d60405160405180910390a45050565b828054620003ab906200049f565b90600052602060002090601f016020900481019282620003cf57600085556200041a565b82601f10620003ea57805160ff19168380011785556200041a565b828001600101855582156200041a579182015b828111156200041a578251825591602001919060010190620003fd565b50620004289291506200042c565b5090565b5b808211156200042857600081556001016200042d565b6000602082840312156200045657600080fd5b81516001600160a01b03811681146200046e57600080fd5b9392505050565b60006000198214156200049857634e487b7160e01b600052601160045260246000fd5b5060010190565b600181811c90821680620004b457607f821691505b60208210811415620004d657634e487b7160e01b600052602260045260246000fd5b50919050565b615fbb80620004ec6000396000f3fe6080604052600436106102935760003560e01c80638eec52b71161015a578063c1d0a7d8116100c1578063ea4554a91161007a578063ea4554a914610856578063ed88ed6c14610876578063ee67ba8d14610896578063ee74ebb2146108b6578063f1216b0a146108d6578063fbd3967b146108f357600080fd5b8063c1d0a7d814610778578063d02b19821461079a578063d547741f146107ba578063d9e8843f146107da578063dd011c15146107ed578063df5cd7181461080d57600080fd5b8063a217fddf11610113578063a217fddf146106c2578063a388f42f146106d7578063aa0b5988146106ea578063b4c0498b1461070a578063b744999614610720578063b890fe4b1461075857600080fd5b80638eec52b7146105f35780638f962adc1461061357806391d1485414610642578063973f26861461066257806397ae32a9146106825780639e6056da146106a257600080fd5b80634c60a0d4116101fe5780636bc19476116101b75780636bc194761461054b5780637c7c7c3c146105665780638456cb5914610588578063854310101461059d57806386621f4b146105bd5780638a0c6fd6146105d357600080fd5b80634c60a0d4146104615780634ffd964f146104995780635447c3ad146104bb5780635bf8633a146104db5780635c975abb1461051357806369c7bc1e1461052b57600080fd5b806326232a2e1161025057806326232a2e146103a95780632f2ff15d146103bf57806336568abe146103df5780633f4ba83a146103ff578063459f840b1461041457806346bb98841461043457600080fd5b80630139430e1461029857806301ffc9a7146102d857806303cbdd2f146103085780630b102d1a146103375780631272a91314610359578063248a9ca314610379575b600080fd5b3480156102a457600080fd5b506102c56102b3366004615232565b600a6020526000908152604090205481565b6040519081526020015b60405180910390f35b3480156102e457600080fd5b506102f86102f336600461524f565b610913565b60405190151581526020016102cf565b34801561031457600080fd5b50610328610323366004615369565b61094a565b6040516102cf939291906153fe565b34801561034357600080fd5b50610357610352366004615232565b610a0f565b005b34801561036557600080fd5b506102c5610374366004615431565b610a5e565b34801561038557600080fd5b506102c5610394366004615431565b6000908152601a602052604090206001015490565b3480156103b557600080fd5b506102c560035481565b3480156103cb57600080fd5b506103576103da36600461544a565b610a7f565b3480156103eb57600080fd5b506103576103fa36600461544a565b610aaa565b34801561040b57600080fd5b50610357610b2d565b34801561042057600080fd5b5061035761042f36600461547a565b610b51565b34801561044057600080fd5b506102c561044f366004615431565b60076020526000908152604090205481565b34801561046d57600080fd5b5061048161047c366004615431565b610ba0565b6040516102cf9c9b9a999897969594939291906154ae565b3480156104a557600080fd5b506104ae610c92565b6040516102cf919061551d565b3480156104c757600080fd5b506103576104d636600461557a565b610cea565b3480156104e757600080fd5b506001546104fb906001600160a01b031681565b6040516001600160a01b0390911681526020016102cf565b34801561051f57600080fd5b50601b5460ff166102f8565b34801561053757600080fd5b50610357610546366004615232565b610e4d565b34801561055757600080fd5b506102c566470de4df82000081565b34801561057257600080fd5b506102c5600080516020615f4683398151915281565b34801561059457600080fd5b50610357610e91565b3480156105a957600080fd5b506103576105b8366004615232565b610eb2565b3480156105c957600080fd5b506102c560045481565b3480156105df57600080fd5b506000546104fb906001600160a01b031681565b3480156105ff57600080fd5b5061035761060e366004615431565b610f01565b34801561061f57600080fd5b5061063361062e366004615431565b611197565b6040516102cf939291906155bc565b34801561064e57600080fd5b506102f861065d36600461544a565b6111d7565b34801561066e57600080fd5b5061035761067d366004615431565b611202565b34801561068e57600080fd5b506102f861069d366004615431565b611476565b3480156106ae57600080fd5b506103576106bd366004615431565b6114e0565b3480156106ce57600080fd5b506102c5600081565b6103576106e53660046155e0565b611797565b3480156106f657600080fd5b50610357610705366004615431565b611e0a565b34801561071657600080fd5b506102c560025481565b34801561072c57600080fd5b506102c561073b366004615369565b805160208183018101805160098252928201919093012091525481565b34801561076457600080fd5b50610357610773366004615369565b611e29565b34801561078457600080fd5b506102c5600080516020615f6683398151915281565b3480156107a657600080fd5b506103576107b5366004615431565b612245565b3480156107c657600080fd5b506103576107d536600461544a565b6125eb565b6103576107e8366004615431565b612611565b3480156107f957600080fd5b50610357610808366004615431565b612aa8565b34801561081957600080fd5b50610633610828366004615431565b6005602052600090815260409020805460018201546002909201546001600160a01b03918216929091169083565b34801561086257600080fd5b506102f8610871366004615431565b612bad565b34801561088257600080fd5b50610357610891366004615602565b612c24565b3480156108a257600080fd5b506103576108b1366004615649565b612d40565b3480156108c257600080fd5b506103576108d1366004615431565b6133ec565b3480156108e257600080fd5b506102c568056bc75e2d6310000081565b3480156108ff57600080fd5b506102f861090e366004615431565b61340b565b60006001600160e01b03198216637965db0b60e01b148061094457506301ffc9a760e01b6001600160e01b03198316145b92915050565b8051602081830181018051600882529282019190930120915280548190610970906157a1565b80601f016020809104026020016040519081016040528092919081815260200182805461099c906157a1565b80156109e95780601f106109be576101008083540402835291602001916109e9565b820191906000526020600020905b8154815290600101906020018083116109cc57829003601f168201915b505050600190930154919250506001600160a01b0381169060ff600160a01b9091041683565b600080516020615f66833981519152610a288133613489565b6001600160a01b038216610a3b57600080fd5b50600180546001600160a01b0319166001600160a01b0392909216919091179055565b600c8181548110610a6e57600080fd5b600091825260209091200154905081565b6000828152601a6020526040902060010154610a9b8133613489565b610aa583836134ed565b505050565b6001600160a01b0381163314610b1f5760405162461bcd60e51b815260206004820152602f60248201527f416363657373436f6e74726f6c3a2063616e206f6e6c792072656e6f756e636560448201526e103937b632b9903337b91039b2b63360891b60648201526084015b60405180910390fd5b610b298282613573565b5050565b600080516020615f46833981519152610b468133613489565b610b4e6135da565b50565b600080516020615f66833981519152610b6a8133613489565b6001600160a01b038316610b7d57600080fd5b506001600160a01b039091166000908152600a6020526040902060ff9091169055565b6006602052806000526040600020600091509050806000015490806001015490806002015490806003015490806004015490806005015490806006015490806007015490806008018054610bf3906157a1565b80601f0160208091040260200160405190810160405280929190818152602001828054610c1f906157a1565b8015610c6c5780601f10610c4157610100808354040283529160200191610c6c565b820191906000526020600020905b815481529060010190602001808311610c4f57829003601f168201915b5050506009909301549192505060ff80821691610100810482169162010000909104168c565b6060600c805480602002602001604051908101604052809291908181526020018280548015610ce057602002820191906000526020600020905b815481526020019060010190808311610ccc575b5050505050905090565b6002601c541415610d0d5760405162461bcd60e51b8152600401610b16906157d6565b6002601c55600080516020615f66833981519152610d2b8133613489565b6000848152600660205260409020600901548490610100900460ff16610d635760405162461bcd60e51b8152600401610b169061580d565b610d6d858561366d565b610d895760405162461bcd60e51b8152600401610b1690615844565b6000858152600560205260409020546001600160a01b03168315610dd557610db486600060016138ba565b610dd05760405162461bcd60e51b8152600401610b169061587b565b610dfe565b610de286600160006138ba565b610dfe5760405162461bcd60e51b8152600401610b169061587b565b604080518781526001600160a01b03831660208201527f0c3d7909f43909a0068b11879b7a209411c448caeda9fd8ba2bfd7f90440a41891015b60405180910390a150506001601c5550505050565b600080516020615f66833981519152610e668133613489565b6001600160a01b038216610e7957600080fd5b610b29600080516020615f6683398151915283613d50565b600080516020615f46833981519152610eaa8133613489565b610b4e613d5a565b600080516020615f66833981519152610ecb8133613489565b6001600160a01b038216610ede57600080fd5b50600080546001600160a01b0319166001600160a01b0392909216919091179055565b601b5460ff1615610f245760405162461bcd60e51b8152600401610b16906158aa565b6002601c541415610f475760405162461bcd60e51b8152600401610b16906157d6565b6002601c556000818152600660205260409020600901548190610100900460ff16610f845760405162461bcd60e51b8152600401610b169061580d565b81610f8e8161340b565b15610fab5760405162461bcd60e51b8152600401610b16906158d4565b6001546040516331a9108f60e11b81526004810185905284916001600160a01b031690636352211e9060240160206040518083038186803b158015610fef57600080fd5b505afa158015611003573d6000803e3d6000fd5b505050506040513d601f19601f82011682018060405250810190611027919061590b565b6000828152600560205260409020546001600160a01b039081169116146110605760405162461bcd60e51b8152600401610b1690615928565b6000848152600560205260409020600101546001600160a01b031633146110c95760405162461bcd60e51b815260206004820152601860248201527f6d73672e73656e646572206973206e6f742074656e616e7400000000000000006044820152606401610b16565b6000848152600560205260409020546110ec9085906001600160a01b031661366d565b6111085760405162461bcd60e51b8152600401610b1690615844565b61111584600160006138ba565b6111315760405162461bcd60e51b8152600401610b169061587b565b6000848152600560209081526040918290205482518781526001600160a01b03909116918101829052918201527f8ee536b695f3bf89b150a60c4570c9f2ddf0a24b591c4fbc7a618130173720ed906060015b60405180910390a150506001601c555050565b600b81815481106111a757600080fd5b60009182526020909120600390910201805460018201546002909201546001600160a01b03918216935091169083565b6000918252601a602090815260408084206001600160a01b0393909316845291905290205460ff1690565b601b5460ff16156112255760405162461bcd60e51b8152600401610b16906158aa565b6002601c5414156112485760405162461bcd60e51b8152600401610b16906157d6565b6002601c556000818152600660205260409020600901548190610100900460ff16156112865760405162461bcd60e51b8152600401610b1690615956565b600082815260066020526040902060090154829060ff166112b95760405162461bcd60e51b8152600401610b169061598d565b826112c38161340b565b156112e05760405162461bcd60e51b8152600401610b16906158d4565b600154604051634f558e7960e01b81526004810186905285916001600160a01b031690634f558e799060240160206040518083038186803b15801561132457600080fd5b505afa158015611338573d6000803e3d6000fd5b505050506040513d601f19601f8201168201806040525081019061135c91906159bd565b6113785760405162461bcd60e51b8152600401610b16906159da565b6001546040516331a9108f60e11b815260048101879052869133916001600160a01b0390911690636352211e9060240160206040518083038186803b1580156113c057600080fd5b505afa1580156113d4573d6000803e3d6000fd5b505050506040513d601f19601f820116820180604052508101906113f8919061590b565b6001600160a01b03161461141e5760405162461bcd60e51b8152600401610b1690615a11565b61142a866000806138ba565b6114465760405162461bcd60e51b8152600401610b169061587b565b6040518681527fc5af117645321e4904da30aa139f8216d355b2a30b77c59256226118dc82a94490602001610e38565b60004261148283613db2565b156114d15761149083612bad565b1561149e5750600192915050565b600083815260066020526040902060078101546002909101546114c19190613df7565b8111156114d15750600192915050565b50600092915050565b50919050565b601b5460ff16156115035760405162461bcd60e51b8152600401610b16906158aa565b6002601c5414156115265760405162461bcd60e51b8152600401610b16906157d6565b6002601c556000818152600660205260409020600901548190610100900460ff166115635760405162461bcd60e51b8152600401610b169061580d565b8161156d8161340b565b1561158a5760405162461bcd60e51b8152600401610b16906158d4565b6001546040516331a9108f60e11b815260048101859052849133916001600160a01b0390911690636352211e9060240160206040518083038186803b1580156115d257600080fd5b505afa1580156115e6573d6000803e3d6000fd5b505050506040513d601f19601f8201168201806040525081019061160a919061590b565b6001600160a01b0316146116305760405162461bcd60e51b8152600401610b1690615a11565b6001546040516331a9108f60e11b81526004810186905285916001600160a01b031690636352211e9060240160206040518083038186803b15801561167457600080fd5b505afa158015611688573d6000803e3d6000fd5b505050506040513d601f19601f820116820180604052508101906116ac919061590b565b6000828152600560205260409020546001600160a01b039081169116146116e55760405162461bcd60e51b8152600401610b1690615928565b6116ee85612bad565b6117315760405162461bcd60e51b815260206004820152601460248201527352656e74206973206e6f74206f7665722064756560601b6044820152606401610b16565b6000858152600560205260409020546117549086906001600160a01b031661366d565b6117705760405162461bcd60e51b8152600401610b1690615844565b6000858152600560205260408120546001600160a01b031690610de29087906001906138ba565b601b5460ff16156117ba5760405162461bcd60e51b8152600401610b16906158aa565b6000828152600660205260409020600901548290610100900460ff16156117f35760405162461bcd60e51b8152600401610b1690615956565b600083815260066020526040902060090154839060ff166118265760405162461bcd60e51b8152600401610b169061598d565b6001546040516331a9108f60e11b81526004810186905285916001600160a01b031690636352211e9060240160206040518083038186803b15801561186a57600080fd5b505afa15801561187e573d6000803e3d6000fd5b505050506040513d601f19601f820116820180604052508101906118a2919061590b565b6000828152600560205260409020546001600160a01b039081169116146118db5760405162461bcd60e51b8152600401610b1690615928565b600085815260066020526040902060040154841080159061190d57506000858152600660205260409020600501548411155b6119595760405162461bcd60e51b815260206004820152601c60248201527f4c65617365206c656e677468206973206f7574206f662072616e6765000000006044820152606401610b16565b6001546040516331a9108f60e11b81526004810187905233916001600160a01b031690636352211e9060240160206040518083038186803b15801561199d57600080fd5b505afa1580156119b1573d6000803e3d6000fd5b505050506040513d601f19601f820116820180604052508101906119d5919061590b565b6001600160a01b03161415611a2c5760405162461bcd60e51b815260206004820152601c60248201527f6d73672e73656e646572206d757374206e6f74206265206f776e6572000000006044820152606401610b16565b6000604051602001611a3d90615a48565b60408051601f19818403018152828252805160209182012060008a815260068352929092209192611a72926008019101615a57565b604051602081830303815290604052805190602001201415611afd5750600085815260066020526040902060018101549054333191611ab091615adf565b341015611af85760405162461bcd60e51b815260206004820152601660248201527508aa89040e6cadce840d2e640dcdee840cadcdeeaced60531b6044820152606401610b16565b611bab565b600860066000888152602001908152602001600020600801604051611b229190615a57565b908152604051908190036020018120600101546370a0823160e01b82523360048301526001600160a01b0316906370a082319060240160206040518083038186803b158015611b7057600080fd5b505afa158015611b84573d6000803e3d6000fd5b505050506040513d601f19601f82011682018060405250810190611ba89190615af7565b90505b600086815260066020526040902060018101549054611bca9190615adf565b811015611be95760405162461bcd60e51b8152600401610b1690615b10565b600086815260056020908152604080832060010180546001600160a01b0319163317905560069182905282206002810183905560098101805461ffff191661010017905542600782015501869055546001600160a01b031615611caf57600154600054604051630585816360e51b8152600481018990526001600160a01b03918216602482015291169063b0b02c6090604401600060405180830381600087803b158015611c9657600080fd5b505af1158015611caa573d6000803e3d6000fd5b505050505b6000868152600560209081526040808320600790925290912054600b80549091908110611cde57611cde615b3c565b60009182526020909120825460039092020180546001600160a01b039283166001600160a01b0319918216178255600180850154908301805491909416911617909155600291820154910155611d3386613ece565b611d785760405162461bcd60e51b815260206004820152601660248201527511985a5b1959081d1bc81b585ad94819195c1bdcda5d60521b6044820152606401610b16565b611d818661414a565b611dc25760405162461bcd60e51b815260206004820152601260248201527111985a5b1959081d1bc81c185e481c995b9d60721b6044820152606401610b16565b604080518781523360208201529081018690527f94979a671533443f713c18fbc36274386c465d7e9fd6fd34e122f34a2146edcc9060600160405180910390a1505050505050565b600080516020615f66833981519152611e238133613489565b50600355565b6002601c541415611e4c5760405162461bcd60e51b8152600401610b16906157d6565b6002601c55600080516020615f46833981519152611e6a8133613489565b600882604051611e7a9190615b52565b9081526040519081900360200190206001015460ff600160a01b90910416611edc5760405162461bcd60e51b8152602060048201526015602482015274151bdad95b881a5cc81b9bdd081858d8d95c1d1959605a1b6044820152606401610b16565b604051602001611eeb90615a48565b6040516020818303038152906040528051906020012082604051602001611f129190615b52565b604051602081830303815290604052805190602001201415611fcd576040514790600990611f41908590615b52565b90815260200160405180910390205481611f5b9190615b6e565b604051909150600090339083908381818185875af1925050503d8060008114611fa0576040519150601f19603f3d011682016040523d82523d6000602084013e611fa5565b606091505b5050905080611fc65760405162461bcd60e51b8152600401610b1690615b85565b505061223c565b670de0b6b3a7640000600883604051611fe69190615b52565b908152604051908190036020018120600101546370a0823160e01b82523060048301526001600160a01b0316906370a082319060240160206040518083038186803b15801561203457600080fd5b505afa158015612048573d6000803e3d6000fd5b505050506040513d601f19601f8201168201806040525081019061206c9190615af7565b116120b95760405162461bcd60e51b815260206004820152601b60248201527f436f6e74726163742062616c616e636520697320746f6f206c6f7700000000006044820152606401610b16565b60006008836040516120cb9190615b52565b908152604051908190036020018120600101546370a0823160e01b82523060048301526001600160a01b0316906370a082319060240160206040518083038186803b15801561211957600080fd5b505afa15801561212d573d6000803e3d6000fd5b505050506040513d601f19601f820116820180604052508101906121519190615af7565b90506009836040516121639190615b52565b9081526020016040518091039020548161217d9190615b6e565b905060088360405161218f9190615b52565b9081526040519081900360200181206001015463a9059cbb60e01b8252336004830152602482018390526001600160a01b03169063a9059cbb90604401602060405180830381600087803b1580156121e657600080fd5b505af11580156121fa573d6000803e3d6000fd5b505050506040513d601f19601f8201168201806040525081019061221e91906159bd565b61223a5760405162461bcd60e51b8152600401610b1690615bae565b505b50506001601c55565b601b5460ff16156122685760405162461bcd60e51b8152600401610b16906158aa565b6002601c54141561228b5760405162461bcd60e51b8152600401610b16906157d6565b6002601c556000818152600660205260409020600901548190610100900460ff166122c85760405162461bcd60e51b8152600401610b169061580d565b600154604051634f558e7960e01b81526004810184905283916001600160a01b031690634f558e799060240160206040518083038186803b15801561230c57600080fd5b505afa158015612320573d6000803e3d6000fd5b505050506040513d601f19601f8201168201806040525081019061234491906159bd565b6123605760405162461bcd60e51b8152600401610b16906159da565b6001546040516331a9108f60e11b815260048101859052849133916001600160a01b0390911690636352211e9060240160206040518083038186803b1580156123a857600080fd5b505afa1580156123bc573d6000803e3d6000fd5b505050506040513d601f19601f820116820180604052508101906123e0919061590b565b6001600160a01b0316146124065760405162461bcd60e51b8152600401610b1690615a11565b60008481526006602052604090206009015460ff16156124685760405162461bcd60e51b815260206004820152601a60248201527f546865206c65617365206d757374206e6f74206265206f70656e0000000000006044820152606401610b16565b6001546040516331a9108f60e11b8152600481018690526001600160a01b0390911690636352211e9060240160206040518083038186803b1580156124ac57600080fd5b505afa1580156124c0573d6000803e3d6000fd5b505050506040513d601f19601f820116820180604052508101906124e4919061590b565b6000858152600560205260409020546001600160a01b0390811691161461251d5760405162461bcd60e51b8152600401610b1690615928565b6000848152600560205260409020600101546125439085906001600160a01b031661366d565b61255f5760405162461bcd60e51b8152600401610b1690615844565b61256c84600060016138ba565b6125885760405162461bcd60e51b8152600401610b169061587b565b600084815260056020908152604091829020805460019091015483518881526001600160a01b039283169381019390935216918101919091527f8ee536b695f3bf89b150a60c4570c9f2ddf0a24b591c4fbc7a618130173720ed90606001611184565b6000828152601a60205260409020600101546126078133613489565b610aa58383613573565b601b5460ff16156126345760405162461bcd60e51b8152600401610b16906158aa565b6002601c5414156126575760405162461bcd60e51b8152600401610b16906157d6565b6002601c556000818152600660205260409020600901548190610100900460ff166126945760405162461bcd60e51b8152600401610b169061580d565b6001546040516331a9108f60e11b81526004810184905283916001600160a01b031690636352211e9060240160206040518083038186803b1580156126d857600080fd5b505afa1580156126ec573d6000803e3d6000fd5b505050506040513d601f19601f82011682018060405250810190612710919061590b565b6000828152600560205260409020546001600160a01b039081169116146127495760405162461bcd60e51b8152600401610b1690615928565b600154604051634f558e7960e01b81526004810185905284916001600160a01b031690634f558e799060240160206040518083038186803b15801561278d57600080fd5b505afa1580156127a1573d6000803e3d6000fd5b505050506040513d601f19601f820116820180604052508101906127c591906159bd565b6127e15760405162461bcd60e51b8152600401610b16906159da565b6008600660008681526020019081526020016000206008016040516128069190615a57565b9081526040519081900360200190206001015460ff600160a01b9091041680612886575060405160200161283990615a48565b60408051601f19818403018152828252805160209182012060008881526006835292909220919261286e926008019101615a57565b60405160208183030381529060405280519060200120145b6128c85760405162461bcd60e51b8152602060048201526013602482015272151bdad95b881b9bdd081cdd5c1c1bdc9d1959606a1b6044820152606401610b16565b60008481526006602052604090206009015460ff161561292a5760405162461bcd60e51b815260206004820152601a60248201527f546865206c65617365206d757374206e6f74206265206f70656e0000000000006044820152606401610b16565b6000848152600560205260409020600101546001600160a01b03163314806129655750612965600080516020615f66833981519152336111d7565b6129b15760405162461bcd60e51b815260206004820152601c60248201527f6d73672e73656e646572206973206e6f7420617574686f7269736564000000006044820152606401610b16565b60008481526006602081905260409091209081015460029091015410612a0c5760405162461bcd60e51b815260206004820152601060248201526f14995b9d081a5cc8185b1b081c185a5960821b6044820152606401610b16565b612a1584611476565b612a535760405162461bcd60e51b815260206004820152600f60248201526e52656e74206973206e6f742064756560881b6044820152606401610b16565b612a5c8461414a565b612a9d5760405162461bcd60e51b815260206004820152601260248201527111985a5b1959081d1bc81c185e481c995b9d60721b6044820152606401610b16565b50506001601c555050565b6002601c541415612acb5760405162461bcd60e51b8152600401610b16906157d6565b6002601c55600080516020615f66833981519152612ae98133613489565b6000828152600660205260409020600901548290610100900460ff1615612b225760405162461bcd60e51b8152600401610b1690615956565b600083815260066020526040902060090154839060ff16612b555760405162461bcd60e51b8152600401610b169061598d565b612b61846000806138ba565b612b7d5760405162461bcd60e51b8152600401610b169061587b565b6040518481527fc5af117645321e4904da30aa139f8216d355b2a30b77c59256226118dc82a94490602001611184565b600042612bb983613db2565b156114d15760008381526006602081905260409091209081015460029091015410612be75750600092915050565b600083815260066020526040902060078101546002909101546114c191612c0d91613df7565b6000858152600660205260409020600301546147a7565b600080516020615f66833981519152612c3d8133613489565b6001600160a01b038216612c5057600080fd5b600883604051612c609190615b52565b9081526040519081900360200190206001015460ff600160a01b90910416610aa557604080516060810182528481526001600160a01b03841660208201526001818301529051600890612cb4908690615b52565b90815260200160405180910390206000820151816000019080519060200190612cde929190615109565b506020820151600190910180546040909301511515600160a01b026001600160a81b03199093166001600160a01b0390921691909117919091179055600c612d25846147cf565b81546001810183556000928352602090922090910155505050565b601b5460ff1615612d635760405162461bcd60e51b8152600401610b16906158aa565b6040838101516001549151634f558e7960e01b81526004810182905290916001600160a01b031690634f558e799060240160206040518083038186803b158015612dac57600080fd5b505afa158015612dc0573d6000803e3d6000fd5b505050506040513d601f19601f82011682018060405250810190612de491906159bd565b612e005760405162461bcd60e51b8152600401610b16906159da565b6008836101000151604051612e159190615b52565b9081526040519081900360200190206001015460ff600160a01b9091041680612e8c5750604051602001612e4890615a48565b60405160208183030381529060405280519060200120836101000151604051602001612e749190615b52565b60405160208183030381529060405280519060200120145b612ed05760405162461bcd60e51b8152602060048201526015602482015274151bdad95b881a5cc81b9bdd081858d8d95c1d1959605a1b6044820152606401610b16565b8115612f345760408085015160009081526006602052206009015460ff16612f2f5760405162461bcd60e51b81526020600482015260126024820152712632b0b9b29036bab9ba1031329037b832b760711b6044820152606401610b16565b612fb1565b604080850151600090815260066020522060090154610100900460ff161580612f655750612f65846040015161340b565b612fb15760405162461bcd60e51b815260206004820152601860248201527f4173736574206d757374206e6f74206265206c656173656400000000000000006044820152606401610b16565b82608001518360a0015110156130095760405162461bcd60e51b815260206004820181905260248201527f4d696e206d757374206e6f742062652067726561746572207468616e206d61786044820152606401610b16565b60015460408581015190516331a9108f60e11b8152600481019190915233916001600160a01b031690636352211e9060240160206040518083038186803b15801561305357600080fd5b505afa158015613067573d6000803e3d6000fd5b505050506040513d601f19601f8201168201806040525081019061308b919061590b565b6001600160a01b031614806130b357506130b3600080516020615f66833981519152336111d7565b6130ff5760405162461bcd60e51b815260206004820152601c60248201527f6d73672e73656e646572206973206e6f7420617574686f7269736564000000006044820152606401610b16565b60015460405163e985e9c560e01b81523360048201523060248201526001600160a01b039091169063e985e9c59060440160206040518083038186803b15801561314857600080fd5b505afa15801561315c573d6000803e3d6000fd5b505050506040513d601f19601f8201168201806040525081019061318091906159bd565b6131cc5760405162461bcd60e51b815260206004820152601a60248201527f4d75737420617070726f7665207468697320636f6e74726163740000000000006044820152606401610b16565b600454336000908152600a6020526040902054111561322d5760405162461bcd60e51b815260206004820152601b60248201527f4d616c6963696f757320636f756e7420697320746f6f206869676800000000006044820152606401610b16565b61323784846147eb565b61327c5760405162461bcd60e51b81526020600482015260166024820152754661696c656420746f20637265617465206c6561736560501b6044820152606401610b16565b8115801561329457506000546001600160a01b031615155b15613308576001546040858101516000549151630585816360e51b815260048101919091526001600160a01b03918216602482015291169063b0b02c6090604401600060405180830381600087803b1580156132ef57600080fd5b505af1158015613303573d6000803e3d6000fd5b505050505b811561337c577f49225b30033615489e3c45f15d5b57530db0939b836a336c5cdea2de438f0dbb8460400151338560000151866020015187608001518860a0015189606001518a61010001518b610160015160405161336f99989796959493929190615be5565b60405180910390a16133e6565b7f6019f210902bfdea4604ffe72d044a31a1f956052fc767a24d4566530d3180778460400151338560000151866020015187608001518860a0015189606001518a61010001518b61016001516040516133dd99989796959493929190615be5565b60405180910390a15b50505050565b600080516020615f668339815191526134058133613489565b50600455565b600081815260066020526040812060090154610100900460ff161561347c576000828152600660208190526040909120908101546002909101541061347c576000828152600660208190526040909120600781015491015461346d9190613df7565b42111561347c57506001919050565b506000919050565b919050565b61349382826111d7565b610b29576134ab816001600160a01b03166014614b6c565b6134b6836020614b6c565b6040516020016134c7929190615c45565b60408051601f198184030181529082905262461bcd60e51b8252610b1691600401615cba565b6134f782826111d7565b610b29576000828152601a602090815260408083206001600160a01b03851684529091529020805460ff1916600117905561352f3390565b6001600160a01b0316816001600160a01b0316837f2f8788117e7eff1d82e926ec794901d17c78024a50270940304540a733656f0d60405160405180910390a45050565b61357d82826111d7565b15610b29576000828152601a602090815260408083206001600160a01b0385168085529252808320805460ff1916905551339285917ff6391f5c32d9c69d2a47ea670b442974b53935d1edc7fd64eb21e047a839171b9190a45050565b601b5460ff166136235760405162461bcd60e51b815260206004820152601460248201527314185d5cd8589b194e881b9bdd081c185d5cd95960621b6044820152606401610b16565b601b805460ff191690557f5db9ee0a495bf2e6ff9c91a7834c1ba4fdd244a5e8aa4e537bd38aeae4b073aa335b6040516001600160a01b03909116815260200160405180910390a1565b60006001600160a01b03821661368257600080fd5b600083815260066020526040902060010154156138b15760008381526006602052604090819020600181015491516009916136c291600890910190615a57565b908152602001604051809103902060008282546136df9190615b6e565b90915550506040516136f390602001615a48565b60408051601f198184030181528282528051602091820120600087815260068352929092209192613728926008019101615a57565b6040516020818303038152906040528051906020012014156137c9576000838152600660205260408082206001015490516001600160a01b03851691908381818185875af1925050503d806000811461379d576040519150601f19603f3d011682016040523d82523d6000602084013e6137a2565b606091505b50509050806137c35760405162461bcd60e51b8152600401610b1690615b85565b506138b1565b6008600660008581526020019081526020016000206008016040516137ee9190615a57565b9081526040805191829003602090810183206001908101546000888152600690935292909120015463a9059cbb60e01b83526001600160a01b0385811660048501526024840191909152169063a9059cbb90604401602060405180830381600087803b15801561385d57600080fd5b505af1158015613871573d6000803e3d6000fd5b505050506040513d601f19601f8201168201806040525081019061389591906159bd565b6138b15760405162461bcd60e51b8152600401610b1690615bae565b50600192915050565b6000838152600560205260408120546001600160a01b03168315613ae05760008581526006602052604090206009015462010000900460ff16156139c5576000858152600560209081526040808320600190810180546001600160a01b03191690556006928390529083206007810184905560098101805461ffff19169092179091556002810183905501819055546001600160a01b0316156139c057600154600054604051630585816360e51b8152600481018890526001600160a01b03918216602482015291169063b0b02c6090604401600060405180830381600087803b1580156139a757600080fd5b505af11580156139bb573d6000803e3d6000fd5b505050505b613bf7565b60008581526006602081905260409091206010805482556011546001830155601254600283015560135460038301556014546004830155601554600583015560165492820192909255601754600782015560188054600883019190613a29906157a1565b613a3492919061518d565b506009918201805491909201805460ff19811660ff93841615159081178355845461ffff1990921661ff001990911617610100918290048416151590910217808255925462ff000019909316620100009384900490921615159092021790556000858152600560205260409020600d5481546001600160a01b039182166001600160a01b0319918216178355600e54600184018054919093169116179055600f54600290910155613bf7565b60008581526006602081905260409091206010805482556011546001830155601254600283015560135460038301556014546004830155601554600583015560165492820192909255601754600782015560188054600883019190613b44906157a1565b613b4f92919061518d565b506009918201805491909201805460ff19811660ff93841615159081178355845461ffff1990921661ff001990911617610100918290048416151590910217808255925462ff000019909316620100009384900490921615159092021790556000858152600560205260409020600d5481546001600160a01b039182166001600160a01b0319918216178355600e54600184018054919093169116179055600f546002909101555b8215613cc757613c05614d0f565b8015613c1b57506000546001600160a01b031615155b15613c8957600154600054604051630585816360e51b8152600481018890526001600160a01b03918216602482015291169063b0b02c6090604401600060405180830381600087803b158015613c7057600080fd5b505af1158015613c84573d6000803e3d6000fd5b505050505b6001600160a01b0381166000908152600a6020526040902054613cad906001615adf565b6001600160a01b0382166000908152600a60205260409020555b6000858152600560209081526040808320600790925290912054600b80549091908110613cf657613cf6615b3c565b60009182526020909120825460039092020180546001600160a01b03199081166001600160a01b03938416178255600180850154818401805490931694169390931790556002928301549201919091559150509392505050565b610b2982826134ed565b601b5460ff1615613d7d5760405162461bcd60e51b8152600401610b16906158aa565b601b805460ff191660011790557f62e78cea01bee320cd4e420270b5ea74000d11b0c9f74754ebdbfc544b05a2586136503390565b600081815260066020526040812060090154610100900460ff168015613dea575060008281526006602052604090206009015460ff16155b1561347c57506001919050565b6000808080613e11613e0c6201518088615ce3565b614d96565b91945092509050613e228583615adf565b9150600c613e31600184615b6e565b613e3b9190615ce3565b613e459084615adf565b9250600c613e54600184615b6e565b613e5e9190615cf7565b613e69906001615adf565b91506000613e778484614f0a565b905080821115613e85578091505b613e926201518088615cf7565b62015180613ea1868686614f90565b613eab9190615d0b565b613eb59190615adf565b945086851015613ec457600080fd5b5050505092915050565b60008181526006602052604081206001015480156138b157604051602001613ef590615a48565b60408051601f198184030181528282528051602091820120600087815260068352929092209192613f2a926008019101615a57565b60405160208183030381529060405280519060200120146140f9576000838152600660205260408082209051600891613f669190830190615a57565b908152604051908190036020018120600101546370a0823160e01b82523360048301526001600160a01b0316906370a082319060240160206040518083038186803b158015613fb457600080fd5b505afa158015613fc8573d6000803e3d6000fd5b505050506040513d601f19601f82011682018060405250810190613fec9190615af7565b90508181101561400e5760405162461bcd60e51b8152600401610b1690615b10565b6008600660008681526020019081526020016000206008016040516140339190615a57565b908152604080519182900360209081018320600190810154600089815260059093529290912001546323b872dd60e01b83526001600160a01b03918216926323b872dd92614089921690309087906004016155bc565b602060405180830381600087803b1580156140a357600080fd5b505af11580156140b7573d6000803e3d6000fd5b505050506040513d601f19601f820116820180604052508101906140db91906159bd565b6140f75760405162461bcd60e51b8152600401610b1690615bae565b505b8060096006600086815260200190815260200160002060080160405161411f9190615a57565b9081526020016040518091039020600082825461413c9190615adf565b909155505050600192915050565b6003546000828152600660205260408120549091829160649161416c91615d0b565b6141769190615ce3565b60008481526006602052604081205491925090614194908390615b6e565b905060006040516020016141a790615a48565b60408051601f1981840301815282825280516020918201206000898152600683529290922091926141dc926008019101615a57565b60405160208183030381529060405280519060200120141561434a57506000848152600560209081526040808320600101546006909252909120546001600160a01b0390911631908110156142435760405162461bcd60e51b8152600401610b1690615b10565b60008581526006602052604090205434101561427b5760405162461bcd60e51b81526020600482015260006024820152604401610b16565b34828110156142c55760405162461bcd60e51b815260206004820152601660248201527508aa89040e6cadce840d2e640dcdee840cadcdeeaced60531b6044820152606401610b16565b6000868152600560205260408082205490516001600160a01b039091169085908381818185875af1925050503d806000811461431d576040519150601f19603f3d011682016040523d82523d6000602084013e614322565b606091505b50509050806143435760405162461bcd60e51b8152600401610b1690615b85565b5050614614565b60086006600087815260200190815260200160002060080160405161436f9190615a57565b90815260408051918290036020908101832060019081015460008a815260059093529290912001546370a0823160e01b83526001600160a01b03908116600484015216906370a082319060240160206040518083038186803b1580156143d457600080fd5b505afa1580156143e8573d6000803e3d6000fd5b505050506040513d601f19601f8201168201806040525081019061440c9190615af7565b60008681526006602052604090205490915081101561443d5760405162461bcd60e51b8152600401610b1690615b10565b6008600660008781526020019081526020016000206008016040516144629190615a57565b90815260408051918290036020908101832060019081015460008a81526005909352929091209081015490546323b872dd60e01b84526001600160a01b03928316936323b872dd936144bd93811692169087906004016155bc565b602060405180830381600087803b1580156144d757600080fd5b505af11580156144eb573d6000803e3d6000fd5b505050506040513d601f19601f8201168201806040525081019061450f91906159bd565b61452b5760405162461bcd60e51b8152600401610b1690615bae565b6008600660008781526020019081526020016000206008016040516145509190615a57565b90815260408051918290036020908101832060019081015460008a815260059093529290912001546323b872dd60e01b83526001600160a01b03918216926323b872dd926145a6921690309088906004016155bc565b602060405180830381600087803b1580156145c057600080fd5b505af11580156145d4573d6000803e3d6000fd5b505050506040513d601f19601f820116820180604052508101906145f891906159bd565b6146145760405162461bcd60e51b8152600401610b1690615bae565b600085815260066020526040902060020154614631906001615adf565b60008681526006602081905260409091200154141561468c576000858152600560205260409020600101546146709086906001600160a01b031661366d565b61468c5760405162461bcd60e51b8152600401610b1690615844565b60008581526006602052604081206002018054600192906146ae908490615adf565b90915550506000858152600560209081526040808320600790925290912054600b805490919081106146e2576146e2615b3c565b60009182526020808320845460039093020180546001600160a01b03199081166001600160a01b039485161782556001808701548184018054909316908616179091556002958601549186019190915589845260058252604080852091820154915460069093529384902080549581015494517fd0ae3532bac7c50645a1adead923185c33dc828869c9de0871ec4e3837a164b396614794968d96948516959094169390929091600890910190615d2a565b60405180910390a1506001949350505050565b60006147b66201518083615d0b565b6147c09084615adf565b90508281101561094457600080fd5b60008151600014156147e357506000919050565b506020015190565b60006040516020016147fc90615a48565b604051602081830303815290604052805190602001208261010001516040516020016148289190615b52565b604051602081830303815290604052805190602001201461486257815168056bc75e2d63100000111561485d57506000610944565b61487a565b815166470de4df820000111561487a57506000610944565b6040808401516000908152600660208181529183902085518155828601516001820155928501516002840155606085015160038401556080850151600484015560a0850151600584015560c08501519083015560e0840151600783015561010084015180518593926148f3926008850192910190615109565b5061012082015160099182018054610140850151610160909501511515620100000262ff0000199515156101000261ff0019941515851661ffff199093169290921791909117949094169390931790925560408086018051600090815260066020818152848320600790810184905584518452858420600290810185905585518552868520909301849055845184528584208701805460ff1916600190811790915585518552868520909701805490981690975583518352600581528483208a5181546001600160a01b039182166001600160a01b0319918216178355838d0151838a01805491909316908216179091558551919093018190558352848320909501805490911690559051815292909152902054614aeb57600b80546001810182556000918252845160039091027f0175b7a638427703f0dbe7bb9bbf987a2551717b34e79f33b5b1008d1fa01db9810180546001600160a01b039384166001600160a01b0319918216179091556020808801517f0175b7a638427703f0dbe7bb9bbf987a2551717b34e79f33b5b1008d1fa01dba84018054919095169216919091179092556040808701517f0175b7a638427703f0dbe7bb9bbf987a2551717b34e79f33b5b1008d1fa01dbb909201829055600280549285526007909352832081905591614ae183615de0565b91905055506138b1565b604080840151600090815260076020522054600b80548592908110614b1257614b12615b3c565b6000918252602091829020835160039092020180546001600160a01b039283166001600160a01b03199182161782559284015160018201805491909316931692909217905560409091015160029091015550600192915050565b60606000614b7b836002615d0b565b614b86906002615adf565b67ffffffffffffffff811115614b9e57614b9e615279565b6040519080825280601f01601f191660200182016040528015614bc8576020820181803683370190505b509050600360fc1b81600081518110614be357614be3615b3c565b60200101906001600160f81b031916908160001a905350600f60fb1b81600181518110614c1257614c12615b3c565b60200101906001600160f81b031916908160001a9053506000614c36846002615d0b565b614c41906001615adf565b90505b6001811115614cb9576f181899199a1a9b1b9c1cb0b131b232b360811b85600f1660108110614c7557614c75615b3c565b1a60f81b828281518110614c8b57614c8b615b3c565b60200101906001600160f81b031916908160001a90535060049490941c93614cb281615dfb565b9050614c44565b508315614d085760405162461bcd60e51b815260206004820181905260248201527f537472696e67733a20686578206c656e67746820696e73756666696369656e746044820152606401610b16565b9392505050565b60015460405163e985e9c560e01b81523360048201523060248201526000916001600160a01b03169063e985e9c59060440160206040518083038186803b158015614d5957600080fd5b505afa158015614d6d573d6000803e3d6000fd5b505050506040513d601f19601f82011682018060405250810190614d9191906159bd565b905090565b60008080838162253d8c614dad8362010bd9615e12565b614db79190615e12565b9050600062023ab1614dca836004615e53565b614dd49190615ed8565b90506004614de58262023ab1615e53565b614df0906003615e12565b614dfa9190615ed8565b614e049083615f06565b9150600062164b09614e17846001615e12565b614e2390610fa0615e53565b614e2d9190615ed8565b90506004614e3d826105b5615e53565b614e479190615ed8565b614e519084615f06565b614e5c90601f615e12565b9250600061098f614e6e856050615e53565b614e789190615ed8565b905060006050614e8a8361098f615e53565b614e949190615ed8565b614e9e9086615f06565b9050614eab600b83615ed8565b9450614eb885600c615e53565b614ec3836002615e12565b614ecd9190615f06565b91508483614edc603187615f06565b614ee7906064615e53565b614ef19190615e12565b614efb9190615e12565b9a919950975095505050505050565b60008160011480614f1b5750816003145b80614f265750816005145b80614f315750816007145b80614f3c5750816008145b80614f47575081600a145b80614f52575081600c145b15614f5f5750601f610944565b81600214614f6f5750601e610944565b614f78836150cd565b614f8357601c614f86565b601d5b60ff169392505050565b60006107b2841015614fa157600080fd5b838383600062253d8c60046064600c614fbb600e88615f06565b614fc59190615ed8565b614fd188611324615e12565b614fdb9190615e12565b614fe59190615ed8565b614ff0906003615e53565b614ffa9190615ed8565b600c80615008600e88615f06565b6150129190615ed8565b61501d90600c615e53565b615028600288615f06565b6150329190615f06565b61503e9061016f615e53565b6150489190615ed8565b6004600c615057600e89615f06565b6150619190615ed8565b61506d896112c0615e12565b6150779190615e12565b615083906105b5615e53565b61508d9190615ed8565b615099617d4b87615f06565b6150a39190615e12565b6150ad9190615e12565b6150b79190615f06565b6150c19190615f06565b98975050505050505050565b60006150da600483615cf7565b1580156150f057506150ed606483615cf7565b15155b80610944575061510261019083615cf7565b1592915050565b828054615115906157a1565b90600052602060002090601f016020900481019282615137576000855561517d565b82601f1061515057805160ff191683800117855561517d565b8280016001018555821561517d579182015b8281111561517d578251825591602001919060010190615162565b50615189929150615208565b5090565b828054615199906157a1565b90600052602060002090601f0160209004810192826151bb576000855561517d565b82601f106151cc578054855561517d565b8280016001018555821561517d57600052602060002091601f016020900482015b8281111561517d5782548255916001019190600101906151ed565b5b808211156151895760008155600101615209565b6001600160a01b0381168114610b4e57600080fd5b60006020828403121561524457600080fd5b8135614d088161521d565b60006020828403121561526157600080fd5b81356001600160e01b031981168114614d0857600080fd5b634e487b7160e01b600052604160045260246000fd5b6040516060810167ffffffffffffffff811182821017156152b2576152b2615279565b60405290565b604051610180810167ffffffffffffffff811182821017156152b2576152b2615279565b600082601f8301126152ed57600080fd5b813567ffffffffffffffff8082111561530857615308615279565b604051601f8301601f19908116603f0116810190828211818310171561533057615330615279565b8160405283815286602085880101111561534957600080fd5b836020870160208301376000602085830101528094505050505092915050565b60006020828403121561537b57600080fd5b813567ffffffffffffffff81111561539257600080fd5b61539e848285016152dc565b949350505050565b60005b838110156153c15781810151838201526020016153a9565b838111156133e65750506000910152565b600081518084526153ea8160208601602086016153a6565b601f01601f19169290920160200192915050565b60608152600061541160608301866153d2565b6001600160a01b0394909416602083015250901515604090910152919050565b60006020828403121561544357600080fd5b5035919050565b6000806040838503121561545d57600080fd5b82359150602083013561546f8161521d565b809150509250929050565b6000806040838503121561548d57600080fd5b82356154988161521d565b9150602083013560ff8116811461546f57600080fd5b60006101808e83528d60208401528c60408401528b60608401528a60808401528960a08401528860c08401528760e0840152806101008401526154f3818401886153d2565b95151561012084015250509115156101408301521515610160909101529998505050505050505050565b6020808252825182820181905260009190848201906040850190845b8181101561555557835183529284019291840191600101615539565b50909695505050505050565b8015158114610b4e57600080fd5b803561348481615561565b60008060006060848603121561558f57600080fd5b8335925060208401356155a18161521d565b915060408401356155b181615561565b809150509250925092565b6001600160a01b039384168152919092166020820152604081019190915260600190565b600080604083850312156155f357600080fd5b50508035926020909101359150565b6000806040838503121561561557600080fd5b823567ffffffffffffffff81111561562c57600080fd5b615638858286016152dc565b925050602083013561546f8161521d565b600080600083850360a081121561565f57600080fd5b606081121561566d57600080fd5b5061567661528f565b84356156818161521d565b815260208501356156918161521d565b6020820152604085810135908201529250606084013567ffffffffffffffff808211156156bd57600080fd5b9085019061018082880312156156d257600080fd5b6156da6152b8565b823581526020830135602082015260408301356040820152606083013560608201526080830135608082015260a083013560a082015260c083013560c082015260e083013560e0820152610100808401358381111561573857600080fd5b6157448a8287016152dc565b828401525050610120915061575a82840161556f565b82820152610140915061576e82840161556f565b82820152610160915061578282840161556f565b828201528094505050506157986080850161556f565b90509250925092565b600181811c908216806157b557607f821691505b602082108114156114da57634e487b7160e01b600052602260045260246000fd5b6020808252601f908201527f5265656e7472616e637947756172643a207265656e7472616e742063616c6c00604082015260600190565b60208082526018908201527f546865206173736574206d757374206265206c65617365640000000000000000604082015260600190565b6020808252601a908201527f4661696c656420746f207472616e73666572206465706f736974000000000000604082015260600190565b6020808252601590820152744661696c656420746f206572617365206c6561736560581b604082015260600190565b60208082526010908201526f14185d5cd8589b194e881c185d5cd95960821b604082015260600190565b6020808252601f908201527f546865206c65617365206d757374206e6f7420626520636f6d706c6574656400604082015260600190565b60006020828403121561591d57600080fd5b8151614d088161521d565b6020808252601490820152732632b9b9b7b91036bab9ba1031329037bbb732b960611b604082015260600190565b6020808252601c908201527f546865206173736574206d757374206e6f74206265206c656173656400000000604082015260600190565b6020808252601690820152752a3432903632b0b9b29036bab9ba1031329037b832b760511b604082015260600190565b6000602082840312156159cf57600080fd5b8151614d0881615561565b60208082526018908201527f54686520617373657420646f6573206e6f742065786973740000000000000000604082015260600190565b60208082526018908201527f6d73672e73656e646572206d757374206265206f776e65720000000000000000604082015260600190565b6208aa8960eb1b815260030190565b6000808354615a65816157a1565b60018281168015615a7d5760018114615a8e57615abd565b60ff19841687528287019450615abd565b8760005260208060002060005b85811015615ab45781548a820152908401908201615a9b565b50505082870194505b50929695505050505050565b634e487b7160e01b600052601160045260246000fd5b60008219821115615af257615af2615ac9565b500190565b600060208284031215615b0957600080fd5b5051919050565b60208082526012908201527142616c616e636520697320746f6f206c6f7760701b604082015260600190565b634e487b7160e01b600052603260045260246000fd5b60008251615b648184602087016153a6565b9190910192915050565b600082821015615b8057615b80615ac9565b500390565b6020808252600f908201526e151c985b9cd9995c8819985a5b1959608a1b604082015260600190565b6020808252601b908201527f4661696c656420455243323020746f6b656e207472616e736665720000000000604082015260600190565b60006101208b835260018060a01b038b1660208401528960408401528860608401528760808401528660a08401528560c08401528060e0840152615c2b818401866153d2565b9150508215156101008301529a9950505050505050505050565b7f416363657373436f6e74726f6c3a206163636f756e7420000000000000000000815260008351615c7d8160178501602088016153a6565b7001034b99036b4b9b9b4b733903937b6329607d1b6017918401918201528351615cae8160288401602088016153a6565b01602801949350505050565b602081526000614d0860208301846153d2565b634e487b7160e01b600052601260045260246000fd5b600082615cf257615cf2615ccd565b500490565b600082615d0657615d06615ccd565b500690565b6000816000190483118215151615615d2557615d25615ac9565b500290565b8681526000602060018060a01b038089168285015280881660408501525085606084015284608084015260c060a084015260008454615d68816157a1565b8060c087015260e0600180841660008114615d8a5760018114615d9f57615dcd565b60ff1985168984015261010089019550615dcd565b896000528660002060005b85811015615dc55781548b8201860152908301908801615daa565b8a0184019650505b50939d9c50505050505050505050505050565b6000600019821415615df457615df4615ac9565b5060010190565b600081615e0a57615e0a615ac9565b506000190190565b600080821280156001600160ff1b0384900385131615615e3457615e34615ac9565b600160ff1b8390038412811615615e4d57615e4d615ac9565b50500190565b60006001600160ff1b0381841382841380821686840486111615615e7957615e79615ac9565b600160ff1b6000871282811687830589121615615e9857615e98615ac9565b60008712925087820587128484161615615eb457615eb4615ac9565b87850587128184161615615eca57615eca615ac9565b505050929093029392505050565b600082615ee757615ee7615ccd565b600160ff1b821460001984141615615f0157615f01615ac9565b500590565b60008083128015600160ff1b850184121615615f2457615f24615ac9565b6001600160ff1b0384018313811615615f3f57615f3f615ac9565b5050039056fed980155b32cf66e6af51e0972d64b9d5efe0e6f237dfaa4bdc83f990dd79e9c84ff52032f36e32ac782042a01802e20394d4255c84a3c046490be98ab632691ba26469706673582212207b00700aab1e44543bcd2bef9b8556cf63fa85155d0bcae0adc1f55704b2657364736f6c63430008090033d980155b32cf66e6af51e0972d64b9d5efe0e6f237dfaa4bdc83f990dd79e9c84ff52032f36e32ac782042a01802e20394d4255c84a3c046490be98ab632691b",
  "linkReferences": {},
  "deployedLinkReferences": {}
}